:100200000C9452010C947A010C947A010C947A01AA
:100210000C947A010C947A010C947A010C947A0172
:100220000C947A010C947A010C947A010C947A0162
:100230000C947A010C947A010C947A010C947A0152
:100240000C947A010C947A010C947A010C947A0142
:100250000C947A010C947A010C947A010C947A0132
:100260000C947A010C947A010C943B2A0C94152A74
:100270000C947A010C947A010C947A010C947A0112
:100280000C947A010C947A010C947A010C947A0102
:100290000C94B1290C94872A0C94612A0C947A014D
:1002A000B92AAD2A11241FBECFEFCDBFDFE3DEBFD9
:1002B00018E2A0E0B8E2E4EFFDE702C005900D927D
:1002C000A431B107D9F72BE2A4E1B8E201C01D9235
:1002D000A830B207E1F711E0C1E5D1E004C02197F1
:1002E000FE010E94A636C035D107C9F70E94612CD5
:1002F0000C94A63A0C94000100006093C40880910D
:10030000C30887FFFCCF8091C40808950000809344
:10031000C4088091C30887FFFCCF8091C40808956A
:10032000CF93DF9390E0FC01ED5BF94420812F3FF8
:1003300071F0FC01E65EF944A08130E2A39FD00198
:100340001124BC5F6130710529F411962C93DF9163
:10035000CF9108958F509A44EC01E881EF3F89F0E6
:10036000CD014096E80FF92FF11D9FB7F894129632
:100370002C9380816230710539F4886080839FBF3F
:10038000E6CFF0E0E0E0F1CF877FF8CF282F30E034
:10039000F901E853FA44E081EE2309F1E13021F05C
:1003A000F0F0E63098F008954091010A2F503A4459
:1003B000F90120812C5F81E090E001C0880F2A952F
:1003C000EAF7809584238093010A089580E1E89FED
:1003D000F0011124E05AF54F81818F7E81830895C9
:1003E000FF920F931F93CF93DF93082F10E0F80134
:1003F000ED5BF944F0809FEFF916A1F0EB01893233
:1004000010F40E94C601F801E65EF944E08180E242
:10041000E89FF0011124FC5F80818F2159F0CD2BE2
:1004200039F4F682DF91CF911F910F91FF900895DB
:10043000F582F8CFD801AF50BA448C91309771F063
:100440008F3F61F07096E80FF11D9FB7F89480819F
:10045000CD2B39F4877F80839FBFE4CFF0E0E0E0CD
:10046000F4CF8860F8CF0F931F93CF93082F10E03D
:10047000F801ED5BF944C081CF3FB9F0893210F447
:100480000E94C601F801E65EF944E08180E2E89F3F
:10049000F0011124FC5F8085C82381E090E009F41D
:1004A00080E0CF911F910F91089580E090E0F9CF07
:1004B000893210F40C94F0010895CF93DF93CCE8C7
:1004C000DAE261E070E089810E9458028BEF90E0EF
:1004D0000197F1F770E060E089810E9458021B8269
:1004E0001C821D821E8280E090E0A0E8BFE38F8323
:1004F0009887A987BA8780E88A831B861C861D8611
:100500001E861B8ADF91CF910895893210F40C94D6
:1005100090010895CF93DF938FB7F89420914A28E4
:1005200030914B2840914C2850914D28E091BA0AC7
:100530009091B60A90FF06C02F5F3F4F4F4F5F4F1D
:10054000E091BA0A8FBFA0914828B0914928C09184
:100550004628D09147280E94EA34EC9F9001ED9FF5
:10056000300D1124620F731F811D911DDF91CF91FA
:1005700008958F929F92AF92BF92CF92DF92EF92A7
:10058000FF924B015C010E948A026B017C01A8EE84
:10059000B3E0A50194010E94EA34C60ED71EE81EFE
:1005A000F91EC616D706E806F90618F40E948A0254
:1005B000F8CF0E948A026C157D058E059F05C8F351
:1005C000FF90EF90DF90CF90BF90AF909F908F9073
:1005D00008952FB7F8946091422870914328809134
:1005E0004428909145282FBF0895DC01ED91FC919E
:1005F0000190F081E02D0994AF92BF92CF92DF92EB
:10060000EF92FF920F931F93CF93DF936C017B01C7
:100610008B01040F151FEB015E01AE18BF08C01758
:10062000D10759F06991D601ED91FC910190F081CB
:10063000E02DC6010995892B79F7C501DF91CF918E
:100640001F910F91FF90EF90DF90CF90BF90AF90F0
:100650000895FC01A485B58511968C91119781FDB3
:100660001BC06C9182898F5F8F739389981739F0C3
:10067000A289AE0FBF2FB11D59966C93828BE7569E
:10068000FF4F80819181009741F0DC01ED91FC9159
:100690000190F081E02D09948C910895FC0154891A
:1006A0004589252F30E0842F90E0821B930B54174F
:1006B00010F0CF96089501970895FC0192898389DF
:1006C000981761F0A389AE0FBF2FB11D59968C9179
:1006D00093899F5F9F73938B90E008958FEF9FEFB7
:1006E0000895FC0192898389981731F08389E80F76
:1006F000F11D818D90E008958FEF9FEF08950F9386
:100700001F930E94E90260937F2870938028809352
:1007100081289093822887E798E20E94710397FFCF
:100720001DC00E94E90200917F281091802820912D
:10073000812830918228601B710B820B930B0091F2
:100740007B2810917C2820917D2830917E2860178D
:10075000710782079307F8F28FEF9FEF1F910F91B8
:100760000895CF92DF92EF92FF92CF930E947F0382
:10077000FC0197FD4BC08D32910519F0C0970A9787
:10078000F0F5C12CD12C7601C0E0E130D1F0ED3292
:10079000F105D1F1CF01C0970A9798F4AAE0B0E033
:1007A000A70196010E94EA346F01FF0FEE08FF08CF
:1007B000C60ED71EE81EF91E80E3C81AD108E1084C
:1007C000F10887E798E20E945D030E947F03FC0125
:1007D000C0970A97D0F2E130C1F2CC2341F0F094F7
:1007E000E094D094C094C11CD11CE11CF11CC70141
:1007F000B601CF91FF90EF90DF90CF90089587E7FB
:1008000098E20E945D03B2CFC1E0DBCFC12CD12CB6
:100810007601EDCF6F927F928F929F92AF92BF92AF
:10082000CF92DF92EF92FF920F931F93CF93DF93BC
:100830000E947F03EC0197FD99C08D32910509F06C
:1008400061C0812C912C80E8A82E8FE3B82EC12C9A
:10085000D12C7601712C612CC13069F1CD32D105DA
:1008600009F47AC0CE32D10509F479C08E01005363
:1008700011090A301105F8F4772009F450C02DEC65
:100880003CEC4CEC5DE3C501B4010E940A344B0121
:100890005C01B801110F880B990B0E94AB33A501C5
:1008A00094010E940A349B01AC01C701B6010E9469
:1008B00060356B017C0187E798E20E945D030E942E
:1008C0007F03EC01C0970A9738F2CE32D10509F0C8
:1008D00049C0772019F2662021F0F7FAF094F7F872
:1008E000F094C701B601DF91CF911F910F91FF9056
:1008F000EF90DF90CF90BF90AF909F908F907F90C0
:100900006F900895C0970A9708F49BCFCE32D10517
:1009100009F497CF87E798E20E945D0389CF20E032
:1009200030E040E251E4C701B6010E940A346B0195
:100930007C01BE01DD0F880B990B0E94AB339B013C
:10094000AC01C701B6010E94603520E030E040E410
:1009500052E40E945F35ADCF66246394ACCF772418
:100960007394A9CFC13009F477CFB5CFC12CD12C66
:100970007601B7CFFC0192892389892F90E0805CB2
:100980009F4F821B91098F7399270895CF93DF930F
:10099000EC01E881F9810680F781E02D0995EC856D
:1009A000FD8586818F738683EC85FD8585818F75B6
:1009B00085838B898A8B198ADF91CF910895CF9295
:1009C000DF92EF92FF920F931F93CF93DF93EC018F
:1009D0006A017B01022F8989882339F0E881F98136
:1009E0000288F389E02DCE01099598898091E2056E
:1009F000892B8093E2051FB7F89460E070E281EAEA
:100A000097E0A70196010E942E3569017A018FEFC8
:100A1000C81AD80AE80AF80AF694E794D794C79453
:100A2000EC85FD8586818D7F8683EC85FD858681BD
:100A30008683198AA09123110A2E000CBB0BA701F3
:100A400096010E94F53420E034E040E050E00E943E
:100A5000CB34EC85FD85C20ED31EE41EF51EC08688
:100A6000D186EC85FD850783EC85FD858681806CCC
:100A70008683EC85FD858581806885838E8562E02F
:100A800070E00E9485028F8561E070E00E9458024C
:100A90008F8561E070E00E9485021FBFDF91CF91DA
:100AA0001F910F91FF90EF90DF90CF900895CF931B
:100AB000DF93FC0194898589C485D585981306C088
:100AC0008D818F7D8D83DF91CF910895A589AE0FA4
:100AD000BF2FB11DA75ABF4F2C91858990E0019679
:100AE0008F739927858B80E48C83A485B5851296B6
:100AF0002C93948985899813E6CFA485B58515969E
:100B00008C9115978F7D15968C9387898823D9F2C0
:100B1000808D80931301178AD6CFDC011C96ED914E
:100B2000FC910FB607FE03C0258125FD04C024817A
:100B300025FD0C9457050895EF92FF920F931F9394
:100B4000CF93DF93EC0181E0898B9C898D89981389
:100B50001CC0AC85BD8514968C91149785FF15C07B
:100B600012966C93AC85BD8580E414968C93EC85CD
:100B7000FD8585818F7D858381E090E0DF91CF9138
:100B80001F910F91FF90EF9008958091110180FFC8
:100B900008C080911301888F8E898093130181E0B2
:100BA0008F8BF62E0C8910E00F5F1F4F0F731127EC
:100BB000E02E8D898E1104C0CE010E948D05F9CFE3
:100BC000EC89EC0FFD2FF11DE75AFF4FF0820C8BE3
:100BD000EC85FD8585818062CECFCF93DF93FC01CC
:100BE00021892223C9F0EC018091110180FF08C006
:100BF00080911301808F86898093130181E0878B18
:100C0000EC85FD85858185FD03C0848186FD04C05A
:100C1000CE010E948D05F4CFDF91CF91089581E040
:100C20000895009741F0DC015896ED91FC9104A0E5
:100C3000F5A1E02D09940895009741F0DC01589644
:100C4000ED91FC91068CF78DE02D099408950097A5
:100C500041F0DC015896ED91FC91048CF58DE02D6E
:100C6000099486E190E08093FC2A9093FD2A8FEF0F
:100C70009FEF0895009741F0DC015896ED91FC91AB
:100C80000084F185E02D099486E190E08093FC2AB0
:100C90009093FD2A8FEF9FEF0895009741F0DC01BC
:100CA0005896ED91FC9100A0F1A1E02D099486E108
:100CB00090E08093FC2A9093FD2A8FEF9FEF089598
:100CC000CF93DF93EC01288539854A855B85A8EEB3
:100CD000B3E00E94EA340E94B9028C859D8582307F
:100CE000910538F0880F991F880F991F0597019774
:100CF000F1F7DF91CF9108955F926F927F928F927B
:100D00009F92AF92BF92CF92DF92EF92FF920F939A
:100D10001F93CF93DF938C017B014A013901DC01E2
:100D20005896ED91FC91C280D3805A01AC0CBD1C49
:100D3000D5015C90028CF38DE02D3097F9F0099588
:100D4000EC010196D9F4F801868182FF06C0C80142
:100D50000E946006C8010E944D06CE01DF91CF912E
:100D60001F910F91FF90EF90DF90CF90BF90AF90C9
:100D70009F908F907F906F905F900895F801A08D65
:100D8000B18D12968D919C911397E701C80FD91FD1
:100D9000E881E150E73108F06DC0F0E0EE52F94F24
:100DA0000C94A63618071807310731073A073A0797
:100DB0003D073A073A073A073A073A073A073A0728
:100DC0003A073A0740073A073A073A073A07E90667
:100DD000310747E050E0480F591F14968D919C91C0
:100DE0001597480F591F57FE51C014968D919C912D
:100DF0008C0D9D1D02968615970509F044C0EC0CDC
:100E0000FD1CD7012C91F50180818058990B281782
:100E10001906C9F5818190E08C309105A4F58E51B9
:100E2000944D8093FC2A9093FD2ACFEFDFEF95CF6E
:100E30003B812C81B90137FF02C0695F7F4FF3E02E
:100E400075956795FA95E1F76E5F7F4F27703327A9
:100E500041E050E0232B11F450E040E0460F571FD3
:100E6000BACF4B816C81542F462F4F5F5F4F440F99
:100E7000551FB1CF45E050E0AECF43E050E0ABCFDF
:100E80004FEF5FEFB0CF80EF9BE2CBCF64167506DC
:100E900021F04F3F5F4F09F091C0D701AC0DBD1D50
:100EA0008C91581671F0D80116968C9182FF06C06D
:100EB000C8010E946006C8010E944D068FEE9BE2A9
:100EC000B0CFEFEFE50DE73108F073C0F0E0E55982
:100ED000F84F0C94A63682078207A807A807D907FF
:100EE000D907D907D907D907D907D907D907D90702
:100EF000D907B707B707D507D907D907D907D9073A
:100F0000D907A80713962C911397822F90E0982F5A
:100F1000882714962C91280F392F311DC90137FDD0
:100F2000079663E0959587956A95E1F727703327D3
:100F300041E050E0232B11F450E040E0840F951F76
:100F4000F501C181D0E08C179D0709F406CFABCF26
:100F500013968C91139790E0982F882714962C91D4
:100F6000820F911DD5011196CC91C695EBCF9601BC
:100F70002D5F3F4FB4E0CB0ED11CF701E20FF31F02
:100F8000808190E0982F8827F701EC0DFD1D4081AE
:100F9000840F911D280D391DF901C0818C0C9D1CF9
:100FA000D4012C91DC2FC22FCECFF501C181D0E02E
:100FB000D4CEC1E0D0E081E090E0C5CFF8018681D9
:100FC00075CF2F923F924F925F926F927F928F9246
:100FD0009F92AF92BF92CF92DF92EF92FF920F93C8
:100FE0001F93CF93DF93CDB7DEB72A97CDBFDEBF78
:100FF0007C013B012A01DC015896ED91FC91599747
:10100000028113810F5F1F4F312C212C452BB1F032
:1010100018968D919D910D90BC91A02D89839A83F6
:10102000AB83BC83F70184859585A685B7858D83C1
:101030009E83AF83B887CE0101961C01D12CC12CB1
:10104000912C812CD7015896ED91FC910115110539
:1010500049F4008CF18DE02DA401B301C70109957D
:101060005C0129C002A0F3A1E02D9801A101BE01FD
:10107000675F7F4FC70109955C01D7019FEFA916F4
:10108000B906D9F516968C9181FD04C0AA24AA94BC
:10109000BA2C11C00091FC2A1091FD2A04371105C9
:1010A00009F5C7010E946006C7010E944D06009322
:1010B000FC2A1093FD2AC5012A96CDBFDEBFDF9121
:1010C000CF911F910F91FF90EF90DF90CF90BF9045
:1010D000AF909F908F907F906F905F904F903F90D8
:1010E0002F900895023FBDE21B0709F7C7010E9438
:1010F0001C06C7010E942706DACF5896ED91FC9195
:101100000688F789E02DA801B301680D791DC70194
:1011100009956115710509F582EF9DE28093FC2A1E
:101120009093FD2AF701868181FFB0CF0091FC2AC0
:101130001091FD2A023FFDE21F0721F00F36110535
:1011400009F0A4CFC7010E941C06C7010E94270610
:101150000093FC2A1093FD2A99CF6F3F760711F375
:10116000860E971E061B170B09F099C0D7015896DB
:10117000ED91FC91C114D10441F0CA94CD2809F439
:1011800057C082E0C82ED12C5DCFA281B381A60DBD
:10119000B71D8C9141145104B9F490E0873091054A
:1011A000D4F09C012F5031092230310508F47CC065
:1011B0008631910509F47EC04797D1F5CC24C394BC
:1011C000D12C09E010E015C0813158F48F3018F4AB
:1011D0008550823048F4CC24C394D12C04E010E034
:1011E00008C0863109F466C0CC24C394D12C01E038
:1011F00010E0F70140895189628973898489958952
:10120000A689B789411551056105710529F4009733
:10121000A105B10509F416CF49835A836B837C83FA
:101220008D839E83AF83B887CE0101961C010ACFC0
:10123000A281B381A60DB71D8C914114510401F513
:101240008F3020F08131A8F08731B9F08481958109
:10125000080F191F9401200F311F86819781821773
:101260009307D4F48FEE9BE28093FC2A9093FD2A9F
:101270000DCF15960C9110E0E9CF19960C91FBCF8C
:1012800090E0853091052CF08131910511F0479760
:10129000E9F611960C91EFCF52E0C52ED12C101625
:1012A00011060CF4A6CFCECECC24C394D12C05E0ED
:1012B00010E09FCFCC24C394D12C06E010E099CF4E
:1012C000AF92BF92CF92DF92EF92FF920F931F9354
:1012D000CF93DF93EC017B01E88DF98D0088F189D4
:1012E000E02DBA01C70109958C01E88DF98D0288BE
:1012F000F389E02DA801B701CE0109956B018FEFAD
:10130000C816D806C9F48E8181FF16C0A090FC2AA9
:10131000B090FD2A82EFA8168DE2B80679F5CE01CD
:101320000E941C06CE010E946006CE010E94270684
:10133000A092FC2AB092FD2A8E8181FF04C08FEF1B
:10134000C816D80691F21C141D0464F40C151D0572
:1013500049F08FEE9BE28093FC2A9093FD2ACC24E7
:10136000CA94DC2CC601DF91CF911F910F91FF90A1
:10137000EF90DF90CF90BF90AF900895CE010E9484
:101380006006CE010E944D06D3CFEF92FF920F93DD
:101390001F93CF93DF93CDB7DEB7C051D140CDBF00
:1013A000DEBF009799F486E190E08093FC2A909349
:1013B000FD2A8FEF9FEFC05FDE4FCDBFDEBFDF9115
:1013C000CF911F910F91FF90EF9008959A01AB017B
:1013D0007C01DC015896ED91FC910284F385E02DAF
:1013E0008E010B5F1E4F66E070E00995AC01B801FD
:1013F000C7010E94600918161906ECF641E050E09A
:10140000BE016F5F7F4FC7010E94E1078F3F9807C2
:1014100091F29C01AE014F5F5F4FB801C7010E947E
:101420007C06C9CF0F931F93CF93DF93EC018B0101
:101430006091A82A7091A92A8091A22A9091A32A4A
:101440000E943A068091A22A9091A32A009769F4FB
:1014500086E190E08093FC2A9093FD2A90E080E062
:10146000DF91CF911F910F910895A801BE010E94B5
:10147000C5099095991F9927991F892F90E0F0CF62
:10148000CF92DF92EF92FF920F931F93CF93DF9350
:10149000CDB7DEB7C051D140CDBFDEBF7C016A0100
:1014A000DC015896ED91FC910284F385E02D8E01CC
:1014B0000B5F1E4F21E030E0AB0163E070E0099567
:1014C000AC01B801C7010E946009181619066CF436
:1014D00041E050E0BE016F5F7F4FC7010E94E1070E
:1014E0008F3F980779F48FEF9FEFC05FDE4FCDBF3E
:1014F000DEBFDF91CF911F910F91FF90EF90DF90B2
:10150000CF9008959C01AE014F5F5F4FBE016B5FAE
:101510007E4FC7010E947C068F3F980721F3D701B9
:101520005896ED91FC9122813381F60150E040E024
:1015300061E070E06C0F7D1F260F371F48175907B9
:10154000A4F6DA01AA0FBB1FA20FB31F12966C916B
:10155000129713967C91672776276727619371937B
:101560004F5F5F4FEBCF0F931F93CF93DF9300D06D
:10157000CDB7DEB78B01BC018091A22A9091A32A3E
:101580000E943A068091A22A9091A32A009751F4D2
:1015900086E190E08093FC2A9093FD2A6FEF7FEF25
:1015A000CB010CC0AE014F5F5F4FB8010E94400AF3
:1015B00097FDF4CF69817A8190E080E00F900F90E1
:1015C000DF91CF911F910F9108956F927F928F922B
:1015D0009F92AF92BF92CF92DF92EF92FF920F93C2
:1015E0001F93CF93DF93FA018901DC015A966D9026
:1015F0007C90C12CD12C76013097C1F020813181B3
:1016000042815381A8EEB3E00E94EA346B017C0171
:10161000648175818681978128EE33E040E050E057
:101620000E942E35C20ED31EE41EF51E0E94E90252
:101630004B015C01F301808D918DDC01ED91FC91FA
:101640000084F185E02D0995EC0180179107BCF429
:101650000E94E902681979098A099B096C157D05C0
:101660008E059F0560F4F301808D918DDC01ED9175
:10167000FC910688F789E02D09958111DBCF209731
:1016800041F484E790E08093FC2A9093FD2ACFEF09
:10169000DFEFCE01DF91CF911F910F91FF90EF907F
:1016A000DF90CF90BF90AF909F908F907F906F9082
:1016B0000895CF93DF93DC015A96CD91DC91888D0C
:1016C000998DDC01ED91FC910084F185E02D099567
:1016D000892B51F0888D998DDC01ED91FC9102846C
:1016E000F385E02D0995EBCF90E080E0DF91CF917D
:1016F0000895DC015A96ED91FC91309759F0808D58
:10170000918D009739F0DC01ED91FC910488F58909
:10171000E02D09940895FA01DB019C9180819813D2
:1017200005C011969C918181981749F08FEE9BE23C
:101730008093FC2A9093FD2A8FEF9FEF089582817A
:10174000882319F083818111F1CF90E080E0089522
:10175000CA010895DC015A96ED91FC91808D918D1E
:10176000DC01ED91FC910288F389E02D0995BC0123
:10177000990F880B990B089550E040E00C94E10715
:10178000DC015A96ED91FC91808D918DDC01ED91FB
:10179000FC910280F381E02D0995BC0190E080E08E
:1017A00008959B0126503109FC0134832583CB0128
:1017B0000895FC01208130E0322F22278181820FA1
:1017C000932F911D0895DC01FB0115968C911597BF
:1017D000808314968C9114978183128213828C914A
:1017E000868312968C91878388E090E008950F930A
:1017F0001F93CF93DF93F801EC01AA8DBB8DCD91A0
:10180000DC911197CF3FDC07D9F02196CD93DC9383
:10181000119711967C91119770837C91718312823C
:101820001382DC018C9186836783508741873287DE
:1018300023878CE090E0DF91CF911F910F91089565
:101840001D921C921197E5CF683F710530F4FC01A1
:101850006083718390E080E008956F3F7105B9F374
:1018600086E190E08093FC2A9093FD2A8FEF9FEF12
:10187000089581E00895FC01808D882349F08485D6
:101880009585DC01ED91FC910190F081E02D0994AA
:1018900081E090E08283938390E080E00895DC0112
:1018A0001C968D919C91DC01ED91FC910680F78155
:1018B000E02D0994DC011C968D919C91DC01ED9149
:1018C000FC910284F385E02D0994DC011C968D9136
:1018D0009C91DC01ED91FC910484F585E02D099447
:1018E000DC011C968D919C91DC01ED91FC910084B2
:1018F000F185E02D0994CF93DF93EC018C859D85D4
:10190000DC01ED91FC910288F389E02D099588892D
:10191000998997FD09C070E060E00E94580270E06C
:1019200060E088890E9485028A899B8997FD0BC0A7
:1019300070E060E00E94580270E060E08A89DF9108
:10194000CF910C948502DF91CF9108958F929F9251
:10195000AF92BF92CF92DF92EF92FF920F931F93BD
:10196000CF93DF93EC014A015B016901898E9A8E66
:10197000AB8EBC8E2D8F3E8F8C899D89009709F090
:101980008C010C8B1D8B8E899F89009709F07C013F
:10199000EE8AFF8A8889998997FD09C061E070E025
:1019A0000E94850270E060E088890E9458028A895E
:1019B0009B8997FD09C061E070E00E94850261E0AB
:1019C00070E08A890E945802188E8C859D85DC0102
:1019D000ED91FC910088F189E02D9601B501A401FB
:1019E000DF91CF911F910F91FF90EF90DF90CF90FB
:1019F000BF90AF909F908F900994EF92FF920F93BA
:101A00001F93DC01ED91FC910488F589E02DA2E3A0
:101A1000EA2EF12C02E310E009951F910F91FF903F
:101A2000EF900895EF92FF920F931F93DC01ED91D9
:101A3000FC910488F589E02D7801890123E030E0EC
:101A400009951F910F91FF90EF900895EF92FF92EB
:101A50000F931F93DC01ED91FC910488F589E02D33
:101A600022E3E22EF12C02E310E023E030E00995BE
:101A70001F910F91FF90EF90089561E070E08091C9
:101A80004E280C94580270E060E080914E280C942F
:101A90005802CF93DF93EC018FA198A5892B41F0D9
:101AA000E881F9810284F385E02DCE010995F4CF18
:101AB000DF91CF910895CF93DF931F92CDB7DEB71B
:101AC0006983DC01ED91FC910280F381E02D41E01E
:101AD00050E0BE016F5F7F4F09950F90DF91CF916E
:101AE0000895FC0187A190A50895FC0183A194A10C
:101AF0000895DC01ED91FC91048CF58DE02D0994A5
:101B0000FC019485FB018485981303C081E0983023
:101B100009F480E0089521E0FC018485883009F40F
:101B200020E0822F08950895CF93DF931F92CDB7C1
:101B3000DEB76983DC01ED91FC910280F381E02D39
:101B400041E050E0BE016F5F7F4F09950F90DF913C
:101B5000CF910895DC01ED91FC91068CF78DE02D7D
:101B6000099591E089270895862F089581E08627B9
:101B7000089590E080E008950895EF92FF920F930A
:101B80001F93CF93DF937C01EB018B01040F151F93
:101B9000C017D10759F0D701ED91FC910480F58170
:101BA000E02D6881C70109958993F2CFDF91CF912C
:101BB0001F910F91FF90EF9008950F931F93CF9374
:101BC000DF93EC018B018091C008E881F9810480EA
:101BD000F581E02D86FD13C0612FCE010995182FE8
:101BE000E881F9810480F581E02D602FCE0109950F
:101BF000082FC801DF91CF911F910F910895CE0159
:101C00000995082FE881F9810480F581E02D612F85
:101C1000CE010995182FEDCF8F929F92AF92BF9270
:101C2000CF92DF92EF92FF920F931F93CF93DF93A8
:101C3000FC018085882319F081FF0EC07894DF9124
:101C4000CF911F910F91FF90EF90DF90CF90BF90B9
:101C5000AF909F908F90089580FFF1CF82849384FE
:101C6000A484B584C12CD12C760110E09401A50187
:101C7000B601C701A0E00E94C93699F1217030E099
:101C800040E050E060E070E080E090E00E94C93603
:101C9000D9F0D0E0C0E0103370F4C12FC695C695DE
:101CA000C69580E2C89FE0011124C05FDB4F812F01
:101CB0008770C80FD11DCF01810F911DDC01529695
:101CC0008C919881892B88839401A501B601C70165
:101CD00001E00E94AE3649015A016B017C011F5F91
:101CE000C5CF86849784A088B188C12CD12C760179
:101CF00010E29401A501B601C701A0E00E94C93617
:101D000009F49DCF217030E040E050E060E070E0E9
:101D100080E090E00E94C936D9F0D0E0C0E01033F6
:101D200070F4C12FC695C695C695B0E2CB9FE00171
:101D30001124C05FDB4F812F8770C80FD11DCF01E9
:101D4000810F911DDC0152968C919881892B88839B
:101D50009401A501B601C70101E00E94AE36490118
:101D60005A016B017C011F5FC4CFFC016F3F7105FD
:101D700081F1808581FD2DC0603271055CF581E0C7
:101D800090E002C0880F991F6A95E2F780959095C0
:101D9000092E000CAA0BBB0B428553856485758503
:101DA00084239523A623B72382879387A487B587A7
:101DB00082859385A485B585892B8A2B8B2B49F445
:101DC00086859785A089B189892B8A2B8B2B09F46D
:101DD000108608956052710981E090E002C0880F7A
:101DE000991F6A95E2F780959095092E000CAA0B31
:101DF000BB0B468557856089718984239523A6236B
:101E0000B72386879787A08BB18BD2CFFC016F3F1A
:101E10007105E9F1603371051CF082E08087089557
:101E200080858160808760327105C4F481E090E034
:101E300002C0880F991F6A95E2F7092E000CAA0BC1
:101E4000BB0B4285538564857585842B952BA62B0A
:101E5000B72B82879387A487B5870895605271094D
:101E600081E090E002C0880F991F6A95E2F7092E81
:101E7000000CAA0BBB0B4685578560897189842BA2
:101E8000952BA62BB72B86879787A08BB18B0895B0
:101E9000E0ECF8E020812E7F2083FC01178208957A
:101EA000E0ECF8E082818E7F82830895E0ECF8E038
:101EB0008281816082830895CF92DF92EF92FF92B8
:101EC000CF93DF93C0EADAE270E060E0888599851D
:101ED0000E94B30A6B0161E070E0888599850E94D9
:101EE000B30A072E000C880B990BCB0177276627C6
:101EF0000D2C000CEE08FF086C297D298E299F29E6
:101F0000DF91CF91FF90EF90DF90CF90089587E71A
:101F100098E20E94BA04181619062CF487E798E292
:101F20000E945D03F4CF87E798E20E94BA04892BF0
:101F3000D1F3089567EC70E08091A82A9091A92AC6
:101F40000E94B30A6093392870933A280895DC01FF
:101F500022E237EB2D933D9320E1FB013296019075
:101F60000D922A95E1F7FB0122893389FC01228B2E
:101F7000338B0895CF92DF92EF92FF920F931F93CE
:101F8000CF93DF93CDB7DEB76497CDBFDEBFDC0163
:101F90005A96ED91FC91008D118DD8018D919C91F7
:101FA000DC011E96ED90FC90C280D380BF016C5F77
:101FB0007F4FCE0101960E94A70FA601BE016F5F61
:101FC0007F4FC801F701099521E030E0892B11F01E
:101FD00030E020E088279927821B930B6496CDBFC1
:101FE000DEBFDF91CF911F910F91FF90EF90DF90B7
:101FF000CF900895CF93DF93EC01615F7F4F0E94F4
:10200000A70FCE01DF91CF910895DC01ED91FC91F6
:102010000088F189E02D23E030E00994EF92FF92EF
:102020000F931F93CF93DF93F0908D2AE0908C2A2B
:1020300008E010E0C0E0D0E861E070E08F2D0E9481
:10204000580288E28E1530F08E2D0E9433020197DF
:1020500009F4CD2B70E060E08F2D0E945802D695D8
:102060000150110949F78C2FDF91CF911F910F91EA
:10207000FF90EF900895FF920F931F93CF93DF93FC
:1020800080918C2A893220F40E9433020197C1F397
:1020900010E0F8940E940E10D82F0E940E10F82E17
:1020A0000E940E10082F80918E2A803829F08034EB
:1020B00081F0C2E0803271F061E070E080918D2AA1
:1020C0000E94580270E060E080918D2A0E945802C0
:1020D0000FC0C3E061E070E080918D2A0E94580239
:1020E00070E060E080918D2A0E945802C15091F703
:1020F0007894D7FD1FEF0E94E9026093972A7093AE
:10210000982A8093992A90939A2A602F7F2D8D2F59
:10211000912F0E94AB33DF91CF911F910F91FF90D0
:10212000089522E237EBFC0120833183128A138A5F
:10213000029620E1FC0111922A95E9F70895CF93C8
:10214000DF93EC018A8D9B8D0E947137CE01DF9168
:10215000CF910C9471370C947137CF93DF93EC01CE
:102160008AE896EB888399838C899D89009711F082
:102170000E9471378E899F89009711F00E947137F4
:10218000888D998D009711F00E9471378A8D9B8DF3
:10219000009711F00E9471378A819B81009721F08E
:1021A000DF91CF910C941106DF91CF910895CF93D9
:1021B000DF93EC010E94AD10CE01DF91CF910C9422
:1021C0007137CF93DF93EC0182EE96EB888399838E
:1021D0008B899C89009711F00E9471378A819B81BD
:1021E000009721F0DF91CF910C941106DF91CF91F0
:1021F0000895CF93DF93EC010E94E110CE01DF91AF
:10220000CF910C9471372AEE36EBFC012083318399
:102210000C94E110CF93DF93EC010E940311CE01E7
:10222000DF91CF910C9471372EE936EBFC012083BE
:1022300031830C94E110CF93DF93EC010E941411D1
:10224000CE01DF91CF910C947137CF92DF92EF9254
:10225000FF920F931F93CF93DF936C018B017A0151
:102260008CE190E00E94D536EC018FEF9FEF8A83DE
:102270009B831C821D821E821F82188619861A86E5
:102280001B8680E291EAA7E0B0E08C879D87AE874D
:10229000BF87188A198A1A8A1B8A8C8B9D8BAE8BF2
:1022A000BF8B8FEF90E08883998382EA95EB888FCC
:1022B000998F8AE190E00E94D5368A8F9B8FFC012E
:1022C000C08ED18E20E1F8013296DC011696019085
:1022D0000D922A95E1F7F80122893389FC01268BBA
:1022E000378BE282F38210821182CE01DF91CF918F
:1022F0001F910F91FF90EF90DF90CF900895CF92B4
:10230000DF92EF92FF920F931F93CF93DF93CDB79E
:10231000DEB76497CDBFDEBFBC01CE0101960E943F
:10232000A70F46EF51E0BE016F5F7F4F8091BD2A3E
:102330009091BE2A0E9425118C018091B32A909120
:10234000B42A009731F00E9471371092B32A10928C
:10235000B42A8091A22A9091A32A009741F00E946A
:102360001C068091A22A9091A32A0E941106009334
:10237000A22A1093A32A8FEF90E08093A82A90932B
:10238000A92A0115110581F0C8010E9427060091B4
:10239000A22A1091A32A892B51F0C8010E9411068C
:1023A0001092A22A1092A32A90E080E01DC0109201
:1023B000AA2A1092B52A1092B62A1092B72A109221
:1023C000B82A1092B92A1092BA2A1092BB2A1092F7
:1023D000BC2A01151105A1F486E190E08093FC2A46
:1023E0009093FD2A81E090E06496CDBFDEBFDF913F
:1023F000CF911F910F91FF90EF90DF90CF900895B4
:1024000084E090E0F801868397836091A42A70911C
:10241000A52A8091A62A9091A72A28EE33E040E0D1
:1024200050E00E942E3569017A019B01AC01A8EEB3
:10243000B3E00E94EA34C114D104E104F10429F4A8
:10244000611571058105910539F2F801C086D186C3
:10245000E286F3866487758786879787C3CFFB01FB
:1024600001900020E9F73197AF01461B570BDC01C3
:10247000ED91FC910280F381E02D09948F929F925F
:10248000AF92BF92EF92FF920F931F93CF93DF9380
:10249000CDB7DEB7A197CDBFDEBF7C01FA01CB017E
:1024A00019A2223008F42AE08E010F5D1F4F822E00
:1024B000912CB12CA12CBF01A50194010E942E35B5
:1024C000F901CA016A30F4F4605DD8016E938D01A0
:1024D000232B242B252B79F790E080E0109721F017
:1024E000BD01C7010E942F12A196CDBFDEBFDF91B3
:1024F000CF911F910F91FF90EF90BF90AF909F9061
:102500008F900895695CE1CFCF92DF92EF92FF92B6
:10251000CF93DF93AB01BC0177FF1DC06A017C0143
:102520006DE287E798E20E94F502EC014427552707
:10253000BA014C195D096E097F092AE087E798E224
:102540000E943E128C0F9D1FDF91CF91FF90EF9064
:10255000DF90CF9008952AE087E798E2DF91CF914E
:10256000FF90EF90DF90CF900C943E122F923F920D
:102570004F925F926F927F928F929F92AF92BF9293
:10258000CF92DF92EF92FF920F931F93CF93DF933F
:1025900000D01F92CDB7DEB78A839B834B01FC012D
:1025A00082899389019709F0CEC08F0144244A940F
:1025B00031E090E08FEF20E042814111B0C04381D3
:1025C0004111ADC09F5F8F3F11F4822F91E0391709
:1025D00014F4392F482E32962F5F283069F71A826B
:1025E0001B82D12CC12CA42C042C000CBB0835015F
:1025F000630E711C37FD7A94CA14DB0424F0C614F0
:10260000D7040CF490C0F8018281682F70E094E048
:10261000759567959A95E1F7362E8F70582E8381C0
:10262000E82EF12C24E0F594E7942A95E1F72E2C7E
:102630008F708983662309F4B7C0F9E0F61708F4B0
:1026400070C0605DC4010E94F5022A813B81280FA1
:10265000391F2A833B8339E060E3351508F467E5C9
:10266000650DC4010E94F502EA81FB81E80FF91FA4
:10267000EA83FB83311004C0511002C0222079F09C
:10268000F9E060E3F21508F467E56E0DC4010E94FD
:10269000F5022A813B81280F391F2A833B83398128
:1026A000632F605D3A3010F06981695AC4010E945D
:1026B000F502EA81FB81E80FF91FEA83FB83F7E06B
:1026C000CF16D10451F06AE3C4010E94F5022A81B9
:1026D0003B81280F391F2A833B833FEFC31AD30A5C
:1026E0000E5F1F4F88E0C816D10409F085CF8A819C
:1026F0009B812396CDBFDEBFDF91CF911F910F91BC
:10270000FF90EF90DF90CF90BF90AF909F908F9011
:102710007F906F905F904F903F902F9008958FEF34
:102720005ACF695A8FCFAC14BD04B9F64110CBCF44
:102730006AE3C4010E94F502EA81FB81E80FF91FF8
:10274000EA83FB83C0CFEA80FB80EEE0EE0EF11C53
:10275000AA80BB80F1E1AF0EB11C10E000E0F701F0
:1027600041917F0150E070E060E02AE0C4010E94E6
:102770003E126C016EE2C4010E94F5028C0D9D1D9B
:10278000080F191FAE14BF0451F7EA81FB8141897C
:1027900050E070E060E02AE0C4010E943E12800F29
:1027A000911F8A839B83A3CF511055CF67CFCF93BF
:1027B000DF93BC0187E798E20E942F12EC0164E2EC
:1027C00077EB87E798E20E942F128C0F9D1FDF9115
:1027D000CF910895609335287093362880933728D9
:1027E0009093382888E090E00E94120A892B21F407
:1027F00087E297EB0C94D7136091372870913828B3
:1028000089E090E00E94120A892B91F30895BC019F
:102810008BE390E00E94120A892B21F48EE497EB5F
:102820000C94D71308958F929F92AF92BF92CF923C
:10283000DF92EF92FF92CF9380918C2A893220F41D
:102840000E943302892BC1F7C5E0C12CD12C76013F
:102850000E943B109B01AC01C701B6010E9460358C
:102860006B017C0164E670E080E090E00E94B902B8
:10287000C15071F720E030E040EA50E4C701B601F2
:102880000E94CC350E943E3620910728233079F0F3
:1028900054F4213059F185E697EB0E94D71360E09C
:1028A00070E0CB014BC02A3011F02233A1F7072E84
:1028B000000C880B990B0E94AB334B015C0120E0AC
:1028C00030E0A9010E940A346B017C01AC019B013C
:1028D000C501B4010E940A34A70196010E94603527
:1028E00020E030E0A9010E94603528C0072E000CCE
:1028F000880B990B0E94AB336B017C0125E039E416
:102900004AEC52E30E940A34A70196010E940A345D
:102910004B015C012FE531E742EC5CE3C701B601F6
:102920000E940A349B01AC01C501B4010E946035CC
:102930002DEF3FEB42EE5EE30E945F35CF91FF90BB
:10294000EF90DF90CF90BF90AF909F908F900895C1
:10295000BC0187E798E20C942F124F925F926F921E
:102960007F928F929F92AF92BF92CF92DF92EF921F
:10297000FF926B017C01AC019B010E94793666E8F5
:1029800077EB811126C046015701E894B7F82FEF85
:102990003FEF4FE75FE7C501B4010E94793681112F
:1029A0000CC02FEF3FEF4FE75FE7C501B4010E9476
:1029B000A4336AE877EB181664F02FEF3FEF4FE788
:1029C0005FE4C701B6010E947436181694F46EE8ED
:1029D00077EB87E798E2FF90EF90DF90CF90BF9082
:1029E000AF909F908F907F906F905F904F900C94DE
:1029F0002F122FEF3FEF4FE75FECC701B6010E94A8
:102A0000A43387FDE4CF20E030E0A901C701B6017F
:102A10000E94A433B12CA12C87FF0AC06DE287E786
:102A200098E20E94F5025C01F7FAF094F7F8F0944E
:102A30002AE037ED43EA5BE3C701B6010E94603547
:102A40002B013C010E9445366B017C010E94A93399
:102A50009B01AC01C301B2010E945F352B013C0117
:102A60002AE0B701A60187E798E20E943E127C01A6
:102A7000EA0CFB1C62EF7BEB87E798E20E942F12C7
:102A8000E80EF91E20E030E040E251E4C301B2015B
:102A90000E940A342B013C010E9445364B01B12CA7
:102AA000A12C2AE0B501A40187E798E20E943E121A
:102AB000E80EF91EC501B4010E94A9339B01AC01C7
:102AC000C301B2010E945F3520E030E040E251E4F2
:102AD0000E940A340E944536AB0170E060E02AE0B3
:102AE00087E798E20E943E128E0D9F1DFF90EF90A7
:102AF000DF90CF90BF90AF909F908F907F906F901E
:102B00005F904F9008954F925F926F927F928F9255
:102B10009F92AF92BF92CF92DF92EF92FF920F936C
:102B20001F93CF93C82F2A013B01590182E997EBEC
:102B30000E94A8144C2F50E070E060E02AE087E784
:102B400098E20E943E1288E997EB0E94A814C30104
:102B5000B2010E94841283EA97EB0E94A814C50177
:102B6000B8010E94AD1489EA97EB0E94A814C7012E
:102B7000B6010E94AD1481EB97EBCF911F910F919D
:102B8000FF90EF90DF90CF90BF90AF909F908F908D
:102B90007F906F905F904F900C94D713FC01DB01F6
:102BA00052962D913C91828993892817390761F4B7
:102BB000CB01BF016E5F7F4F40E150E002960E9463
:102BC000123821E0892B09F020E0822F08950E941D
:102BD000FA37BF92CF92DF92EF92FF920F931F933B
:102BE000CF93DF93CDB7DEB7EC84FD84CE84DF8452
:102BF000B8880A891B89D70114968D919C91892BDD
:102C000059F0AE01485E5F4F6E897F898091022B3B
:102C10009091032B0E9428388C899D89892B31F053
:102C2000C7010E946006C7010E944D06F60182811D
:102C3000938180589F4F82839383D7015896ED915B
:102C4000FC910484F585E02DB801C6010995F801D1
:102C5000E80FF91FB0820196DF91CF911F910F917C
:102C6000FF90EF90DF90CF90BF9008952F923F920A
:102C70004F925F926F927F928F929F92AF92BF928C
:102C8000CF92DF92EF92FF920F931F93CF93DF9338
:102C9000CDB7DEB7C851D240CDBFDEBFFC01A281A7
:102CA000B381109749F486E190E08093FC2A9093D9
:102CB000FD2A90E080E0EBC35C017E01FBEFEF1AA0
:102CC000FEEFFF0A5896ED91FC9159970488F5891B
:102CD000E02DB701CD0109951816190654F7D50155
:102CE00012962D903C90C55FDD4F88839983CB5021
:102CF000D24086E190E02114310409F4C2C3D1012D
:102D00005896ED91FC91C280D380A4E0B1E0AC0F65
:102D1000BD1FAC0DBD1D8C91282F30E0CD5EDD4F69
:102D200028833983C351D240A7014C0D5D1DC15F7B
:102D3000DD4F48835983CF50D240DA019C90092D52
:102D400010E0A6E0B1E0AC0FBD1FAC0DBD1D4C9076
:102D5000512C542C4424A7E0B1E0AC0FBD1FAC0DA6
:102D6000BD1D8C91480E511C3E01BBEF6B1ABDEF8F
:102D70007B0AD3012D933C93119712960D931C93CC
:102D800013970684F785E02DBE01655F7D4FC7016F
:102D90000995F30184839583EFEFE90DE73108F09E
:102DA0003FC5F0E0EA52F94E0C94A636ED16ED164A
:102DB000D117D1176218BA183F1A101C101C101C1A
:102DC000101C101C101C101CEF189E190E1A101C41
:102DD000101C101C101C5E1AAA1A0230110509F0F2
:102DE00049C0D5011A964D915C911B9718962D916B
:102DF0003C9119975696AD90BC908EEB97EBE8E01E
:102E0000F1E0EC0FFD1FEC0DFD1DE080F12CFE2C20
:102E1000EE24E9E0F1E0EC0FFD1FEC0DFD1D6081FB
:102E2000E60EF11CB70161507109603D774060F119
:102E300027E02F9320ED2F939F938F93FF92EF9294
:102E400082EF97EB9F938F931F9281E08F9321E006
:102E500030E02C0F3D1F3F932F931F9283E08F9301
:102E60007F926F923F922F920E94E9158C01CDBF05
:102E7000DEBF6DC0F5014681578124813581A4886C
:102E8000B58884EB97EBBBCF6201C41AD50AD7FC97
:102E900008C047018C0C9D1C28153905E4F44E0C24
:102EA0005F1C9F938F935F924F928AE198EB9F9361
:102EB0008F931F921F9261E070E06C0F7D1F7F93D4
:102EC0006F931F9282E08F937F926F923F922F9227
:102ED0000E94E915CBCFD1015896ED91FC91048465
:102EE000F585E02DBE016F5F7F4FC30109958C0111
:102EF0000F5F1F4FE1E0F0E0EC0FFD1F8E0F9F1FF3
:102F000021E0A70147705527452B09F420E0F3E0A5
:102F1000F594E794FA95E1F7E20EDC01EC92F50105
:102F2000EC0DFD1D30E020E090E080E0AF014A199B
:102F30005B0948155905E4F0892B49F0E1E0F0E020
:102F4000EC0FFD1FE00FF11F20830F5F1F4FCD5EC1
:102F5000DD4F28813981C351D240232B09F495C21A
:102F6000A801BE016F5F7F4FC1010E9460098DC241
:102F7000419150E0082E02C0440F551F0A94E2F719
:102F8000242B352B8730910551F4A1E0B0E0AC0F34
:102F9000BD1FA00FB11F2C930F5F1F4FC3CF019612
:102FA000C5CF04301105B1F5F50146855785248557
:102FB0003585808C918C8EEC97EBE8E0F1E0EC0F9E
:102FC000FD1FEC0DFD1D008110E0102F0027E9E032
:102FD000F1E0EC0FFD1FEC0DFD1D6081060F111DD2
:102FE000B80161507109FE0131966F016D377105AD
:102FF00000F11F922DE72F939F938F931F930F93B1
:1030000082EF97EB9F938F931F9281E08F93FF93B3
:10301000EF9323CFD50152964D915C9153975096E3
:103020002D913C9151975A968D909C9083EE97EB01
:10303000C4CF7201E41AF50A5701F7FC07C0E00E8D
:10304000F11E2E153F057CF4400E511E9F938F9369
:103050005F924F928AE198EB9F938F931F921F92FA
:10306000DF92CF922ECFD1015896ED91FC9104843E
:10307000F585E02DB601C3010995F601E80FF91FAA
:10308000000F00839501220F331F820E931E0196BD
:10309000F601E80FF91F8F010C191D09AE14BF04CA
:1030A0000CF055CFD40111968C91B2E08B0E911C8F
:1030B0008083D40112978C9181832FEFA21AB20AD8
:1030C0003296E9CFD50116968D919C911797A20162
:1030D000481B590BCE01019657FD06C014962D9141
:1030E0003C91421753074CF05F924F922CE338EB20
:1030F0003F932F931F921F928EC1E8E0F1E0EC0FF7
:10310000FD1FEC0DFD1D208130E0322F2227E9E06C
:10311000F1E0EC0FFD1FEC0DFD1D6081260F311D50
:103120002115FFEF3F0719F021153105B1F4D50145
:103130005496ED91FC91E40FF51F41E0232B09F427
:1031400040E04083C55FDD4F08811981CB50D240FC
:10315000A801B7010E941F38FACE5F924F923F93A9
:103160002F9325E638EB3F932F931F921F929F9347
:103170008F9361C0D50152968D919C915397920186
:10318000281B390BCE01019637FD07C050964D9193
:103190005C915197241735072CF05F924F9223EAE8
:1031A00038EBA6CF220F331F5A96ED91FC91E20F18
:1031B000F31FA8E0B1E0AC0FBD1FAC0DBD1D2C91FD
:1031C00030E0322F2227A9E0B1E0AC0FBD1FAC0DDB
:1031D000BD1D4C91240F311D20833183B3CFE8E016
:1031E000F1E0EC0FFD1FEC0DFD1D808190E0982FAC
:1031F0008827E9E0F1E0EC0FFD1FEC0DFD1D2081BB
:10320000820F911D9C0121503109203B3740B0F0C5
:1032100027E02F9320EB2F939F938F9381ED98EBD3
:103220009F938F931F9281E08F93E1E0F0E0EC0F8A
:10323000FD1FFF93EF931F9283E045CED5011696B5
:103240002D913C911797F201E21BF30B9F01F7FDC3
:103250000CC0BC016E0F7F1F14964D915C911597A9
:1032600046175707D4F4480E591E5F924F9285E0D7
:1032700099EB9F938F931F921F9221E030E02C0FC8
:103280003D1F3F932F931F9282E08F937F926F9207
:103290003F922F920E94E915E9CD56E0C50ED11C50
:1032A00054960D911C91200F311FF90150E040E020
:1032B00081E090E08C0F9D1FC80ED91ECF01801BAE
:1032C000910B86179707F0F0D1015896ED91FC917C
:1032D0000484F585E02DBE016F5F7F4FC301099522
:1032E000A1E0B0E0AC0FBD1FA80FB91FF701E80FB8
:1032F000F91F24E001900D922A95E1F78C010C5FF3
:103300001F4F25CECF01821B930BA3E09695879587
:10331000AA95E1F78C0D9D1D8C5F9E4FDC018C9171
:1033200090E0042E02C0959587950A94E2F781708B
:1033300081934F5F5F4F47705527C0CFE8E0F1E0C2
:10334000EC0FFD1FEC0DFD1D208130E0322F2227F8
:10335000E9E0F1E0EC0FFD1FEC0DFD1D8081280F71
:10336000311DC90101978B37910578F01F928BE7CA
:103370008F933F932F938FE299EB9F938F931F929D
:1033800081E08F93CE010196F2CED50152968D91B8
:103390009C915397F201E81BF90BCF01F7FD31C067
:1033A000A9014E0F5F1F50966D917C9164177507B0
:1033B00034F1C15FDD4FE881F981CF50D2409C01EB
:1033C000220F331F2E193F092C193D098417950729
:1033D0000CF07ACFD5015A966D917C91DB01A20F4A
:1033E000B31FAE0FBF1F668170E0762F662717816F
:1033F000610F711D6D937C9301963296E7CF420E5B
:10340000531E5F924F9288E699EB9F938F931F9282
:103410001F92CE0101969F938F9335CFD10158967D
:10342000ED91FC910484F585E02DBE016F5F7F4F27
:10343000C3010995FE01E80FF91F24EB2283FE0169
:10344000E80FF91F2FEF2383DC011396E1E0F0E092
:10345000EC0FFD1FAE0FBF1F28E0E7E9F9EB01906D
:103460000D922A95E1F78C01055F1F4FE1E0F0E036
:10347000EC0FFD1FE80FF91F8AE0808368CD8DE611
:1034800090E08093FC2A9093FD2A81E090E0C85E52
:10349000DD4FCDBFDEBFDF91CF911F910F91FF9028
:1034A000EF90DF90CF90BF90AF909F908F907F90E4
:1034B0006F905F904F903F902F900895D501529656
:1034C0008D919C915397F201E81BF90BCE01019667
:1034D000F7FD63CE50962D913C915197E217F3077B
:1034E0000CF05BCEEE0FFF1F5A962D913C91E20F30
:1034F000F31FAAE0B1E0AC0FBD1FAC0DBD1D2C91B8
:1035000030E0322F2227ABE0B1E0AC0FBD1FAC0D95
:10351000BD1D4C91240F311DA8E0B1E0AC0FBD1FC3
:10352000AC0DBD1D4C91642F70E0762F6627A9E08D
:10353000B1E0AC0FBD1FAC0DBD1D4C91460F572F18
:10354000511D6081718162277327462357232427E9
:10355000352742CEE8E0F1E0EC0FFD1FEC0DFD1D3C
:10356000808190E0982F8827E9E0F1E0EC0FFD1FC3
:10357000EC0DFD1D2081FC01E20FF11DC35FDD4F4D
:10358000E883F983CD50D240ECE0F1E0EC0FFD1F71
:10359000EC0DFD1D808190E0982F8827EDE0F1E093
:1035A000EC0FFD1FEC0DFD1D2081820F911D9C0174
:1035B000215031098E010F5F1F4F29373105C0F4AB
:1035C000C35FDD4F28813981CD50D2402150310970
:1035D0002D37310568F4EEE0F1E0EC0FFD1FEC0D46
:1035E000FD1D40819C01220F331F4217130639F144
:1035F0001F922DE72F931F9229E72F93C25FDD4F74
:10360000F881CE50D240FF93C35FDD4F2881CD506B
:10361000D2402F939F938F9380EA99EB9F938F9340
:103620001F9281E08F931F930F931F9283E08F93DC
:103630007F926F923F922F920E94E91517CCEAE099
:10364000F1E0EC0FFD1FEC0DFD1D208130E0322F6D
:103650002227EBE0F1E0EC0FFD1FEC0DFD1D40819A
:10366000240F311DD50152964D915C9153977201F3
:10367000E41AF50ACF5EDD4FE882F982C151D240EB
:10368000F901E41BF50BAF014F01F7FCD9C0C35F93
:10369000DD4F68817981CD50D2406E0D7F1DCB5EAC
:1036A000DD4F68837983C551D24050966D917C91EE
:1036B000CB5EDD4FA881B981C551D2406A177B0727
:1036C00064F0FC01E40FF51FC95EDD4FE883F98368
:1036D000C751D2406E177F07DCF457FD04C0280F96
:1036E000391FF7FC08C0C35FDD4F48815981CD50B9
:1036F000D240440E551E3F932F935F924F928CEE13
:1037000099EB9F938F931F921F921F930F93D9CB87
:10371000D1015896ED91FC910484F585E02DB80116
:10372000C3010995F801E80FF91FC35FDD4F288138
:10373000CD50D240220F2083C15FDD4FE881F98157
:10374000CF50D240AE014B5F5E4F9401220F331F2A
:10375000241B350B2C193D09C95EDD4F4881598169
:10376000C751D240841695060CF443C0F801E80F07
:10377000F91F9701220F331F201B310BB901681B62
:10378000790BCB0141E050E0401B510B8A010E0F39
:103790001F1FCB5EDD4F68817981C551D240CF5E5E
:1037A000DD4FA881B981C151D240A617B7070CF0EF
:1037B000CECBBC016E0F7F1FD5015A962D913C9147
:1037C000DB01A20FB31F11962C91119721832C912D
:1037D0002283CF5EDD4F28813981C151D2402F5FD6
:1037E0003F4FCF5EDD4F28833983C151D24032969F
:1037F000CDCFD5015A964D915C91DA01AE0FBF1F26
:10380000A20FB31F428550E0542F44276385460F13
:10381000511D4D935C93BFEF8B1A9B0A32969CCF40
:103820001F929F928DE39AEB9F938F931F9281E05B
:103830008F939E012F5F3F4F3F932F931F9225CD74
:10384000F7FF4DCF58CFCF92DF92EF92FF920F93B9
:10385000FC01C12CB9E0DB2EBDE3EB2EF12CC082C4
:10386000D182E282F3821482158281E090E0868325
:103870009783C0900228D0900328E0900428F0900D
:103880000528F694E794D794C79490E04C155D050D
:103890006E057F0540F4F694E794D794C7949F5F34
:1038A0009630A1F797E004600187892F8095A82FB3
:1038B000A170B0E084E0AA0FBB1F8A95E1F7916286
:1038C0009A2B80E0232B09F480E4982B90870F91AA
:1038D000FF90EF90DF90CF9008950F931F93CF93B9
:1038E000DF93CDB7DEB72A97CDBFDEBF8C01FC01D9
:1038F000878181110CC0108611861286138614866A
:10390000158616861786108A118A81E08783809132
:10391000E305F8019681892B8093E30561E070E06F
:1039200083810E94850261E070E0F80184810E9439
:1039300085028091C10884608093C1088091C0088D
:1039400081628093C00840914F2A5091502A609123
:10395000512A7091522A0091532A2091552A309170
:10396000562ACE0101960E94231C99858A85909340
:10397000C0088093C1082A96CDBFDEBFDF91CF91EA
:103980001F910F9108955F926F927F928F929F92F5
:10399000AF92BF92CF92DF92EF92FF920F931F935D
:1039A000CF93DF93CDB7DEB76297CDBFDEBF3C01CB
:1039B0000B871C872D873E87042F4F87588B698B79
:1039C0007A8B29893A894B855C856D857E85CE0108
:1039D00001960E94231C59841A85D30118968C9154
:1039E000882319F081FF18C0F8945092C0081093F2
:1039F000C1086296CDBFDEBFDF91CF911F910F91BD
:103A0000FF90EF90DF90CF90BF90AF909F908F90FE
:103A10007F906F905F90089580FFE7CFF3018284DD
:103A20009384A484B584C12CD12C7601B0E0940198
:103A3000A501B601C701A0E00E94C936A9F1217015
:103A400030E040E050E060E070E080E090E00E9414
:103A5000C936E9F090E080E0B03370F48B2F8695A2
:103A600086958695F0E28F9FC0011124805F9B4F61
:103A70002B2F2770820F911DFC01408193012B0F8A
:103A8000311DF901428BFC012081287F20839401A4
:103A9000A501B601C70101E00E94AE3649015A01F5
:103AA0006B017C01BF5FC3CFD3011E968D909D90AB
:103AB000AD90BC905197C12CD12C7601B0E294010D
:103AC000A501B601C701A0E00E94C93609F48DCF57
:103AD000217030E040E050E060E070E080E090E095
:103AE0000E94C936E9F090E080E0B03370F48B2F8B
:103AF000869586958695E0E28E9FC0011124805FB1
:103B00009B4F2B2F2770820F911DFC014081930149
:103B10002B0F311DF901428BFC012081287F20836E
:103B20009401A501B601C70101E00E94AE3649012A
:103B30005A016B017C01BF5FC2CFBF92CF92DF926F
:103B4000EF92FF920F931F93CF93DF93D82FB92E4D
:103B5000C62F6A0179010091CC291091CD292091BD
:103B6000CE293091CF294091D0295091D12960910F
:103B7000D2297091D3298DE09AE20E94C31C0E9441
:103B8000430D8B2D0E9486018D2F0E9486018C2F64
:103B90000E948601E60186010E0D1F1D80E00E9435
:103BA000860189930C171D07C9F70E943D0D8DE012
:103BB0009AE20E940C0EC701DF91CF911F910F91E5
:103BC000FF90EF90DF90CF90BF900895AB01FC0184
:103BD00084858295880F807E68E0680F26E030E05B
:103BE00086E090E00C949D1DAB01FC0184858295DC
:103BF000880F807E68E0680F24E030E08CE090E081
:103C00000C949D1DAB01FC0184858295880F807EFC
:103C100068E0680F24E030E08CE090E00C949D1D9B
:103C2000AB01FC0184858295880F807E68E0680F77
:103C300026E030E086E090E00C949D1D0F931F93EA
:103C4000CF93DF93D82FC62F0091CC291091CD2987
:103C50002091CE293091CF294091D0295091D1295E
:103C60006091D2297091D3298DE09AE20E94C31C01
:103C70000E94430D80E00E9486018D2F0E948601E4
:103C80008C2F0E94860180E00E948601C82F0E942E
:103C90003D0D8DE09AE20E940C0E8C2FDF91CF91AA
:103CA0001F910F9108959B018295880F807E68E097
:103CB000680FC9010C941E1E1F93CF93DF93182F1A
:103CC00066E270E00E94531EC82FD0E0DC2FCC27A4
:103CD00067E270E0812F0E94531E8C0F9D2F911D73
:103CE000DF91CF911F910895FF920F931F93CF9370
:103CF000DF93F82E10E000E08F2D0E945C1EEC0197
:103D0000892B21F08F2D0E945C1E8C01C017D107DA
:103D100099F7CE01DF91CF911F910F91FF900895F8
:103D2000FC018485883011F00C94741E90E080E0D2
:103D300008951F93CF93DF93182F60E270E00E94E5
:103D4000531EC82FD0E0DC2FCC2761E270E0812F1A
:103D50000E94531E8C0F9D2F911DDF91CF911F91BB
:103D60000895FF920F931F93CF93DF93F82E10E0E7
:103D700000E08F2D0E94991EEC01892B21F08F2DE0
:103D80000E94991E8C01C017D10799F7CE01DF91CF
:103D9000CF911F910F91FF900895FC018485883089
:103DA00021F063E070E00C94531E80E00895CF93FF
:103DB000DF93FC0124852830D9F0EC010E94CD1E50
:103DC000843189F0882379F0883169F021E08C31E1
:103DD00059F4E881F9810084F185E02DCE0109953F
:103DE00021E0892B09F420E0822FDF91CF91089503
:103DF00080E0FBCF70E060E00C94531EFC018485F2
:103E00000E94FA1E829581700895FC0184850E94AB
:103E1000FA1E86FB882780F90895FC0184850C949E
:103E2000FA1EFC0184850E94FA1E85FB882780F912
:103E30000895FC0184850C94FA1EBF92CF92DF9204
:103E4000EF92FF920F931F93CF93DF93D82FB92E4A
:103E5000C62F6A0179010091CC291091CD292091BA
:103E6000CE293091CF294091D0295091D12960910C
:103E7000D2297091D3298DE09AE20E94C31C0E943E
:103E8000430D8B2D0E9486018D2F0E9486018C2F61
:103E90000E948601E60186010E0D1F1DC017D10785
:103EA00021F089910E948601F9CF0E943D0D8DE09D
:103EB0009AE20E940C0EC701DF91CF911F910F91E2
:103EC000FF90EF90DF90CF90BF900895AB01829567
:103ED000880F807E6CE0680F24E030E08CE090E09A
:103EE0000C941D1FFF920F931F93CF93DF93F82E17
:103EF000D62FC42F0091CC291091CD292091CE2905
:103F00003091CF294091D0295091D1296091D22967
:103F10007091D3298DE09AE20E94C31C0E94430D48
:103F200080E00E9486018F2D0E9486018D2F0E94C5
:103F300086018C2F0E9486010E943D0D8DE09AE241
:103F40000E940C0E81E0DF91CF911F910F91FF90A5
:103F50000895EF92FF921F93CF93DF93CDB7DEB713
:103F6000C05FD109CDBFDEBF7C0182E297EBC352B7
:103F7000DF4F88839983CD5DD040C151DF4F1882D8
:103F80001982CF5ED040EDEDF0E0EC0FFD1F3296D0
:103F90008CE0DF011D928A95E9F78FEFC551DF4F65
:103FA0008883CB5ED040C451DF4F8883CC5ED04045
:103FB000C351DF4F8883CD5ED040C251DF4F18829E
:103FC000CE5ED040BE0163527F4FCE018B549F4FD7
:103FD0000E94A70FB701CE0187539F4F0E94A70FE2
:103FE000BE0167537F4FCE018F559F4F0E94A70F91
:103FF000CD54DF4F88819981C35BD040E1EAF0E086
:10400000EC0FFD1F892B09F4D2C0359681E0808327
:10401000BE016F557F4FCE0183579F4F0E94A70F60
:10402000BE016B547F4FCE0187589F4F0E94A70F50
:10403000BE0167537F4FCE018B599F4F0E94A70F40
:10404000BE016B597F4FCE018F5A9F4F0E94A70F21
:10405000A5968EAD9FADA597E1E5F0E0EC0FFD1FB5
:10406000892B09F4A6C0359681E08083BE016F5A82
:104070007F4FCE01CD960E94A70FBE0163577F4FA1
:10408000CE0189960E94A70FBE0167587F4FCE01CF
:1040900045960E94A70FBE016B597F4FCE01019636
:1040A0000E94A70FF0900B2A10910A2AF0924E2836
:1040B00068EE73E080E090E00E94B90261E070E099
:1040C0008F2D0E9485028DE09AE20E946D1C1130B6
:1040D00009F071C01CE240E0612F8EE190E00E9487
:1040E000721F40E0612F8FE190E00E94721F105E0E
:1040F0001C3089F740E16CE08EE190E00E94721F75
:1041000040E16CE08FE190E00E94721F26E030E019
:1041100048E058E264E089E090E00E941D1F8B892E
:104120009C89AE01892B09F4A7C04D5F5F4F24E045
:1041300030E064E08FE090E00E941D1F8BAD9CADED
:10414000AE01892B09F49BC0455D5F4F24E030E050
:1041500064E081E090E00E941D1F8FA198A5AE0150
:10416000892B09F48FC0495E5F4F24E030E064E0A2
:1041700085E090E00E941D1F80E1FE01FF96A6ED04
:10418000B9E201900D928A95E1F761968EAD9FADEF
:1041900061978093E6299093E729C051DF4FCDBF07
:1041A000DEBFDF91CF911F91FF90EF900895719640
:1041B0002DCF719659CF123029F51CE440E0612FC4
:1041C0008EE190E00E94721F40E0612F8FE190E04D
:1041D0000E94721F105E1C3089F748E06CE08EE18F
:1041E00090E00E94721F48E06CE08FE190E00E9436
:1041F000721F48E06CE28EE190E00E94721F48E07E
:104200006CE280CF143001F51CE840E0612F8EE1B4
:1042100090E00E94721F40E0612F8FE190E00E94C9
:10422000721F105E1C3089F744E0612F8EE190E030
:104230000E94721F44E0612F8FE190E00E94721F84
:10424000105E1C3889F762CF1CE088E0E82EF12C64
:1042500042E0612F8EE190E00E94721F42E0612FE8
:104260008FE190E00E94721FB1E0EB1AF108105E3E
:10427000E114F10469F74ACF415F5F4F58CF495CC1
:104280005F4F64CF4D5D5F4F70CF9B018295880F6C
:10429000807E6CE0680FC9010C94721FBF92CF92B0
:1042A000DF92EF92FF920F931F93CF93DF93B82E7D
:1042B0006B017A01890164E270E00E94531EC82FED
:1042C00065E270E08B2D0E94531ED0E0DC2FCC27DE
:1042D0008C0D9D2D911DC80FD91F6B2D6295660FFA
:1042E000607E6C5E9801A701CE010E941D1FC00F69
:1042F000D11F4D2F64E270E08B2D0E9445214C2F81
:1043000065E270E08B2DDF91CF911F910F91FF90AF
:10431000EF90DF90CF90BF900C944521AF92BF9269
:10432000CF92DF92FF920F931F93CF93DF938C0175
:104330005B01EA01FC01C5A0D6A0F4848F2D0E9488
:10434000B11E8C179D0720F48F2D0E94B11EEC0129
:104350009E01A501B6018F2D0E944E21F80185A175
:1043600096A18C0F9D1F85A396A3CE01DF91CF91BF
:104370001F910F91FF90DF90CF90BF90AF90089565
:10438000CF93C82F462F61E070E00E94452161E085
:1043900070E08C2F0E94531E8111F9CFCF910895A8
:1043A000CF92DF92EF92FF920F931F93CF93DF9301
:1043B000D82E7B018A01C22E68E270E00E94531E53
:1043C000C82FD0E0DC2FCC2769E270E08D2D0E9451
:1043D000531EC80FD11D6D2D6295660F607E685EFD
:1043E0009801A701CE010E949D1DC11016C0C00FEB
:1043F000D11F4D2F68E270E08D2D0E9445214C2F7A
:1044000069E270E08D2DDF91CF911F910F91FF90A8
:10441000EF90DF90CF900C944521DF91CF911F91C9
:104420000F91FF90EF90DF90CF900895CF92DF92A1
:10443000EF92FF921F93CF93DF93182F6B017A01B6
:104440000E94741EEC010097D9F463E070E0812FA4
:104450000E94531E843159F0882349F0C1E0D0E016
:104460008C3111F4D0E0C0E0D195C195D109CE01D5
:10447000DF91CF911F91FF90EF90DF90CF90089543
:10448000E816F9060CF4E7011C161D0684F720E077
:10449000AE01B601812F0E94D02160E470E0812F2F
:1044A0000E94C021E4CFCF93DF93FC0127A130A568
:1044B0002115310529F48FEF9FEFDF91CF910895FA
:1044C000EC0184854217530708F0A9010E941622C7
:1044D0001816190684F72FA138A5281B390B2FA30E
:1044E00038A7EBCF0F931F93CF93DF931F92CDB7D6
:1044F000DEB7FC0127A130A5232B41F48FEF9FEFFE
:104500000F90DF91CF911F910F9108958C0141E0A1
:1045100050E0BE016F5F7F4FFC0184850E94162230
:10452000181619065CF7F80187A190A5019787A3D3
:1045300090A7898190E0E4CF0F931F93CF93DF93EF
:10454000CDB7DEB72897CDBFDEBF8C01DC01ED9182
:10455000FC910680F781E02D0995F80184850E9481
:10456000741E892BE1F148E050E0BE016F5F7F4F80
:10457000D8011C968C910E941622181619063CF53B
:10458000F80111A212A271968CE0DF011D928A95AA
:10459000E9F7D8015D9684E0FE01319601900D9215
:1045A0008A95E1F78D8190E0982F88272E81820FE0
:1045B000911DF80183A394A38F81282F30E0322F1F
:1045C00022278885820F932F911D87A390A7289675
:1045D000CDBFDEBFDF91CF911F910F91089590E085
:1045E00080E0F5CFFC0184850C941622CF93DF93F5
:1045F0001F92CDB7DEB741E050E0BE016F5F7F4F45
:10460000FC0184850E9416221816190634F489814B
:1046100090E00F90DF91CF9108958FEF9FEFF9CF4A
:104620000F931F93CF93DF931F92CDB7DEB78C010B
:10463000DC01ED91FC910084F185E02D0995892B39
:1046400091F021E041E050E0BE016F5F7F4FF80143
:1046500084850E94D021898190E00F90DF91CF91D5
:104660001F910F9108958FEF9FEFF7CFCF93DF93B7
:104670001F92CDB7DEB7FC0127A130A58FEF9FEFCA
:10468000232B59F021E041E050E0BE016F5F7F4FE6
:1046900084850E94D021898190E00F90DF91CF9195
:1046A0000895CF93C82F60E170E00E94C0214FEFC2
:1046B00062E070E08C2FCF910C944521FF920F9314
:1046C0001F93CF93DF93C82FD62F8A01F22E0E941B
:1046D00051234D2F4F2970E060E08C2F0E9445211F
:1046E00001151105C1F0412F64E070E08C2F0E948C
:1046F0004521402F65E070E08C2F0E94452161E04C
:1047000070E08C2F0E94C02181E0DF91CF911F913A
:104710000F91FF90089500911528109116280F5FB2
:104720001F4F0093152810931628DDCFEF92FF92AC
:104730001F93CF93DF93FC012485283039F080E06C
:10474000DF91CF911F91FF90EF9008957B01EC01D5
:1047500010E063E070E0812F0E94531E81110FC0B2
:104760001C878C85883059F3ED86FE861FA218A61B
:1047700020E0A70162E00E945E2381E0E1CF883162
:1047800079F31F5F183029F7ECCFCF93DF93EC015B
:104790008C85883021F00E94512388E08C87DF913E
:1047A000CF910895CF92DF92EF92FF92CF93DF9354
:1047B000EC018C85883041F168E070E00E94C021F6
:1047C0000E94E9026B017C01CE010E94CD1E88236C
:1047D00089F061E070E080E090E00E94B9020E9400
:1047E000E9026C197D098E099F09683E73408105B5
:1047F000910550F3CE010E94CD1E882319F08C85BF
:104800000E94512388E08C87DF91CF91FF90EF9039
:10481000DF90CF9008958F929F92AF92BF92CF92E8
:10482000DF92EF92FF920F931F93CF936C015B0186
:104830007A01FC01C485C830A1F481E090E0F60162
:1048400082839383F12CE12CC701CF911F910F91AB
:10485000FF90EF90DF90CF90BF90AF909F908F90A0
:1048600008958A014130584010F000E018E08C2F84
:104870000E94B11E4C0163E070E08C2F0E94531E19
:10488000873111F08C3109F58016910680F398017B
:10489000A50170E060E08C2F0E944E2160E270E084
:1048A0008C2F0E94C02162E070E08C2F0E94531E6A
:1048B00084FD0EC063E070E08C2F0E94531E8111B6
:1048C000F2CF8C2F0E945123B8CF10E000E0DFCF51
:1048D00040E162E070E08C2F0E944521012B09F03D
:1048E000B3CFABCF1F93CF93DF93EC01162F8C8503
:1048F0000E94FA1E482F112349F0406170E060E0E9
:104900008C85DF91CF911F910C9445214F7EF6CF7E
:104910001F93CF93DF93EC01162F8C850E94FA1E14
:10492000482F112349F0406470E060E08C85DF91EE
:10493000CF911F910C9445214F7BF6CFCF93FC0173
:10494000C48560E270E08C2F0E94C02162E070E0BC
:104950008C2F0E94531E84FD11C062E070E08C2FEA
:104960000E94531E83FFF2CF48E162E070E08C2F7B
:104970000E94452190E080E0CF91089540E162E0FF
:1049800070E08C2F0E94452181E090E0F5CFCF931D
:10499000DF93C82FD62F472F60E170E00E9445219A
:1049A0004D2F61E170E08C2FDF91CF910C94452168
:1049B0001F93CF93DF93DB01FC0115A216A2529641
:1049C0002D913C915397FB01232B19F53E961E9692
:1049D0002C91211109C02181211106C022812111B0
:1049E00003C023812223C9F041155105B1F0EA012A
:1049F000DC011C961C91BF01812F0E94661FBE0125
:104A0000812F0E94C72481E090E0DF91CF911F9118
:104A10000895329612962C91DCCF90E080E0F5CF8D
:104A20002F923F924F925F926F927F928F929F92BE
:104A3000AF92BF92CF92DF92EF92FF920F931F93AC
:104A4000CF93DF93CDB7DEB76F97CDBFDEBF7C01CD
:104A50005B016A01DB01FB0181918111FDCF30E037
:104A600020E090E080E05AE04D91442341F1843011
:104A700091050CF051C04E32A9F42F3F310511F0D1
:104A80000CF04AC0F60162897389FC01672B41F47E
:104A90003E96EC0DFD1D2083019630E020E0E4CF32
:104AA0003296F7CF529FB001539F700D1124242FDF
:104AB000440F330B20533109260F371FD5CF2F3F1B
:104AC000310509F04CF58430910534F5F601428941
:104AD0005389452BF9F40E96C80ED91EF601208392
:104AE000AA24A394B12CC5016F96CDBFDEBFDF9180
:104AF000CF911F910F91FF90EF90DF90CF90BF90DB
:104B0000AF909F908F907F906F905F904F903F906D
:104B10002F9008950296E0CF6FE478E2C7010E94DB
:104B2000CE15811105C287010A5E1F4F0E94E9025E
:104B30006F7077277C5FC8010E949623813009F04F
:104B4000FCC1B701CE0101960E94A70F45E350E0DA
:104B5000BE016F5F7F4FC8010E94D824892B31F4BA
:104B6000B12CA12CC8010E94C523BDCF0E94E9022F
:104B7000F701648B758B42E050E0B7016C5E7F4FAC
:104B8000C8010E948E2181E090E089839A8342E0EF
:104B900050E0BE016F5F7F4FC8010E948E2180E010
:104BA00091E089839A8342E050E0BE016F5F7F4FBE
:104BB000C8010E948E2119821A8242E050E0BE0193
:104BC0006F5F7F4FC8010E948E2142E050E0BE011E
:104BD0006F5F7F4FC8010E948E2142E050E0BE010E
:104BE0006F5F7F4FC8010E948E213501F5018081E2
:104BF000882301F15301F50181912F01882311F0E0
:104C00008E32B1F44501861897081814190474F40B
:104C10008D8A41E050E0BE016B5E7F4FC8010E946B
:104C20008E21A401B301C8010E948E213201DECF82
:104C30005201E1CF1D8A41E050E0BE016B5E7F4F23
:104C4000C8010E948E21A12CBB24B394A982BA82F0
:104C500042E050E0BE016F5F7F4FC8010E948E218D
:104C6000A982BA8242E050E0BE016F5F7F4FC80167
:104C70000E948E21C8010E949E24892B09F470CFC6
:104C8000F3E06F2E712CC70185968E8F9F8FF601F2
:104C90003296EC8FFD8F1601FEE02F0E311C21C0E5
:104CA0006E8D7F8DCE0101960E94A70FBE016F5FB2
:104CB0007F4FC7010E94CE15882329F0F70181ADEF
:104CC00092ADC59759F1EEEFAE2EBB24BA9481E0B8
:104CD000681A710809F446CFFFEFAF16BF0609F056
:104CE00041CF0E94E9024B015C01C8010E949C2255
:104CF00018161906ACF20E94E902681979098A09A6
:104D00009B09693873418105910508F008C162E388
:104D100070E080E090E00E94B902E7CF85AD96ADEB
:104D20000C970CF400C14CE050E0BE016F5F7F4F68
:104D3000C8010E9453228B819C819827892798273C
:104D4000898F9A8FF7014489558929813A814217C1
:104D5000530711F497FD08C0C8010E94490D7CEF6C
:104D6000A72EBB24BA94B3CF8F709270892B41F0D9
:104D7000C8010E94490D6BEFA62EBB24BA94A7CFA1
:104D80004F805884542445245424B12CA12C411420
:104D90005104D1F4C8010E94490D5AEFA52EBB243D
:104DA000BA9495CF8D89811117C0C8010E947222D3
:104DB000C8010E947222C8010E947222C8010E948A
:104DC0007222FFEFAF1ABF0A8D819E819827892733
:104DD0009827A816B906A8F441E050E0BE016B5E22
:104DE0007F4FC8010E9453228D898823D9F28D8973
:104DF0009FEF980F9D8B8823A9F2C8010E94722211
:104E0000F6CF912C812C41E050E0BE01655E7F4FD2
:104E1000C8010E9453228B8D982F907C61F48823C7
:104E200089F08B8D9FEF980F9B8F882341F0C801ED
:104E30000E947222F6CFC8010E9472221B8E8B8DB7
:104E40008111E1CF42E050E0BE01695E7F4FC801B1
:104E50000E94532242E050E0BE016B5E7F4FC801CA
:104E60000E945322C8010E947222C8010E9472222D
:104E7000C8010E947222C8010E94722242E050E0E2
:104E8000BE01675E7F4FC8010E9453228F89988DB3
:104E90008115914021F5AD88BE88BA24AB24BA248F
:104EA00081E0A816B104D9F4898D9A8D81159440BA
:104EB00041F0C8010E94490D47EFA42EBB24BA94CB
:104EC00006CFF60182899389B101892B11F06C8D8F
:104ED0007D8D44E050E0C8010E945322F8CEB12CF1
:104EE000A12C898D9A8D982789279827A816B9060D
:104EF00038F4C8010E947222FFEFAF1ABF0AF1CF47
:104F00002FEF821A920A4814590409F07CCFC80185
:104F10000E94490D36EFA32EBB24BA94D8CEAA2402
:104F2000AA94BA2CD4CE9DEFA92EBB24BA94CFCE8E
:104F30008EEFA82EBB24BA94D6CDB12CA12CD3CD04
:104F4000CF92DF92EF92FF920F931F93CF93DF9355
:104F5000CDB7DEB7C756D109CDBFDEBF8C017B010F
:104F60006A01CE0101960E949110198E1A8E88EE68
:104F700093E0A0E0B0E08B8F9C8FAD8FBE8F80E779
:104F800095EB8F8B988F88E08BA3CE0186960E943D
:104F90009110CE018C5A9F4F0E94911064ED79E2DE
:104FA000CE01805C9F4F0E94A70F80E1FE01EE5B67
:104FB000FF4FDE01139601900D928A95E1F76496FA
:104FC0008EAD9FAD64978B8B9C8B1D8A1E8AAE0124
:104FD0004C5A5F4FB701CE0101960E9410258130D7
:104FE0009105A1F4D801ED91FC91E488F588BE010A
:104FF0006C5A7F4FCE01805C9F4F0E94A70FA60185
:10500000BE01605C7F4FC801F7010995C959DF4FA8
:10501000CDBFDEBFDF91CF911F910F91FF90EF9039
:10502000DF90CF900895CF92DF92EF92FF920F938F
:105030001F93CF93DF93CDB7DEB7C756D109CDBF4E
:10504000DEBF8C017B016A01CE0101960E949110A6
:10505000198E1A8E88EE93E0A0E0B0E08B8F9C8FC3
:10506000AD8FBE8F80E795EB8F8B988F88E08BA3F9
:10507000CE0186960E949110CE018C5A9F4F0E94BD
:10508000911064ED79E2CE01805C9F4F0E94A70FE2
:1050900080E1FE01EE5BFF4FDE01139601900D9261
:1050A0008A95E1F764968EAD9FAD64978B8B9C8B50
:1050B0001D8A1E8AAE014C5A5F4FB701CE01019680
:1050C0000E94102581309105A1F4D801ED91FC9149
:1050D000E684F784BE016C5A7F4FCE01805C9F4FFF
:1050E0000E94A70FA601BE01605C7F4FC801F701B7
:1050F0000995C959DF4FCDBFDEBFDF91CF911F9119
:105100000F91FF90EF90DF90CF900895BF92CF92D4
:10511000DF92EF92FF920F931F93CF93DF93CDB760
:10512000DEB72697CDBFDEBFFC012485283071F0A5
:1051300080E02696CDBFDEBFDF91CF911F910F910A
:10514000FF90EF90DF90CF90BF9008956A018B01A0
:105150007C01B12C63E070E08B2D0E94531E811105
:105160004AC0F701B486F7018485883009F396E0D8
:10517000E6E6F5EBDE01119601900D929A95E1F7C6
:10518000F8012289338921153105E9F597859F7743
:105190009C83F80121153105C1F590899D83F801A3
:1051A00021153105A1F591899E83B801232B89F53D
:1051B000625F7F4F0E94661FB601F70184850E94DF
:1051C000C724F70164856295660F607E645F26E000
:1051D00030E0AE014F5F5F4F86E090E00E941D1F00
:1051E000F70117A210A620E8A60162E084850E94BC
:1051F0005E2381E09ECF883109F4B3CFB394F8E009
:10520000BF12A8CFB0CF9381C2CF9481C7CF958171
:10521000CBCF6E5F7F4FCECFCF92DF92FF920F93B7
:105220001F93CF93DF93DC011C962C91283051F013
:1052300090E080E0DF91CF911F910F91FF90DF9080
:10524000CF9008956A018B01EC01F12C63E070E0CE
:105250008F2D0E94531E81112EC0FC868C858830B4
:1052600039F320910028309101282F5F3F4F59F1E9
:105270002093002830930128409100285091012864
:1052800020E061E00E945E23F80182899389892BE6
:10529000E9F43E96D8011E968C918F3FE1F481810E
:1052A0008F3F21F582818F3F09F583818F3FF1F494
:1052B00088E08C87BDCF8B7F883179F2F394B8E09A
:1052C000FB12C4CFCBCF20E030ECD2CF3296D80146
:1052D00012968C91E2CF811109C08181811106C0A3
:1052E0008281811103C08381882311F3C114D10409
:1052F000F9F21C85BF01812F0E94661FB601812F24
:105300000E94C72464E070E0812F0E94C021CE017A
:105310000E94CD1E873161F061E070E080E090E096
:105320000E94B902CE010E94CD1E8111F0CFC0CFE4
:1053300081E090E07FCF1F93CF93DF93EC01162F96
:105340008C850E94FA1E482F112349F0406270E0BC
:1053500060E08C85DF91CF911F910C9445214F7DAA
:10536000F6CF1F920F920FB60F9211242F933F93F7
:105370004F935F936F937F938F939F93AF93BF935D
:1053800040914228509143286091442870914528CB
:10539000809140289091412820913E2830913F28CB
:1053A000420F531F611D711D20913C2830913D28F3
:1053B000820F931F883E23E0920730F0885E93406F
:1053C0004F5F5F4F6F4F7F4F8093402890934128EE
:1053D0004093422850934328609344287093452873
:1053E00080914A2890914B28A0914C28B0914D284B
:1053F0000196A11DB11D80934A2890934B28A0933C
:105400004C28B0934D2881E08093B60ABF91AF91AC
:105410009F918F917F916F915F914F913F912F91CC
:105420000F900FBE0F901F9018951F920F920FB6FE
:105430000F9211242F933F934F935F936F937F931A
:105440008F939F93AF93BF93EF93FF9382E199E282
:105450000E945705FF91EF91BF91AF919F918F915E
:105460007F916F915F914F913F912F910F900FBE60
:105470000F901F9018951F920F920FB60F92112444
:105480002F933F934F935F936F937F938F939F934C
:10549000AF93BF93EF93FF9382E199E20E942903B8
:1054A000FF91EF91BF91AF919F918F917F916F91FC
:1054B0005F914F913F912F910F900FBE0F901F90D2
:1054C00018951F920F920FB60F9211242F933F93AE
:1054D0004F935F936F937F938F939F93AF93BF93FC
:1054E000EF93FF9387E798E20E945705FF91EF91B2
:1054F000BF91AF919F918F917F916F915F914F91EC
:105500003F912F910F900FBE0F901F9018951F92F3
:105510000F920FB60F9211242F933F934F935F93E7
:105520006F937F938F939F93AF93BF93EF93FF936B
:1055300087E798E20E942903FF91EF91BF91AF9115
:105540009F918F917F916F915F914F913F912F919B
:105550000F900FBE0F901F90189580EA9AE20E945C
:1055600003118FEB9AE20E9414118EED9AE20C94D3
:10557000AD106F927F929F92AF92BF92CF92DF92C7
:10558000EF92FF920F931F93CF93DF93E3E6F8E23E
:1055900082E2682E87EB782E6082718201E010E053
:1055A000028B138BE5E6F8E280E1DF011D928A951C
:1055B000E9F7EFE4F8E260827182128A138A9CE0D4
:1055C000A92EA1E5B8E2ED018A2D19928A95E9F795
:1055D00016861786108A118AE2E1F9E21282138296
:1055E00028EEC22E23E0D22EE12CF12CC482D582EB
:1055F000E682F78220E736EB2083318380E298E071
:10560000848795871686BB24B394B78684E0808B05
:10561000128A138A148A158A8BE1868B178A108E58
:105620001092AB291092AC29A7E7B8E212961D920E
:105630001C9213971496CD92DD92ED92FC921797DF
:105640002D933C93119720E638E01C962D933C93C4
:105650001D979AE11E969C931E971F968C931F97F9
:1056600080E450968C93509752961C925297539682
:105670001C92539754961C92549755961C9255978A
:1056800086E256968C93569757961C925797589643
:105690001C921092102910921129CEEDDAE21A8292
:1056A0001B8282EE9AE228E1DC011D922A95E9F73D
:1056B00024E936EB28833983ADEAB9E2AC8FBD8F9C
:1056C000CFEBDAE21A821B82CC82DD82EE82FF828D
:1056D000188619861A861B8A1C8A1D8A1E8A1F8AAA
:1056E000188E198E1A8E1B8E1C8E2EE936EB28838F
:1056F0003983AD8FBE8F12961D921C92139714960C
:10570000CD92DD92ED92FC92179786EA96EB8D93FF
:105710009C9311971C96ED93FC931D971E960D93E9
:105720001C931F9782E090E050968D939C93519725
:105730008FEF9FEF52968D939C93539754961D92A3
:105740001C92559756961D921C92579758961C92EC
:10575000ECECF9E280E092E1AAE7B0E0808391838B
:10576000A283B383148215820683178384ED99E2A2
:105770000E949110E4EDF9E2148A158A8AE087AB61
:1057800038E0932E96AAEFE4FAE280E099E0ADE3E8
:10579000B0E080839183A283B38314821582068351
:1057A0001783EDE0FAE284EC96EB80839183178215
:1057B000B68281E2828382E2848380E2838386E10F
:1057C0008583ECE8FAE280E88283138214821582F2
:1057D000168280E090E0A0E8BFE387839087A187EE
:1057E000B28713861486158616861786108A118A44
:1057F000128A138A0E945D02E8E7FAE260827182EF
:10580000128A138AAAE7BAE2ED018A2D19928A95C3
:10581000E9F716861786108A118AE4E6FAE26082B2
:105820007182128A138AA6E6BAE2ED011992AA944D
:10583000E9F780EC868788EA878788E3808BB18ADE
:10584000A7E5BAE212961D921C9213971496CD9278
:10585000DD92ED92FC92179782EF96EB8D939C93DD
:1058600011971C969C921C97E0EAFAE2128213822E
:1058700040E355E760E070E04483558366837783B7
:10588000108611861286138A148A158A168A178A38
:10589000108E118E128E138E148E8AEE96EB8083EC
:1058A0009183A58FB68FDF91CF911F910F91FF90BC
:1058B000EF90DF90CF90BF90AF909F907F906F90D0
:1058C0000895CF93DF93CDB7DEB76597CDBFDEBF29
:1058D00088ED90E084BF9093610080E094E2A4EFB3
:1058E000B0E08093022890930328A0930428B093FB
:1058F000052880910206866080930206809100064A
:10590000816080930006809102068F7C809302065E
:105910008091A0008F788093A00080910206806122
:10592000809302061092E20581E08093E40583E013
:105930008093010A8FEF90E08093260A9093270AC4
:1059400080E890E08093380A9093390A80933A0A6D
:1059500090933B0A80933C0A90933D0A8BE080939E
:10596000000A8091E50581608093E5058091E50559
:1059700082608093E505E0E8FAE027E09FEF10E819
:1059800085E021839487158780837096E03C3AE018
:10599000F307B9F780E094E0809348289093492872
:1059A00080914828909149282FEF30E0B9010E945A
:1059B0007E366093462870934728809148289091BE
:1059C0004928E8EEF3E0BF010E947E3660933E284E
:1059D00070933F288091482890914928BF010E94E8
:1059E0007E3680933C2890933D282093BC0A3093C8
:1059F000BD0A8091B50A81608093B50A84E08093E6
:105A0000B00A8091B00A81608093B00A789461E016
:105A100070E08CE10E94900161E070E08CE10E94F6
:105A2000F00161E070E08DE10E94900161E070E0C2
:105A30008DE10E94F00161E070E083E20E9490013C
:105A400061E070E083E20E94F00161E070E08EE1CD
:105A50000E94900161E070E08EE10E94F00140E858
:105A600055E260E070E087E798E20E9405108EE062
:105A700080938C2A8FE080938D2A70E060E08EE026
:105A80000E94900161E070E080918D2A0E94850261
:105A900070E060E080918D2A0E9458020E945D02B1
:105AA00010938E2A0E943B1082E69AEB0E94D71335
:105AB00064E67AE2CE0101960E94A70FCE0101961C
:105AC0000E94A91F68EE73E080E090E00E94B90296
:105AD00084E79AEB0E94D71305E81AEB60E08EE2A8
:105AE00090E00E941E1E80FF04C08AEB0238180757
:105AF00059F48AE89AEB0E94D71368EE73E080E0CD
:105B000090E00E94B902EACF8BEA9AEB0E94D71389
:105B10008E010D5F1F4F7E019FE0E90EF11CCE014B
:105B200001960E9491108B899C89A701892B09F00D
:105B3000A80124E030E060E08FE090E00E949D1D2D
:105B400068E77AE2CE0101960E94CE15882359F0CB
:105B50008CEB9AEB0E94D71368EE73E080E090E044
:105B60000E94B902DCCFCE0101960E9491108B8970
:105B70009C89AE01892BE9F5415F5F4F24E030E05D
:105B800060E08FE090E00E949D1D67E778E2CE0123
:105B900001960E94B61264E277EB87E798E20E94D2
:105BA0002F128091BD2A9091BE2ADC01ED91FC91CB
:105BB0000688F789E02D0995811129C08AED9AEBB5
:105BC0000E94D71364E67AE2CE0101960E94A70FE5
:105BD000CE0101960E947F11892B71F485E09BEB29
:105BE0000E94D71360ED77E080E090E00E94B90258
:105BF00007C04D5F5F4FC2CF8CE29BEB0E94D71373
:105C0000E0E0F0E0EF2B69F20E940000CACF809143
:105C10003B28823009F47EC284F4882309F1813064
:105C200009F4EDC087ED9DEB0E94D71368E873E19E
:105C300080E090E00E94B90266C0833009F41AC384
:105C4000843081F78FEB9DEB0E94D71368EE73E0F1
:105C500080E090E00E94B90290E080E00E94A63AC5
:105C600089E49BEB0E94D71370E060E083EE90E044
:105C70000E94120A60E070E0CB010E94EA1367EC18
:105C800070E08091A82A9091A92A0E94B30A6F3FE0
:105C90007F4F8F4F9F4F61F067EC70E08091A82A93
:105CA0009091A92A0E94B30A6093392870933A28E8
:105CB0008091392880FD2CC082E090E00E9407147A
:105CC00082EC9BEB0E94D7130E94870F0E94B103C6
:105CD0009B012D7F2130310539F06A30710521F0AB
