:020000040000FA
:100000001124669A26E030E408C000000197E9F761
:100010008DB183278DB9215019F081E091E7F6CF9A
:1000200080911F138B3E69F48FEF80931F138DE92E
:1000300093E084BF909300108091021081FDFCCF6B
:1000400006C082E080930110E0E0F1E0099580ECC9
:1000500080930608A09123110A2E000CBB0BBC5FF5
:100060002CE530E00E9476007E5F8F4F9F4F2AE0A4
:1000700095958795779567952A95D1F760930808A8
:10008000709309088091E20581608093E205049AEB
:10009000E0E0F2E42DE933E040E41EC08091040882
:1000A00087FFFCCF80910008E11552E4F50711F4B9
:1000B000882391F0809302088193CF018F7799274D
:1000C000892B51F424BF309300108091021080FDE1
:1000D000FCCF8DB184278DB9CF0190548115904C00
:1000E000E8F288ED91E084BF909341000E947D008A
:1000F000B7FF0895821B930B0895A29FB001B39F91
:10010000C001A39F700D811D1124911DB29F700D20
:08011000811D1124911D0895C9
:100200000C94CF010C94F7010C94F7010C94F701B6
:100210000C94F7010C94F7010C94F7010C94F7017E
:100220000C94F7010C94F7010C94F7010C94F7016E
:100230000C94F7010C94F7010C94F7010C94F7015E
:100240000C94F7010C94F7010C94F7010C94F7014E
:100250000C94F7010C94F7010C94F7010C94F7013E
:100260000C94F7010C94F7010C94612D0C943B2D28
:100270000C94F7010C94F7010C94F7010C94F7011E
:100280000C94F7010C94F7010C94F7010C94F7010E
:100290000C94D72C0C94AD2D0C94872D0C94F70155
:1002A00000407A10F35A00A0724E18090010A5D42D
:1002B000E80000E87648170000E40B54020000CA8A
:1002C0009A3B000000E1F5050000809698000000D0
:1002D00040420F000000A08601000000102700002F
:1002E0000000E803000000006400000000000A00B5
:1002F000000000000100000000002C76D888DC67B8
:100300004F0823DFC1DFAE59E1B1B796E5E3E4530F
:10031000C63AE651997696E8E6C28426EB898C9B2C
:1003200062ED407C6FFCEFBC9C9F40F2BAA56FA5CC
:10033000F490055A2AF75C936B6CF9676DC11BFC4E
:10034000E0E40D47FEF520E6B500D0ED902E030069
:10035000943577050080841E080000204E0A0000B6
:1003600000C80C333333330F986E12831141EF8D75
:100370002114893BE65516CFFEE6DB18D1844B38B5
:100380001BF77C1D901DA4BBE424203284725E22E6
:100390008100C9F124ECA1E53D27DF2DD32D1124E7
:1003A0001FBECFEFCDBFDFE3DEBF18E2A0E0B8E2B3
:1003B000E8EAFAE802C005900D92A431B107D9F736
:1003C0002BE2A4E1B8E201C01D92A531B207E1F72A
:1003D00011E0CEECD1E004C02197FE010E94F63C72
:1003E000CD3CD107C9F70E94872F0C94A9410C94EA
:1003F000000100006093C4088091C30887FFFCCF10
:100400008091C408089500008093C4088091C308B7
:1004100087FFFCCF8091C4080895CF93DF9390E0CD
:10042000FC01E75BFB4320812F3F71F0FC01E05EA4
:10043000FB43A08130E2A39FD0011124BC5F613057
:10044000710529F411962C93DF91CF91089589506D
:100450009C43EC01E881EF3F89F0CD014096E80F25
:10046000F92FF11D9FB7F89412962C93808162307A
:10047000710539F4886080839FBFE6CFF0E0E0E04B
:10048000F1CF877FF8CF282F30E0F901E253FC430A
:10049000E081EE2309F1E13021F0F0F0E63098F050
:1004A00008954091010A29503C43F90120812C5FB5
:1004B00081E090E001C0880F2A95EAF780958423B7
:1004C0008093010A089580E1E89FF0011124E05A29
:1004D000F54F81818F7E81830895FF920F931F9343
:1004E000CF93DF93082F10E0F801E75BFB43F08028
:1004F0009FEFF916A1F0EB01893210F40E9443023C
:10050000F801E05EFB43E08180E2E89FF001112406
:10051000FC5F80818F2159F0CD2B39F4F682DF9179
:10052000CF911F910F91FF900895F582F8CFD801D8
:10053000A950BC438C91309771F08F3F61F0709659
:10054000E80FF11D9FB7F8948081CD2B39F4877F98
:1005500080839FBFE4CFF0E0E0E0F4CF8860F8CF85
:100560000F931F93CF93082F10E0F801E75BFB4335
:10057000C081CF3FB9F0893210F40E944302F801E4
:10058000E05EFB43E08180E2E89FF0011124FC5F24
:100590008085C82381E090E009F480E0CF911F912D
:1005A0000F91089580E090E0F9CF893210F40C9417
:1005B0006D020895CF93DF93C9E9DAE261E070E05C
:1005C00089810E94D5028BEF90E00197F1F770E0EE
:1005D00060E089810E94D5021B821C821D821E82DE
:1005E00080E090E0A0E8BFE38F839887A987BA876F
:1005F00080E88A831B861C861D861E861B8ADF91E7
:10060000CF910895893210F40C940D020895CF9380
:10061000DF938FB7F8942091572830915828409154
:10062000592850915A28E091BA0A9091B60A90FF41
:1006300006C02F5F3F4F4F4F5F4FE091BA0A8FBF09
:10064000A0915528B0915628C0915328D091542894
:100650000E944E3BEC9F9001ED9F300D1124620FE4
:10066000731F811D911DDF91CF9108958F929F92ED
:10067000AF92BF92CF92DF92EF92FF924B015C015B
:100680000E9407036B017C01A8EEB3E0A501940171
:100690000E944E3BC60ED71EE81EF91EC616D70690
:1006A000E806F90618F40E940703F8CF0E94070332
:1006B0006C157D058E059F05C8F3FF90EF90DF90C8
:1006C000CF90BF90AF909F908F9008952FB7F894E0
:1006D00060914F2870915028809151289091522814
:1006E0002FBF0895DC01ED91FC910190F081E02D88
:1006F0000994AF92BF92CF92DF92EF92FF920F9345
:100700001F93CF93DF936C017B018B01040F151FA7
:10071000EB015E01AE18BF08C017D10759F069910F
:10072000D601ED91FC910190F081E02DC601099573
:10073000892B79F7C501DF91CF911F910F91FF9020
:10074000EF90DF90CF90BF90AF900895FC01A4850B
:10075000B58511968C91119781FD1BC06C91828992
:100760008F5F8F739389981739F0A289AE0FBF2FCF
:10077000B11D59966C93828BE756FF4F8081918112
:10078000009741F0DC01ED91FC910190F081E02DAA
:1007900009948C910895FC0154894589252F30E0F6
:1007A000842F90E0821B930B541710F0CF9608957E
:1007B00001970895FC0192898389981761F0A389B4
:1007C000AE0FBF2FB11D59968C9193899F5F9F7378
:1007D000938B90E008958FEF9FEF08950F931F93F1
:1007E0000E94660360938C2870938D2880938E28D6
:1007F00090938F2884E898E20E94DA0397FF1DC047
:100800000E94660300918C2810918D2820918E28DB
:1008100030918F28601B710B820B930B00918828FD
:100820001091892820918A2830918B2860177107B0
:1008300082079307F8F28FEF9FEF1F910F910895B2
:10084000FC0192898389981731F08389E80FF11DA3
:10085000818D90E008958FEF9FEF08950F931F9380
:100860000E94660360938C2870938D2880938E2855
:1008700090938F2884E898E20E94200497FF1DC07F
:100880000E94660300918C2810918D2820918E285B
:1008900030918F28601B710B820B930B009188287D
:1008A0001091892820918A2830918B286017710730
:1008B00082079307F8F28FEF9FEF1F910F91089532
:1008C000CF93C82F0E942E0497FD17C08D3291053B
:1008D000A1F09C01205331092A30310570F0CC235E
:1008E00019F08E32910549F08D30910551F03CF4AC
:1008F0000997029730F08FEF9FEFCF91089580977F
:10090000D1F784E898E20E94DA03DCCF6F927F92FD
:100910008F929F92AF92BF92CF92DF92EF92FF920F
:100920000F931F93CF93DF9381E00E946004EC014B
:10093000C12CD12C760197FD4FC0812C912C80E8E1
:10094000A82E8FE3B82EC12CD12C7601712C612CEE
:10095000C13069F1CD32D10509F46CC0CE32D10578
:1009600009F46BC08E01005311090A301105F8F427
:10097000772009F442C02DEC3CEC4CEC5DE3C50162
:10098000B4010E94713A4B015C01B801110F880B50
:10099000990B0E94123AA50194010E94713A9B01A1
:1009A000AC01C701B6010E94C43B6B017C0184E825
:1009B00098E20E94DA030E942E04EC01C0970A9785
:1009C00038F2CE32D105E1F5772021F2662021F010
:1009D000F7FAF094F7F8F094C701B601DF91CF91E0
:1009E0001F910F91FF90EF90DF90CF90BF90AF904D
:1009F0009F908F907F906F90089520E030E040E2CC
:100A000051E4C701B6010E94713A6B017C01BE013D
:100A1000DD0F880B990B0E94123A9B01AC01C701B4
:100A2000B6010E94C43B20E030E040E452E40E9462
:100A3000C33BBBCF66246394BACF77247394B7CFFC
:100A4000C13009F485CFC2CFCF92DF92EF92FF92EF
:100A5000CF9380E00E946004FC01C12CD12C760170
:100A600097FD33C0C0E0E130D1F0ED32F105A9F1DE
:100A7000CF01C0970A9798F4AAE0B0E0A7019601C9
:100A80000E944E3B6F01FF0FEE08FF08C60ED71EF7
:100A9000E81EF91E80E3C81AD108E108F10884E8CD
:100AA00098E20E94DA030E942E04FC01C0970A9784
:100AB000D0F2E130C1F2CC2341F0F094E094D09434
:100AC000C094C11CD11CE11CF11CC701B601CF911F
:100AD000FF90EF90DF90CF900895C1E0E0CFFC0150
:100AE00092892389892F90E0805C9F4F821B910916
:100AF0008F7399270895CF93DF93EC01E881F981F3
:100B00000680F781E02D0995EC85FD8586818F7340
:100B10008683EC85FD8585818F7585838B898A8B9E
:100B2000198ADF91CF910895CF92DF92EF92FF92D1
:100B30000F931F93CF93DF93EC016A017B01022F88
:100B40008989882339F0E881F9810288F389E02DC9
:100B5000CE01099598898091E205892B8093E20561
:100B60001FB7F89460E070E281EA97E0A701960170
:100B70000E94923B69017A018FEFC81AD80AE80AED
:100B8000F80AF694E794D794C794EC85FD8586819E
:100B90008D7F8683EC85FD8586818683198AA09169
:100BA00023110A2E000CBB0BA70196010E94593B92
:100BB00020E034E040E050E00E942F3BEC85FD85D2
:100BC000C20ED31EE41EF51EC086D186EC85FD85BF
:100BD0000783EC85FD858681806C8683EC85FD85A9
:100BE0008581806885838E8562E070E00E940203C3
:100BF0008F8561E070E00E94D5028F8561E070E032
:100C00000E9402031FBFDF91CF911F910F91FF90B0
:100C1000EF90DF90CF900895CF93DF93FC019489FC
:100C20008589C485D585981306C08D818F7D8D8378
:100C3000DF91CF910895A589AE0FBF2FB11DA75A9F
:100C4000BF4F2C91858990E001968F739927858BF2
:100C500080E48C83A485B58512962C93948985892C
:100C60009813E6CFA485B58515968C9115978F7D41
:100C700015968C9387898823D9F2808D80931301F0
:100C8000178AD6CFDC011C96ED91FC910FB607FEBA
:100C900003C0258125FD04C0248125FD0C940C068C
:100CA0000895EF92FF920F931F93CF93DF93EC0180
:100CB00081E0898B9C898D8998131CC0AC85BD858A
:100CC00014968C91149785FF15C012966C93AC8581
:100CD000BD8580E414968C93EC85FD8585818F7DA0
:100CE000858381E090E0DF91CF911F910F91FF907C
:100CF000EF9008958091110180FF08C08091130149
:100D0000888F8E898093130181E08F8BF62E0C895A
:100D100010E00F5F1F4F0F731127E02E8D898E118A
:100D200004C0CE010E944206F9CFEC89EC0FFD2FE2
:100D3000F11DE75AFF4FF0820C8BEC85FD85858114
:100D40008062CECFCF93DF93FC0121892223C9F0AB
:100D5000EC018091110180FF08C080911301808F08
:100D600086898093130181E0878BEC85FD858581E1
:100D700085FD03C0848186FD04C0CE010E94420629
:100D8000F4CFDF91CF91089581E00895009741F06D
:100D9000DC015896ED91FC9104A0F5A1E02D099499
:100DA0000895009741F0DC015896ED91FC91068C76
:100DB000F78DE02D09940895009741F0DC015896D5
:100DC000ED91FC91048CF58DE02D099486E190E085
:100DD0008093092B90930A2B8FEF9FEF0895009734
:100DE00041F0DC015896ED91FC910084F185E02DF5
:100DF000099486E190E08093092B90930A2B8FEF62
:100E00009FEF0895009741F0DC015896ED91FC9119
:100E100000A0F1A1E02D099486E190E08093092BD8
:100E200090930A2B8FEF9FEF0895CF93DF93EC0100
:100E3000288539854A855B85A8EEB3E00E944E3B44
:100E40000E9436038C859D858230910538F0880F8D
:100E5000991F880F991F05970197F1F7DF91CF919F
:100E600008955F926F927F928F929F92AF92BF92FE
:100E7000CF92DF92EF92FF920F931F93CF93DF9366
:100E80008C017B014A013901DC015896ED91FC91FE
:100E9000C280D3805A01AC0CBD1CD5015C90028C81
:100EA000F38DE02D3097F9F00995EC010196D9F416
:100EB000F801868182FF06C0C8010E941507C8019B
:100EC0000E940207CE01DF91CF911F910F91FF90F9
:100ED000EF90DF90CF90BF90AF909F908F907F90DA
:100EE0006F905F900895F801A08DB18D12968D914D
:100EF0009C911397E701C80FD91FE881E150E731B2
:100F000008F06DC0F0E0E957F84F0C94F63CCD07BF
:100F1000CD07E607E607EF07EF07F207EF07EF0752
:100F2000EF07EF07EF07EF07EF07EF07EF07F5070B
:100F3000EF07EF07EF07EF079E07E60747E050E0F0
:100F4000480F591F14968D919C911597480F591F62
:100F500057FE51C014968D919C918C0D9D1D02964B
:100F60008615970509F044C0EC0CFD1CD7012C91A7
:100F7000F50180818058990B28171906C9F58181E0
:100F800090E08C309105A4F58E51944D8093092BFF
:100F900090930A2BCFEFDFEF95CF3B812C81B901E6
:100FA00037FF02C0695F7F4FF3E075956795FA954B
:100FB000E1F76E5F7F4F2770332741E050E0232B2E
:100FC00011F450E040E0460F571FBACF4B816C81BF
:100FD000542F462F4F5F5F4F440F551FB1CF45E051
:100FE00050E0AECF43E050E0ABCF4FEF5FEFB0CF7C
:100FF00080EF9BE2CBCF6416750621F04F3F5F4F29
:1010000009F091C0D701AC0DBD1D8C91581671F03F
:10101000D80116968C9182FF06C0C8010E94150760
:10102000C8010E9402078FEE9BE2B0CFEFEFE50D03
:10103000E73108F073C0F0E0E05EF74F0C94F63C47
:10104000370837085D085D088E088E088E088E0800
:101050008E088E088E088E088E088E086C086C0824
:101060008A088E088E088E088E088E085D081396F2
:101070002C911397822F90E0982F882714962C910B
:10108000280F392F311DC90137FD079663E095956B
:1010900087956A95E1F72770332741E050E0232BCD
:1010A00011F450E040E0840F951FF501C181D0E0BC
:1010B0008C179D0709F406CFABCF13968C9113972D
:1010C00090E0982F882714962C91820F911DD501BE
:1010D0001196CC91C695EBCF96012D5F3F4FB4E0B2
:1010E000CB0ED11CF701E20FF31F808190E0982F07
:1010F0008827F701EC0DFD1D4081840F911D280DFF
:10110000391DF901C0818C0C9D1CD4012C91DC2F60
:10111000C22FCECFF501C181D0E0D4CEC1E0D0E066
:1011200081E090E0C5CFF801868175CF2F923F9284
:101130004F925F926F927F928F929F92AF92BF92E7
:10114000CF92DF92EF92FF920F931F93CF93DF9393
:10115000CDB7DEB72A97CDBFDEBF7C013B012A01A8
:10116000DC015896ED91FC915997028113810F5F34
:101170001F4F312C212C452BB1F018968D919D914C
:101180000D90BC91A02D89839A83AB83BC83F7011A
:1011900084859585A685B7858D839E83AF83B88723
:1011A000CE0101961C01D12CC12C912C812CD70190
:1011B0005896ED91FC910115110549F4008CF18DC3
:1011C000E02DA401B301C70109955C0129C002A06B
:1011D000F3A1E02D9801A101BE01675F7F4FC70118
:1011E00009955C01D7019FEFA916B906D9F51696A6
:1011F0008C9181FD04C0AA24AA94BA2C11C000913C
:10120000092B10910A2B0437110509F5C7010E941B
:101210001507C7010E9402070093092B10930A2BA0
:10122000C5012A96CDBFDEBFDF91CF911F910F91EF
:10123000FF90EF90DF90CF90BF90AF909F908F90F6
:101240007F906F905F904F903F902F900895023F56
:10125000BDE21B0709F7C7010E94D106C7010E9422
:10126000DC06DACF5896ED91FC910688F789E02DDF
:10127000A801B301680D791DC701099561157105B4
:1012800009F582EF9DE28093092B90930A2BF701D9
:10129000868181FFB0CF0091092B10910A2B023F6C
:1012A000FDE21F0721F00F36110509F0A4CFC70199
:1012B0000E94D106C7010E94DC060093092B1093FF
:1012C0000A2B99CF6F3F760711F3860E971E061BE8
:1012D000170B09F099C0D7015896ED91FC91C114F4
:1012E000D10441F0CA94CD2809F457C082E0C82E39
:1012F000D12C5DCFA281B381A60DB71D8C91411475
:101300005104B9F490E087309105D4F09C012F503E
:1013100031092230310508F47CC08631910509F489
:101320007EC04797D1F5CC24C394D12C09E010E0BE
:1013300015C0813158F48F3018F48550823048F44C
:10134000CC24C394D12C04E010E008C0863109F409
:1013500066C0CC24C394D12C01E010E0F701408991
:1013600051896289738984899589A689B7894115CC
:1013700051056105710529F40097A105B10509F42E
:1013800016CF49835A836B837C838D839E83AF837F
:10139000B887CE0101961C010ACFA281B381A60DA8
:1013A000B71D8C914114510401F58F3020F081312B
:1013B000A8F08731B9F084819581080F191F940135
:1013C000200F311F8681978182179307D4F48FEE07
:1013D0009BE28093092B90930A2B0DCF15960C91CD
:1013E00010E0E9CF19960C91FBCF90E08530910584
:1013F0002CF08131910511F04797E9F611960C9187
:10140000EFCF52E0C52ED12C101611060CF4A6CF4A
:10141000CECECC24C394D12C05E010E09FCFCC24B9
:10142000C394D12C06E010E099CFAF92BF92CF9237
:10143000DF92EF92FF920F931F93CF93DF93EC0114
:101440007B01E88DF98D0088F189E02DBA01C70193
:1014500009958C01E88DF98D0288F389E02DA801AA
:10146000B701CE0109956B018FEFC816D806C9F4F4
:101470008E8181FF16C0A090092BB0900A2B82EFBD
:10148000A8168DE2B80679F5CE010E94D106CE01EC
:101490000E941507CE010E94DC06A092092BB09293
:1014A0000A2B8E8181FF04C08FEFC816D80691F2F7
:1014B0001C141D0464F40C151D0549F08FEE9BE20D
:1014C0008093092B90930A2BCC24CA94DC2CC60160
:1014D000DF91CF911F910F91FF90EF90DF90CF9010
:1014E000BF90AF900895CE010E941507CE010E94D3
:1014F0000207D3CFEF92FF920F931F93CF93DF9307
:10150000CDB7DEB7C051D140CDBFDEBF009799F453
:1015100086E190E08093092B90930A2B8FEF9FEF49
:10152000C05FDE4FCDBFDEBFDF91CF911F910F9126
:10153000FF90EF9008959A01AB017C01DC01589671
:10154000ED91FC910284F385E02D8E010B5F1E4F1F
:1015500066E070E00995AC01B801C7010E94150A68
:1015600018161906ECF641E050E0BE016F5F7F4FA0
:10157000C7010E9496088F3F980791F29C01AE0127
:101580004F5F5F4FB801C7010E943107C9CF0F936A
:101590001F93CF93DF93EC018B016091B52A70917B
:1015A000B62A8091AF2A9091B02A0E94EF068091CE
:1015B000AF2A9091B02A009769F486E190E0809379
:1015C000092B90930A2B90E080E0DF91CF911F913F
:1015D0000F910895A801BE010E947A0A9095991F63
:1015E0009927991F892F90E0F0CFCF92DF92EF9249
:1015F000FF920F931F93CF93DF93CDB7DEB7C05108
:10160000D140CDBFDEBF7C016A01DC015896ED916F
:10161000FC910284F385E02D8E010B5F1E4F21E0CB
:1016200030E0AB0163E070E00995AC01B801C7019F
:101630000E94150A181619066CF441E050E0BE012C
:101640006F5F7F4FC7010E9496088F3F980779F41C
:101650008FEF9FEFC05FDE4FCDBFDEBFDF91CF9139
:101660001F910F91FF90EF90DF90CF9008959C0114
:10167000AE014F5F5F4FBE016B5F7E4FC7010E949F
:1016800031078F3F980721F3D7015896ED91FC91D0
:1016900022813381F60150E040E061E070E06C0FA0
:1016A0007D1F260F371F48175907A4F6DA01AA0F26
:1016B000BB1FA20FB31F12966C91129713967C91C9
:1016C000672776276727619371934F5F5F4FEBCF53
:1016D0000F931F93CF93DF9300D0CDB7DEB78B016D
:1016E000BC018091AF2A9091B02A0E94EF068091B0
:1016F000AF2A9091B02A009751F486E190E0809350
:10170000092B90930A2B6FEF7FEFCB010CC0AE013A
:101710004F5F5F4FB8010E94F50A97FDF4CF6981D2
:101720007A8190E080E00F900F90DF91CF911F9130
:101730000F9108956F927F928F929F92AF92BF9276
:10174000CF92DF92EF92FF920F931F93CF93DF938D
:10175000FA018901DC015A966D907C90C12CD12C44
:1017600076013097C1F02081318142815381A8EE0A
:10177000B3E00E944E3B6B017C01648175818681E0
:10178000978128EE33E040E050E00E94923BC20E89
:10179000D31EE41EF51E0E9466034B015C01F3019B
:1017A000808D918DDC01ED91FC910084F185E02D1F
:1017B0000995EC0180179107BCF40E946603681933
:1017C00079098A099B096C157D058E059F0560F4D2
:1017D000F301808D918DDC01ED91FC910688F789F4
:1017E000E02D09958111DBCF209741F484E790E04B
:1017F0008093092B90930A2BCFEFDFEFCE01DF917F
:10180000CF911F910F91FF90EF90DF90CF90BF90FD
:10181000AF909F908F907F906F900895CF93DF93BC
:10182000DC015A96CD91DC91888D998DDC01ED918A
:10183000FC910084F185E02D0995892B51F0888D6C
:10184000998DDC01ED91FC910284F385E02D0995E1
:10185000EBCF90E080E0DF91CF910895DC015A96C4
:10186000ED91FC91309759F0808D918D009739F072
:10187000DC01ED91FC910488F589E02D099408952F
:10188000FA01DB019C918081981305C011969C910F
:101890008181981749F08FEE9BE28093092B9093FA
:1018A0000A2B8FEF9FEF08958281882319F083819F
:1018B0008111F1CF90E080E00895CA010895DC0124
:1018C0005A96ED91FC91808D918DDC01ED91FC910A
:1018D0000288F389E02D0995BC01990F880B990BBB
:1018E000089550E040E00C949608DC015A96ED9182
:1018F000FC91808D918DDC01ED91FC910280F38152
:10190000E02D0995BC0190E080E008959B012650F0
:101910003109FC0134832583CB010895FC0120812A
:1019200030E0322F22278181820F932F911D08955D
:10193000DC01FB0115968C911597808314968C9190
:1019400014978183128213828C91868312968C91D4
:10195000878388E090E008950F931F93CF93DF93E0
:10196000F801EC01AA8DBB8DCD91DC911197CF3F91
:10197000DC07D9F02196CD93DC93119711967C91D9
:10198000119770837C91718312821382DC018C9198
:101990008683678350874187328723878CE090E076
:1019A000DF91CF911F910F9108951D921C92119775
:1019B000E5CF683F710530F4FC016083718390E0EE
:1019C00080E008956F3F7105B9F386E190E0809360
:1019D000092B90930A2B8FEF9FEF089581E00895D4
:1019E000FC01808D882349F084859585DC01ED918B
:1019F000FC910190F081E02D099481E090E08283D8
:101A0000938390E080E00895DC011C968D919C9179
:101A1000DC01ED91FC910680F781E02D0994DC0159
:101A20001C968D919C91DC01ED91FC910284F385D3
:101A3000E02D0994DC011C968D919C91DC01ED91C7
:101A4000FC910484F585E02D0994DC011C968D91B0
:101A50009C91DC01ED91FC910084F185E02D0994CD
:101A6000CF93DF93EC018C859D85DC01ED91FC919A
:101A70000288F389E02D09958889998997FD09C025
:101A800070E060E00E94D50270E060E088890E940A
:101A900002038A899B8997FD0BC070E060E00E9479
:101AA000D50270E060E08A89DF91CF910C94020347
:101AB000DF91CF9108958F929F92AF92BF92CF9274
:101AC000DF92EF92FF920F931F93CF93DF93EC017E
:101AD0004A015B016901898E9A8EAB8EBC8E2D8F77
:101AE0003E8F8C899D89009709F08C010C8B1D8B92
:101AF0008E899F89009709F07C01EE8AFF8A888988
:101B0000998997FD09C061E070E00E94020370E0CE
:101B100060E088890E94D5028A899B8997FD09C067
:101B200061E070E00E94020361E070E08A890E9437
:101B3000D502188E8C859D85DC01ED91FC91008885
:101B4000F189E02D9601B501A401DF91CF911F919C
:101B50000F91FF90EF90DF90CF90BF90AF909F904C
:101B60008F900994EF92FF920F931F93DC01ED91F8
:101B7000FC910488F589E02DA2E3EA2EF12C02E322
:101B800010E009951F910F91FF90EF900895EF924B
:101B9000FF920F931F93DC01ED91FC910488F5896E
:101BA000E02D7801890123E030E009951F910F9124
:101BB000FF90EF900895EF92FF920F931F93DC0137
:101BC000ED91FC910488F589E02D22E3E22EF12CC1
:101BD00002E310E023E030E009951F910F91FF90A0
:101BE000EF90089561E070E080915B280C94D5023D
:101BF00070E060E080915B280C94D502CF93DF9376
:101C0000EC018FA198A5892B41F0E881F98102842C
:101C1000F385E02DCE010995F4CFDF91CF910895A2
:101C2000CF93DF931F92CDB7DEB76983DC01ED91CF
:101C3000FC910280F381E02D41E050E0BE016F5F36
:101C40007F4F09950F90DF91CF910895FC0187A1F7
:101C500090A50895FC0183A194A10895DC01ED9164
:101C6000FC91048CF58DE02D0994FC019485FB0119
:101C70008485981303C081E0983009F480E00895CA
:101C800021E0FC018485883009F420E0822F08954A
:101C90000895CF93DF931F92CDB7DEB76983DC0140
:101CA000ED91FC910280F381E02D41E050E0BE0116
:101CB0006F5F7F4F09950F90DF91CF910895DC0101
:101CC000ED91FC91068CF78DE02D099591E0892727
:101CD0000895862F089581E08627089590E080E09A
:101CE00008950895EF92FF920F931F93CF93DF9380
:101CF0007C01EB018B01040F151FC017D10759F0B0
:101D0000D701ED91FC910480F581E02D6881C70138
:101D100009958993F2CFDF91CF911F910F91FF9099
:101D2000EF9008950F931F93CF93DF93EC018B01F6
:101D30008091C008E881F9810480F581E02D86FD5D
:101D400013C0612FCE010995182FE881F981048015
:101D5000F581E02D602FCE010995082FC801DF9194
:101D6000CF911F910F910895CE010995082FE88119
:101D7000F9810480F581E02D612FCE010995182F9E
:101D8000EDCF8F929F92AF92BF92CF92DF92EF9260
:101D9000FF920F931F93CF93DF93FC0180858823DD
:101DA00019F081FF0EC07894DF91CF911F910F91B0
:101DB000FF90EF90DF90CF90BF90AF909F908F906B
:101DC000089580FFF1CF82849384A484B584C12CCC
:101DD000D12C760110E09401A501B601C701A0E065
:101DE0000E94193D99F1217030E040E050E060E040
:101DF00070E080E090E00E94193DD9F0D0E0C0E0B2
:101E0000103370F4C12FC695C695C69580E2C89F61
:101E1000E0011124C05FDB4F812F8770C80FD11DF7
:101E2000CF01810F911DDC0152968C919881892BF5
:101E300088839401A501B601C70101E00E94FE3C20
:101E400049015A016B017C011F5FC5CF86849784CD
:101E5000A088B188C12CD12C760110E29401A50193
:101E6000B601C701A0E00E94193D09F49DCF217081
:101E700030E040E050E060E070E080E090E00E9400
:101E8000193DD9F0D0E0C0E0103370F4C12FC695F1
:101E9000C695C695B0E2CB9FE0011124C05FDB4F31
:101EA000812F8770C80FD11DCF01810F911DDC01DB
:101EB00052968C919881892B88839401A501B60153
:101EC000C70101E00E94FE3C49015A016B017C01FF
:101ED0001F5FC4CFFC016F3F710581F1808581FDDB
:101EE0002DC0603271055CF581E090E002C0880F82
:101EF000991F6A95E2F780959095092E000CAA0B20
:101F0000BB0B428553856485758584239523A62361
:101F1000B72382879387A487B58782859385A48515
:101F2000B585892B8A2B8B2B49F486859785A089CB
:101F3000B189892B8A2B8B2B09F410860895605266
:101F4000710981E090E002C0880F991F6A95E2F75D
:101F500080959095092E000CAA0BBB0B46855785E2
:101F60006089718984239523A623B7238687978761
:101F7000A08BB18BD2CFFC016F3F7105E9F16033CB
:101F800071051CF082E080870895808581608087DC
:101F900060327105C4F481E090E002C0880F991F9F
:101FA0006A95E2F7092E000CAA0BBB0B42855385FC
:101FB00064857585842B952BA62BB72B82879387F9
:101FC000A487B58708956052710981E090E002C04E
:101FD000880F991F6A95E2F7092E000CAA0BBB0B1C
:101FE0004685578560897189842B952BA62BB72B45
:101FF00086879787A08BB18B0895E0ECF8E020816D
:102000002E7F2083FC0117820895E0ECF8E08281A6
:102010008E7F82830895E0ECF8E082818160828384
:102020000895CF92DF92EF92FF92CF93DF936B01EF
:102030007C01E894F7F820913428309135284091BC
:10204000362850913728C701B6010E940B3AC0913B
:102050003228D0913328181614F4C1E0D0E0209132
:102060003A2830913B2840913C2850913D28C701A7
:10207000B6010E940B3A181624F0C0913828D0916E
:102080003928209140283091412840914228509190
:102090004328C701B6010E940B3A181624F0C091DC
:1020A0003E28D0913F28CE01DF91CF91FF90EF9055
:1020B000DF90CF900895CF92DF92EF92FF926B0165
:1020C0007C0180910628882309F470C0809129281A
:1020D00081116CC020E030E048EC52E460912E2881
:1020E00070912F2880913028909131280E94713A68
:1020F0000E94A23C60931B2870931C2880931D288B
:1021000090931E288FE390E00E94C70A60911D28DB
:1021100070911E2880E490E00E94C70A60912A28EE
:1021200070912B2880912C2890912D280E94A93CF9
:102130009B01AC01A4E6B0E00E944E3B60931B28DB
:1021400070931C2880931D2890931E2883E490E0B0
:102150000E94C70A60911D2870911E2884E490E0B7
:102160000E94C70A60912A2870912B2880912C2800
:1021700090912D280E94A93C9B01AC01AAE0B0E0FF
:102180000E944E3B60931B2870931C2880931D284F
:1021900090931E2886E490E00E94C70A60911D2853
:1021A00070911E2887E490E00E94C70A809106285B
:1021B00081118FC080912928882309F48AC084EF77
:1021C00091E080931B2890931C2810921D28109258
:1021D0001E2864EF71E083E490E00E94C70A6091DA
:1021E0001D2870911E2884E490E00E94C70A84E6AE
:1021F00090E080931B2890931C2810921D28109229
:102200001E2864E670E086E490E00E94C70A6091B0
:102210001D2870911E2887E490E00E94C70AE89468
:10222000F7F820E030E040EA50E460912528709112
:10223000262880912728909128280E94713A9B0196
:10224000AC01C701B6010E94303C6B017C0120E06B
:1022500030E048EC52EC0E940B3A87FD2CC020E0A5
:1022600030E048EC52E4C701B6010E94D83C181691
:102270004CF120E030E048EC52E4C701B6010E9486
:10228000713A0E94A23C60931B2870931C28809393
:102290001D2890931E288FE390E00E94C70A60914A
:1022A0001D2870911E2880E490E0FF90EF90DF9051
:1022B000CF900C94C70AC12CD12C98ECE92E92EC4B
:1022C000F92ED7CFC12CD12C88ECE82E82E4F82E41
:1022D000D0CFFF90EF90DF90CF90089584E898E200
:1022E0000E946F05181619062CF484E898E20E94E3
:1022F000DA03F4CF84E898E20E946F05892BD1F3CA
:10230000089567EC70E08091B52A9091B62A0E94FA
:10231000680B60931F2870932028089584E898E242
:102320000E946F05181619062CF484E898E20E94A2
:10233000DA03F4CF0895DC0128E235EC2D933D93C8
:1023400020E1FB01329601900D922A95E1F7FB0105
:1023500022893389FC01228B338B0895CF92DF923F
:10236000EF92FF920F931F93CF93DF93CDB7DEB71A
:102370006497CDBFDEBFDC015A96ED91FC91008DD4
:10238000118DD8018D919C91DC011E96ED90FC90F1
:10239000C280D380BF016C5F7F4FCE0101960E9447
:1023A0009B11A601BE016F5F7F4FC801F701099520
:1023B00021E030E0892B11F030E020E088279927D8
:1023C000821B930B6496CDBFDEBFDF91CF911F912F
:1023D0000F91FF90EF90DF90CF900895CF93DF9310
:1023E000EC01615F7F4F0E949B11CE01DF91CF9185
:1023F0000895DC01ED91FC910088F189E02D23E046
:1024000030E00994EF92FF920F931F93CF93DF93E5
:10241000F0909A2AE090992A08E010E0C0E0D0E815
:1024200061E070E08F2D0E94D50288E28E1530F0B9
:102430008E2D0E94B002019709F4CD2B70E060E070
:102440008F2D0E94D502D6950150110949F78C2F86
:10245000DF91CF911F910F91FF90EF900895FF9220
:102460000F931F93CF93DF938091992A893220F4A1
:102470000E94B0020197C1F310E0F8940E9402128A
:10248000D82F0E940212F82E0E940212082F80916B
:102490009B2A803829F0803481F0C2E0803271F0CC
:1024A00061E070E080919A2A0E94D50270E060E0BD
:1024B00080919A2A0E94D5020FC0C3E061E070E0CB
:1024C00080919A2A0E94D50270E060E080919A2A59
:1024D0000E94D502C15091F77894D7FD1FEF0E945A
:1024E00066036093A42A7093A52A8093A62A9093EA
:1024F000A72A602F7F2D8D2F912F0E94123ADF91F6
:10250000CF911F910F91FF90089528E235ECFC01C7
:1025100020833183128A138A029620E1FC011192F2
:102520002A95E9F70895CF93DF93EC01888199818B
:10253000009711F00E94C13D188219821C821D82F1
:102540001A821B82DF91CF910895FC0180819181D5
:10255000009711F00C94C13D0895CF93DF93EC01E7
:102560008A8D9B8D0E94C13DCE01DF91CF910C944D
:10257000C13DCF93DF93EC0180E994EC888399838C
:102580008C899D89009711F00E94C13D8E899F8999
:10259000009711F00E94C13D888D998D009711F030
:1025A0000E94C13D8A8D9B8D009711F00E94C13D14
:1025B0008A819B81009721F0DF91CF910C94C60610
:1025C000DF91CF910895CF93DF93EC010E94B91270
:1025D000CE01DF91CF910C94C13DCF93DF93EC01FD
:1025E00088EE94EC888399838B899C89009711F0FD
:1025F0000E94C13D8A819B81009721F0DF91CF919C
:102600000C94C606DF91CF910895CF93DF93EC0130
:102610000E94ED12CE01DF91CF910C94C13D20EFCD
:1026200034ECFC01208331830C94ED12CF93DF93C3
:10263000EC010E940F13CE01DF91CF910C94C13DAC
:1026400024EA34ECFC01208331830C94ED12CF9307
:10265000DF93EC010E942013CE01DF91CF910C9407
:10266000C13D0C94C13DFB0101900020E9F7319779
:10267000AF01461B570BDC01ED91FC910280F38109
:10268000E02D0994CF93DF93FC0144815581608153
:10269000718184E898E20E947903EC016AE275ECAA
:1026A00084E898E20E9433138C0F9D1FDF91CF9135
:1026B00008956115710511F00C94331390E080E0DA
:1026C0000895CF93DF93BC0184E898E20E945913E8
:1026D000EC016AE275EC84E898E20E9433138C0FF7
:1026E0009D1FDF91CF9108958F929F92AF92BF92DD
:1026F000CF92DF92EF92FF92CF9380914828882368
:10270000A1F00E942F126B017C0180910728833079
:1027100079F154F5813009F44EC08DE295EC0E94B8
:10272000611360E070E0CB0167C0C5E0C12CD12C23
:1027300076010E942F129B01AC01C701B6010E94D5
:10274000C43B6B017C016AE070E080E090E00E9495
:102750003603C15071F720E030E040EA50E4C70191
:10276000B6010E94303CCFCF8A3011F08233A9F6F7
:10277000C701B6010E94A23C072E000C880B990BE2
:102780000E94123A4B015C0120E030E0A9010E9456
:10279000713A6B017C01AC019B01C501B4010E943F
:1027A000713AA70196010E94C43B20E030E0A901E4
:1027B0000E94C43B21C025E039E44AEC52E3C70142
:1027C0000E94713AA70196010E94713A4B015C0187
:1027D0002FE531E742EC5CE3C701B6010E94713A94
:1027E0009B01AC01C501B4010E94C43B2DEF3FEB3E
:1027F00042EE5EE30E94C33BCF91FF90EF90DF90EB
:10280000CF90BF90AF909F908F9008958F929F929E
:10281000AF92BF92EF92FF920F931F93CF93DF93EC
:10282000CDB7DEB7A197CDBFDEBF7C01FA01CB01EA
:1028300019A2223008F42AE08E010F5D1F4F822E6C
:10284000912CB12CA12CBF01A50194010E94923BB7
:10285000F901CA016A30D4F4605DD8016E938D012C
:10286000232B242B252B79F7BD01C7010E94591377
:10287000A196CDBFDEBFDF91CF911F910F91FF9049
:10288000EF90BF90AF909F908F900895695CE5CFD7
:102890002F923F924F925F926F927F928F929F9270
:1028A000AF92BF92CF92DF92EF92FF920F931F935E
:1028B000CF93DF9300D01F92CDB7DEB78A839B837F
:1028C0004B01FC0182899389019709F0CEC08F01E9
:1028D00044244A9431E090E08FEF20E0428141119E
:1028E000B0C043814111ADC09F5F8F3F11F4822F73
:1028F00091E0391714F4392F482E32962F5F283083
:1029000069F71A821B82D12CC12CA42C042C000C38
:10291000BB083501630E711C37FD7A94CA14DB04C1
:1029200024F0C614D7040CF490C0F8018281682FFB
:1029300070E094E0759567959A95E1F7362E8F7063
:10294000582E8381E82EF12C24E0F594E7942A9503
:10295000E1F72E2C8F708983662309F4B7C0F9E064
:10296000F61708F470C0605DC4010E9472032A81EA
:102970003B81280F391F2A833B8339E060E33515FB
:1029800008F467E5650DC4010E947203EA81FB81CA
:10299000E80FF91FEA83FB83311004C0511002C015
:1029A000222079F0F9E060E3F21508F467E56E0D96
:1029B000C4010E9472032A813B81280F391F2A8398
:1029C0003B833981632F605D3A3010F06981695A29
:1029D000C4010E947203EA81FB81E80FF91FEA83B8
:1029E000FB83F7E0CF16D10451F06AE3C4010E94E3
:1029F00072032A813B81280F391F2A833B833FEFD3
:102A0000C31AD30A0E5F1F4F88E0C816D10409F01D
:102A100085CF8A819B812396CDBFDEBFDF91CF9189
:102A20001F910F91FF90EF90DF90CF90BF90AF90EC
:102A30009F908F907F906F905F904F903F902F90DE
:102A400008958FEF5ACF695A8FCFAC14BD04B9F6F1
:102A50004110CBCF6AE3C4010E947203EA81FB817B
:102A6000E80FF91FEA83FB83C0CFEA80FB80EEE02A
:102A7000EE0EF11CAA80BB80F1E1AF0EB11C10E09C
:102A800000E0F70141917F0150E070E060E02AE052
:102A9000C4010E9406146C016EE2C4010E9472031C
:102AA0008C0D9D1D080F191FAE14BF0451F7EA814C
:102AB000FB81418950E070E060E02AE0C4010E949F
:102AC0000614800F911F8A839B83A3CF511055CF8B
:102AD00067CF60931B2870931C2880931D289093C8
:102AE0001E2888E090E00E94C70A892B31F46EE42A
:102AF00075EC84E898E20C94591360911D2870914C
:102B00001E2889E090E00E94C70A892B81F308956E
:102B1000BC018BE390E00E94C70A892B31F466E781
:102B200075EC84E898E20C94591308954F925F92E3
:102B30006F927F928F929F92AF92BF92CF92DF92CD
:102B4000EF92FF926B017C01AC019B010E94DD3C86
:102B50006DE875EC81111AC046015701E894B7F889
:102B60002FEF3FEF4FE75FE7C501B4010E94DD3C67
:102B7000811126C02FEF3FEF4FE75FE7C501B4019A
:102B80000E940B3A1816E4F461E975EC84E898E2C7
:102B90000E9433137C016AE275EC84E898E20E949B
:102BA00033138E0D9F1DFF90EF90DF90CF90BF905D
:102BB000AF909F908F907F906F905F904F9008950F
:102BC0002FEF3FEF4FE75FE4C701B6010E94D83C0B
:102BD00018161CF465E975ECD9CF2FEF3FEF4FE7DE
:102BE0005FECC701B6010E940B3A87FDF3CF20E0EE
:102BF00030E0A901C701B6010E940B3AB12CA12C0B
:102C000087FF0AC06DE284E898E20E9472035C01CB
:102C1000F7FAF094F7F8F0942AE037ED43EA5BE333
:102C2000C701B6010E94C43B2B013C010E94A93C94
:102C30006B017C010E94103A9B01AC01C301B201FF
:102C40000E94C33B2B013C012AE0B701A60184E8A6
:102C500098E20E9406147C01EA0CFB1C6CE475EC03
:102C600084E898E20E943313E80EF91E20E030E079
:102C700040E251E4C301B2010E94713A2B013C01D0
:102C80000E94A93C4B01B12CA12C2AE0B501A40162
:102C900084E898E20E940614E80EF91EC501B4010A
:102CA0000E94103A9B01AC01C301B2010E94C33BD8
:102CB00020E030E040E251E40E94713A0E94A93CD9
:102CC000AB0170E060E02AE084E898E20E9406141C
:102CD000E80EF91E60CF0F931F93CF93DF93EC01A3
:102CE00088819981009759F02A813B8126173707FF
:102CF00030F081E0DF91CF911F910F9108958B010A
:102D00006F5F7F4F0E944A3E009759F088839983F6
:102D10000A831B832C813D81232B59F7FC011082F0
:102D2000E8CF80E0E7CFAF92BF92DF92EF92FF92C1
:102D30000F931F93CF93DF936115710561F4D12C2D
:102D40008D2DDF91CF911F910F91FF90EF90DF902C
:102D5000BF90AF900895DD24D3944115510581F3C0
:102D60007A015B01EC010C811D81040F151FB80174
:102D70000E946B16D82E882311F3288139818C810B
:102D80009D81A701B501820F931F0E94193F0C83FB
:102D90001D8388819981080F191FF8011082D0CFF7
:102DA000CF93DF93EC01FB0101900020E9F731970D
:102DB000AF01461B570B0E949316811103C0CE0131
:102DC0000E949312CE01DF91CF910895EF92FF926E
:102DD0000F931F93CF93DF93EC017B018A01BA011C
:102DE0000E946B1681110BC0CE010E949312CE017E
:102DF000DF91CF911F910F91FF90EF9008950C8379
:102E00001D83A801B701888199810E94193FE8813B
:102E1000F9818C819D81E80FF91F1082E8CFFB01B9
:102E2000DC011D921C92119712961D921C92139711
:102E300014961D921C9215978617970749F060818A
:102E400071816115710521F0448155810C94E6165C
:102E50000895FC011082118212821382148215825D
:102E6000FB0101900020E9F73197AF01461B570B9A
:102E70000C94E616FC01DB0152962D913C9182895F
:102E800093892817390761F4CB01BF016E5F7F4F2B
:102E900040E150E002960E940C3F21E0892B09F0AE
:102EA00020E0822F08950E94073FBF92CF92DF92C9
:102EB000EF92FF920F931F93CF93DF93CDB7DEB7BF
:102EC000EC84FD84CE84DF84B8880A891B89D7010D
:102ED00014968D919C91892B59F0AE01485E5F4FFD
:102EE0006E897F8980910F2B9091102B0E942B3F30
:102EF0008C899D89892B31F0C7010E941507C70174
:102F00000E940207F6018281938180589F4F82833D
:102F10009383D7015896ED91FC910484F585E02DBB
:102F2000B801C6010995F801E80FF91FB0820196B2
:102F3000DF91CF911F910F91FF90EF90DF90CF9095
:102F4000BF9008952F923F924F925F926F927F921F
:102F50008F929F92AF92BF92CF92DF92EF92FF92A9
:102F60000F931F93CF93DF93CDB7DEB7C851D240F5
:102F7000CDBFDEBFFC01A281B381109749F486E189
:102F800090E08093092B90930A2B90E080E007C497
:102F90005C017E01FBEFEF1AFEEFFF0A5896ED9100
:102FA000FC9159970488F589E02DB701CD01099569
:102FB0001816190654F7D50112962D903C90C55F4E
:102FC000DD4F88839983CB50D24086E190E0211475
:102FD000310409F4DEC3D1015896ED91FC91C28011
:102FE000D380A4E0B1E0AC0FBD1FAC0DBD1D8C9132
:102FF000282F30E0CD5EDD4F28833983C351D24086
:10300000A7014C0D5D1DC15FDD4F48835983CF5033
:10301000D240DA019C90092D10E0A6E0B1E0AC0F9F
:10302000BD1FAC0DBD1D6C90712C762C6624A7E0E5
:10303000B1E0AC0FBD1FAC0DBD1D8C91680E711CB5
:103040002E01BBEF4B1ABDEF5B0AD2012D933C93CF
:10305000119712960D931C9313970684F785E02D14
:10306000BE01655F7D4FC7010995F2018483958399
:10307000EFEFE90DE73108F05EC5F0E0EE5BF74EEB
:103080000C94F63C5918591836193619C7191F1AD5
:10309000C71B9B1D9B1D9B1D9B1D9B1D9B1D9B1D46
:1030A000541A181B961B9B1D9B1D9B1D9B1DE61BED
:1030B000321C0230110509F049C0D5011A964D9114
:1030C0005C911B9718962D913C9119975696AD904F
:1030D000BC9083EA95ECE8E0F1E0EC0FFD1FEC0D0D
:1030E000FD1DE080F12CFE2CEE24E9E0F1E0EC0F78
:1030F000FD1FEC0DFD1D6081E60EF11CB701615056
:103100007109603D774060F127E02F9320ED2F9308
:103110009F938F93FF92EF9287ED95EC9F938F9300
:103120001F9281E08F9321E030E02C0F3D1F3F93F1
:103130002F931F9283E08F935F924F923F922F9233
:103140000E9455178C01CDBFDEBF66C0F5014681D8
:10315000578124813581A488B58889E995ECBBCF56
:103160006301C41AD50AD7FC08C047018C0C9D1C0A
:1031700028153905ACF46E0C7F1C9F938F937F92BA
:103180006F928FEF95EC9F938F931F921F9261E048
:1031900070E06C0F7D1F7F936F931F9282E0C0C120
:1031A000D1015896ED91FC910484F585E02DBE0186
:1031B0006F5F7F4FC20109958C010F5F1F4FE1E0E8
:1031C000F0E0EC0FFD1F8E0F9F1F21E0A70147705D
:1031D0005527452B09F420E0F3E0F594E794FA95A0
:1031E000E1F7E20EDC01EC92F501EC0DFD1D30E0A3
:1031F00020E090E080E0AF014A195B0948155905CD
:10320000E4F0892B49F0E1E0F0E0EC0FFD1FE00F66
:10321000F11F20830F5F1F4FCD5EDD4F2881398165
:10322000C351D240232B09F4B8C2A801BE016F5F7D
:103230007F4FC1010E94150AB0C2419150E0082E93
:1032400002C0440F551F0A94E2F7242B352B873018
:10325000910551F4A1E0B0E0AC0FBD1FA00FB11F6C
:103260002C930F5F1F4FC3CF0196C5CF04301105BC
:10327000B1F5F5014685578524853585808C918C7F
:1032800083EB95ECE8E0F1E0EC0FFD1FEC0DFD1D8C
:10329000008110E0102F0027E9E0F1E0EC0FFD1FA6
:1032A000EC0DFD1D6081060F111DB8016150710903
:1032B000FE0131966F016D37710500F11F922DE708
:1032C0002F939F938F931F930F9387ED95EC9F936D
:1032D0008F931F9281E08F93FF93EF932ACFD501B5
:1032E00052964D915C91539750962D913C915197E8
:1032F0005A968D909C9088EC95ECC4CF7301E41A9B
:10330000F50A5701F7FC07C0E00EF11E2E153F0528
:103310007CF4600E711E9F938F937F926F928FEF5C
:1033200095EC9F938F931F921F92DF92CF9235CF90
:10333000D1015896ED91FC910484F585E02DB601FC
:10334000C2010995F601E80FF91F000F00839501EE
:10335000220F331F820E931E0196F601E80FF91F0C
:103360008F010C191D09AE14BF040CF055CFD40108
:1033700011968C91B2E08B0E911C8083D401129730
:103380008C9181832FEFA21AB20A3296E9CFD50130
:1033900016968D919C911797A301481B590BCE014E
:1033A000019657FD06C014962D913C914217530784
:1033B0004CF07F926F9221E236EC3F932F931F9255
:1033C0001F92B1C1E8E0F1E0EC0FFD1FEC0DFD1D17
:1033D000208130E0322F2227E9E0F1E0EC0FFD1FE1
:1033E000EC0DFD1D6081260F311D2115FFEF3F07FC
:1033F00019F021153105B1F4D5015496ED91FC91E8
:10340000E40FF51F41E0232B09F440E04083C55F42
:10341000DD4F08811981CB50D240A801B7010E942D
:10342000193FFACE7F926F923F932F932AE436ECA6
:103430003F932F931F921F929F938F936FC0D5013D
:1034400052968D919C9153979301281B390BCE0175
:10345000019637FD07C050964D915C915197241706
:1034600035072CF07F926F9228E836ECA6CF220F1A
:10347000331F5A96ED91FC91E20FF31FA8E0B1E0E3
:10348000AC0FBD1FAC0DBD1D2C9130E0322F22279B
:10349000A9E0B1E0AC0FBD1FAC0DBD1D4C91240FD8
:1034A000311D20833183B3CFE8E0F1E0EC0FFD1F45
:1034B000EC0DFD1D808190E0982F8827E9E0F1E078
:1034C000EC0FFD1FEC0DFD1D2081820F911D9C0155
:1034D00021503109203B374070F4EAE0F1E0EC0F75
:1034E000FD1FEC0DFD1D2081E8E02E9F90011124B1
:1034F00028173907ECF427E02F9320EB2F939F93A5
:103500008F9386EB96EC9F938F931F9281E08F931E
:1035100021E030E02C0F3D1F3F932F931F9283E05B
:103520008F935F924F923F922F920E9455170ACE2F
:10353000D50116962D913C911797F301E21BF30BE1
:103540009F01F7FD0CC0BC016E0F7F1F14964D91BB
:103550005C91159746175707D4F4680E791E7F9231
:103560006F928AEE96EC9F938F931F921F9221E0A9
:1035700030E02C0F3D1F3F932F931F9282E08F93DB
:103580005F924F923F922F920E945517DBCD56E0EB
:10359000C50ED11C54960D911C91200F311FF901BD
:1035A00050E040E081E090E08C0F9D1FC80ED91ED6
:1035B000CF01801B910B86179707F0F0D101589629
:1035C000ED91FC910484F585E02DBE016F5F7F4F86
:1035D000C2010995A1E0B0E0AC0FBD1FA80FB91F53
:1035E000F701E80FF91F24E001900D922A95E1F709
:1035F0008C010C5F1F4F10CECF01821B930BA3E0F9
:1036000096958795AA95E1F78C0D9D1D8C5F9E4F31
:10361000DC018C9190E0042E02C0959587950A9468
:10362000E2F7817081934F5F5F4F47705527C0CF9E
:10363000E8E0F1E0EC0FFD1FEC0DFD1D208130E016
:10364000322F2227E9E0F1E0EC0FFD1FEC0DFD1D0C
:103650008081280F311DC90101978B37910570F4C6
:10366000EAE0F1E0EC0FFD1FEC0DFD1D8081B8E0FC
:103670008B9FC0011124821793077CF41F928BE764
:103680008F933F932F9384E197EC9F938F931F9297
:1036900081E08F93CE010196CFCED50152968D91C8
:1036A0009C915397F301E81BF90BCF01F7FD31C053
:1036B000A9014E0F5F1F50966D917C91641775079D
:1036C00034F1C15FDD4FE881F981CF50D2409C01D8
:1036D000220F331F2E193F092C193D098417950716
:1036E0000CF06CCFD5015A966D917C91DB01A20F45
:1036F000B31FAE0FBF1F668170E0762F662717815C
:10370000610F711D6D937C9301963296E7CF620E27
:10371000731E7F926F928DE497EC9F938F931F920D
:103720001F92CE0101969F938F9327CFD101589678
:10373000ED91FC910484F585E02DBE016F5F7F4F14
:10374000C2010995FE01E80FF91F24EB2283FE0157
:10375000E80FF91F2FEF2383DC011396E1E0F0E07F
:10376000EC0FFD1FAE0FBF1F28E0ECE7F7EC019058
:103770000D922A95E1F78C01055F1F4FE1E0F0E023
:10378000EC0FFD1FE80FF91F8AE0808345CD8DE621
:1037900090E08093092B90930A2B81E090E0C85E23
:1037A000DD4FCDBFDEBFDF91CF911F910F91FF9015
:1037B000EF90DF90CF90BF90AF909F908F907F90D1
:1037C0006F905F904F903F902F900895D501529643
:1037D0008D919C915397F301E81BF90BCE01019653
:1037E000F7FD40CE50962D913C915197E217F3078B
:1037F0000CF038CEEE0FFF1F5A962D913C91E20F40
:10380000F31FAAE0B1E0AC0FBD1FAC0DBD1D2C91A4
:1038100030E0322F2227ABE0B1E0AC0FBD1FAC0D82
:10382000BD1D4C91240F311DA8E0B1E0AC0FBD1FB0
:10383000AC0DBD1D4C91642F70E0762F6627A9E07A
:10384000B1E0AC0FBD1FAC0DBD1D4C91460F572F05
:10385000511D6081718162277327462357232427D6
:1038600035271FCEE8E0F1E0EC0FFD1FEC0DFD1D4C
:10387000808190E0982F8827E9E0F1E0EC0FFD1FB0
:10388000EC0DFD1D2081FC01E20FF11DC35FDD4F3A
:10389000E883F983CD50D240ECE0F1E0EC0FFD1F5E
:1038A000EC0DFD1D808190E0982F8827EDE0F1E080
:1038B000EC0FFD1FEC0DFD1D2081820F911D9C0161
:1038C00021503109DE01119629373105C0F4C35F5B
:1038D000DD4F28813981CD50D240215031092D371B
:1038E000310568F4EEE0F1E0EC0FFD1FEC0DFD1D7D
:1038F00040819C01220F331F4217130639F11F929A
:103900002DE72F931F9229E72F93C25FDD4FF88198
:10391000CE50D240FF93C35FDD4F2881CD50D240BF
:103920002F939F938F9385E897EC9F938F931F928C
:1039300081E08F93BF93AF931F9283E08F935F9249
:103940004F923F922F920E945517FCCBEAE0F1E094
:10395000EC0FFD1FEC0DFD1D208130E0322F2227E2
:10396000EBE0F1E0EC0FFD1FEC0DFD1D4081240F9D
:10397000311DF501428953898301041B150BCF5E6C
:10398000DD4F08831983C151D240B901641B750B07
:10399000AB014B0117FDDFC0C35FDD4FE881F9814B
:1039A000CD50D240E00FF11FCB5EDD4FE883F983AD
:1039B000C551D240F50160897189CB5EDD4FE88148
:1039C000F981C551D2406E177F07FCF057FD1FC02B
:1039D000AC01480D591DC95EDD4F48835983C7515D
:1039E000D24064177507E4F4280F391F17FF0FC082
:1039F0003F932F937F926F9281ED97EC9F938F93DC
:103A00001F921F92BF93AF93C8CB57FFEDCFC35FF9
:103A1000DD4F68817981CD50D240660E771EE8CFA8
:103A2000F101808D918DFC01248535857D01BD01DD
:103A3000CE018B5F9D4FF9010995F701E80FF91F42
:103A4000C35FDD4F2881CD50D240220F2083C15F5C
:103A5000DD4FE881F981CF50D240AE014B5F5E4F20
:103A60009401220F331F241B350B2C193D09C95E0D
:103A7000DD4F48815981C751D240841695060CF418
:103A800043C0F701E80FF91F9801220F331F2E19C9
:103A90003F09B901681B790BCB0141E050E04E1999
:103AA0005F098A010E0F1F1FCB5EDD4F6881798190
:103AB000C551D240CF5EDD4FA881B981C151D240FE
:103AC000A617B7070CF0A8CBBC016E0F7F1FD5015E
:103AD0005A962D913C91DB01A20FB31F11962C91A8
:103AE000119721832C912283CF5EDD4F288139816C
:103AF000C151D2402F5F3F4FCF5EDD4F28833983C6
:103B0000C151D2403296CDCFD5015A964D915C919C
:103B1000DA01A20FB31FAE0FBF1F428550E0542F32
:103B200044276385460F511D4D935C93BFEF8B1A5D
:103B30009B0A32969CCF1F929F9282E298EC9F93B1
:103B40008F931F9281E08F939E012F5F3F4F3F9392
:103B50002F931F9214CD77FF47CF4ACFCF92DF929A
:103B6000EF92FF920F931F93CF93DF936C018B0122
:103B70007A018CE190E00E94253DEC018FEF9FEFF0
:103B80008A839B831C821D821E821F82188619864F
:103B90001A861B8680E291EAA7E0B0E08C879D87B9
:103BA000AE87BF87188A198A1A8A1B8A8C8B9D8BCD
:103BB000AE8BBF8B8FEF90E08883998388EA93EC7C
:103BC000888F998F8AE190E00E94253D8A8F9B8F94
:103BD000FC01C08ED18E20E1F8013296DC011696F0
:103BE00001900D922A95E1F7F80122893389FC01B1
:103BF000268B378BE282F38210821182CE01DF9115
:103C0000CF911F910F91FF90EF90DF90CF9008958B
:103C1000CF92DF92EF92FF920F931F93CF93DF9398
:103C2000CDB7DEB76497CDBFDEBFBC01CE01019634
:103C30000E949B1146EF51E0BE016F5F7F4F809164
:103C4000CA2A9091CB2A0E94AE1D8C018091C02A75
:103C50009091C12A009731F00E94C13D1092C02A74
:103C60001092C12A8091AF2A9091B02A009741F01A
:103C70000E94D1068091AF2A9091B02A0E94C60678
:103C80000093AF2A1093B02A8FEF90E08093B52A6B
:103C90009093B62A0115110581F0C8010E94DC0637
:103CA0000091AF2A1091B02A892B51F0C8010E94CF
:103CB000C6061092AF2A1092B02A90E080E01DC094
:103CC0001092B72A1092C22A1092C32A1092C42AC4
:103CD0001092C52A1092C62A1092C72A1092C82A9A
:103CE0001092C92A01151105A1F486E190E0809394
:103CF000092B90930A2B81E090E06496CDBFDEBF44
:103D0000DF91CF911F910F91FF90EF90DF90CF90B7
:103D1000089584E090E0F801868397836091B12A4A
:103D20007091B22A8091B32A9091B42A28EE33E0A0
:103D300040E050E00E94923B69017A019B01AC0196
:103D4000A8EEB3E00E944E3BC114D104E104F1049B
:103D500029F4611571058105910539F2F801C086D4
:103D6000D186E286F3866487758786879787C3CF77
:103D7000CF92DF92EF92FF920F931F93CF93DF9337
:103D8000CDB7DEB7A097CDBFDEBF67E478ECCE013C
:103D90004B960E9429170E9466030E94103A609376
:103DA00015287093162880931728909318288091CF
:103DB000CA2A9091CB2ADC01ED91FC910688F78903
:103DC000E02D0995811115C08EE498EC0E946113D5
:103DD00061E77AE2CE0101960E949B11CE01019625
:103DE0000E94081E892B09F051C089E798EC0E94B7
:103DF00061130E9466030E94103A209115283091A9
:103E0000162840911728509118280E94C33B6B0137
:103E10007C01BE01655E7F4FCE0145960E940F1763
:103E20008E010F5F1F4F22E044E0C701B6010E94E0
:103E3000B637009779F0FC0101900020E9F731973F
:103E4000AF01481B590BBC01CE0145960E94931649
:103E5000811104C0CE0145960E949312CE01459671
:103E60000E944213CE0145960E94A512CE014B96A8
:103E70000E94A512A096CDBFDEBFDF91CF911F910A
:103E80000F91FF90EF90DF90CF90089580EA98EC2B
:103E9000AECFCF92DF92EF92FF920F93FC01C12C35
:103EA000B9E0DB2EBDE3EB2EF12CC082D182E282A1
:103EB000F3821482158281E090E086839783C0901C
:103EC0000228D0900328E0900428F0900528F6946A
:103ED000E794D794C79490E04C155D056E057F0577
:103EE00040F4F694E794D794C7949F5F9630A1F777
:103EF00097E004600187892F8095A82FA170B0E01A
:103F000084E0AA0FBB1F8A95E1F791629A2B80E0AB
:103F1000232B09F480E4982B90870F91FF90EF906A
:103F2000DF90CF9008950F931F93CF93DF93CDB77A
:103F3000DEB72A97CDBFDEBF8C01FC0187818111DE
:103F40000CC0108611861286138614861586168676
:103F50001786108A118A81E087838091E305F80132
:103F60009681892B8093E30561E070E083810E9454
:103F7000020361E070E0F80184810E9402038091F5
:103F8000C10884608093C1088091C00881628093D9
:103F9000C00840915C2A50915D2A60915E2A709120
:103FA0005F2A0091602A2091622A3091632ACE0113
:103FB00001960E94491F99858A859093C008809335
:103FC000C1082A96CDBFDEBFDF91CF911F910F911F
:103FD00008955F926F927F928F929F92AF92BF925D
:103FE000CF92DF92EF92FF920F931F93CF93DF93C5
:103FF000CDB7DEB76297CDBFDEBF3C010B871C8714
:104000002D873E87042F4F87588B698B7A8B2989A0
:104010003A894B855C856D857E85CE0101960E942F
:10402000491F59841A85D30118968C91882319F059
:1040300081FF18C0F8945092C0081093C10862968E
:10404000CDBFDEBFDF91CF911F910F91FF90EF9019
:10405000DF90CF90BF90AF909F908F907F906F90A8
:104060005F90089580FFE7CFF30182849384A48456
:10407000B584C12CD12C7601B0E09401A501B60124
:10408000C701A0E00E94193DA9F1217030E040E095
:1040900050E060E070E080E090E00E94193DE9F0BF
:1040A00090E080E0B03370F48B2F869586958695EE
:1040B000F0E28F9FC0011124805F9B4F2B2F277050
:1040C000820F911DFC01408193012B0F311DF901DD
:1040D000428BFC012081287F20839401A501B60139
:1040E000C70101E00E94FE3C49015A016B017C01BD
:1040F000BF5FC3CFD3011E968D909D90AD90BC90B5
:104100005197C12CD12C7601B0E29401A501B601E2
:10411000C701A0E00E94193D09F48DCF217030E065
:1041200040E050E060E070E080E090E00E94193DE7
:10413000E9F090E080E0B03370F48B2F869586959F
:104140008695E0E28E9FC0011124805F9B4F2B2F4C
:104150002770820F911DFC01408193012B0F311DAF
:10416000F901428BFC012081287F20839401A50165
:10417000B601C70101E00E94FE3C49015A016B01F2
:104180007C01BF5FC2CFBF92CF92DF92EF92FF92CE
:104190000F931F93CF93DF93D82FB92EC62F6A01A9
:1041A00079010091D9291091DA292091DB293091E8
:1041B000DC294091DD295091DE296091DF29709141
:1041C000E0298AE19AE20E94E91F0E94F80D8B2DF6
:1041D0000E9403028D2F0E9403028C2F0E94030273
:1041E000E60186010E0D1F1D80E00E9403028993E7
:1041F0000C171D07C9F70E94F20D8AE19AE20E948E
:10420000C10EC701DF91CF911F910F91FF90EF90E9
:10421000DF90CF90BF900895AB01FC01848582951B
:10422000880F807E68E0680F26E030E086E090E04E
:104230000C94C320AB01FC0184858295880F807E9D
:1042400068E0680F26E030E086E090E00C94C32040
:10425000AB01FC0184858295880F807E68E0680F41
:1042600024E030E08CE090E00C94C320AB01FC0132
:1042700084858295880F807E68E0680F24E030E0B6
:104280008CE090E00C94C3200F931F93CF93DF93A7
:10429000D82FC62F0091D9291091DA292091DB2936
:1042A0003091DC294091DD295091DE296091DF2990
:1042B0007091E0298AE19AE20E94E91F0E94F80DBC
:1042C00080E00E9403028D2F0E9403028C2F0E9427
:1042D000030280E00E940302C82F0E94F20D8AE1CF
:1042E0009AE20E94C10E8C2FDF91CF911F910F9106
:1042F00008959B018295880F807E68E0680FC90150
:104300000C9444211F93CF93DF93182F66E270E043
:104310000E947921C82FD0E0DC2FCC2767E270E023
:10432000812F0E9479218C0F9D2F911DDF91CF91BC
:104330001F910895FF920F931F93CF93DF93F82E51
:1043400010E000E08F2D0E948221EC01892B21F0EA
:104350008F2D0E9482218C01C017D10799F7CE01C1
:10436000DF91CF911F910F91FF900895FC018485FB
:10437000883011F00C949A2190E080E008951F930A
:10438000CF93DF93182F60E270E00E947921C82F4D
:10439000D0E0DC2FCC2761E270E0812F0E947921F0
:1043A0008C0F9D2F911DDF91CF911F910895FF924A
:1043B0000F931F93CF93DF93F82E10E000E08F2D23
:1043C0000E94BF21EC01892B21F08F2D0E94BF217B
:1043D0008C01C017D10799F7CE01DF91CF911F91C2
:1043E0000F91FF900895FC018485883021F063E0EF
:1043F00070E00C94792180E00895CF93DF93FC0165
:1044000024852830D9F0EC010E94F321843189F011
:10441000882379F0883169F021E08C3159F4E88102
:10442000F9810084F185E02DCE01099521E0892BE9
:1044300009F420E0822FDF91CF91089580E0FBCF37
:1044400070E060E00C947921FC0184850E942022B8
:10445000829581700895FC0184850E94202286FB4C
:10446000882780F90895FC0184850C942022FC01A2
:1044700084850E94202285FB882780F90895FC010D
:1044800084850C942022BF92CF92DF92EF92FF920C
:104490000F931F93CF93DF93D82FB92EC62F6A01A6
:1044A00079010091D9291091DA292091DB293091E5
:1044B000DC294091DD295091DE296091DF2970913E
:1044C000E0298AE19AE20E94E91F0E94F80D8B2DF3
:1044D0000E9403028D2F0E9403028C2F0E94030270
:1044E000E60186010E0D1F1DC017D10721F089912D
:1044F0000E940302F9CF0E94F20D8AE19AE20E9423
:10450000C10EC701DF91CF911F910F91FF90EF90E6
:10451000DF90CF90BF900895AB018295880F807E89
:104520006CE0680F24E030E08CE090E00C944322D3
:10453000FF920F931F93CF93DF93F82ED62FC42FA4
:104540000091D9291091DA292091DB293091DC29B9
:104550004091DD295091DE296091DF297091E02999
:104560008AE19AE20E94E91F0E94F80D80E00E9411
:1045700003028F2D0E9403028D2F0E9403028C2FB5
:104580000E9403020E94F20D8AE19AE20E94C10E8B
:1045900081E0DF91CF911F910F91FF900895EF92ED
:1045A000FF921F93CF93DF93CDB7DEB7C05FD109E2
:1045B000CDBFDEBF7C0188E295ECC352DF4F88831C
:1045C0009983CD5DD040C151DF4F18821982CF5EF3
:1045D000D040EDEDF0E0EC0FFD1F32968CE0DF01F6
:1045E0001D928A95E9F78FEFC551DF4F8883CB5E27
:1045F000D040C451DF4F8883CC5ED040C351DF4FE1
:104600008883CD5ED040C251DF4F1882CE5ED0404D
:10461000BE0163527F4FCE018B549F4F0E949B116E
:10462000B701CE0187539F4F0E949B11BE01675374
:104630007F4FCE018F559F4F0E949B11CD54DF4F6E
:1046400088819981C35BD040E1EAF0E0EC0FFD1F67
:10465000892B09F4D2C0359681E08083BE016F5565
:104660007F4FCE0183579F4F0E949B11BE016B5419
:104670007F4FCE0187589F4F0E949B11BE01675309
:104680007F4FCE018B599F4F0E949B11BE016B59EA
:104690007F4FCE018F5A9F4F0E949B11A5968EADE2
:1046A0009FADA597E1E5F0E0EC0FFD1F892B09F424
:1046B000A6C0359681E08083BE016F5A7F4FCE0140
:1046C000CD960E949B11BE0163577F4FCE01899604
:1046D0000E949B11BE0167587F4FCE0145960E94F4
:1046E0009B11BE016B597F4FCE0101960E949B1119
:1046F000F090182A1091172AF0925B2868EE73E068
:1047000080E090E00E94360361E070E08F2D0E940F
:1047100002038AE19AE20E94931F113009F071C0EE
:104720001CE240E0612F8EE190E00E94982240E080
:10473000612F8FE190E00E949822105E1C3089F773
:1047400040E16CE08EE190E00E94982240E16CE054
:104750008FE190E00E94982226E030E048E058E2A5
:1047600064E089E090E00E9443228B899C89AE013D
:10477000892B09F4A7C04D5F5F4F24E030E064E06F
:104780008FE090E00E9443228BAD9CADAE01892B5F
:1047900009F49BC0455D5F4F24E030E064E081E0B8
:1047A00090E00E9443228FA198A5AE01892B09F4C5
:1047B0008FC0495E5F4F24E030E064E085E090E028
:1047C0000E94432280E1FE01FF96A3EEB9E2019030
:1047D0000D928A95E1F761968EAD9FAD61978093BA
:1047E000F3299093F429C051DF4FCDBFDEBFDF9195
:1047F000CF911F91FF90EF90089571962DCF7196F4
:1048000059CF123029F51CE440E0612F8EE190E091
:104810000E94982240E0612F8FE190E00E94982250
:10482000105E1C3089F748E06CE08EE190E00E9459
:10483000982248E06CE08FE190E00E94982248E0E6
:104840006CE28EE190E00E94982248E06CE280CF1A
:10485000143001F51CE840E0612F8EE190E00E94E9
:10486000982240E0612F8FE190E00E949822105E34
:104870001C3089F744E0612F8EE190E00E9498227D
:1048800044E0612F8FE190E00E949822105E1C3876
:1048900089F762CF1CE088E0E82EF12C42E0612F1E
:1048A0008EE190E00E94982242E0612F8FE190E03B
:1048B0000E949822B1E0EB1AF108105EE114F104B5
:1048C00069F74ACF415F5F4F58CF495C5F4F64CF74
:1048D0004D5D5F4F70CF9B018295880F807E6CE0AD
:1048E000680FC9010C949822BF92CF92DF92EF9289
:1048F000FF920F931F93CF93DF93B82E6B017A0132
:10490000890164E270E00E947921C82F65E270E0BD
:104910008B2D0E947921D0E0DC2FCC278C0D9D2D92
:10492000911DC80FD91F6B2D6295660F607E6C5E5E
:104930009801A701CE010E944322C00FD11F4D2F25
:1049400064E270E08B2D0E946B244C2F65E270E0D6
:104950008B2DDF91CF911F910F91FF90EF90DF9002
:10496000CF90BF900C946B24AF92BF92CF92DF9206
:10497000FF920F931F93CF93DF938C015B01EA01AA
:10498000FC01C5A0D6A0F4848F2D0E94D7218C17DE
:104990009D0720F48F2D0E94D721EC019E01A501D7
:1049A000B6018F2D0E947424F80185A196A18C0F69
:1049B0009D1F85A396A3CE01DF91CF911F910F91EB
:1049C000FF90DF90CF90BF90AF900895CF93C82F06
:1049D000462F61E070E00E946B2461E070E08C2F54
:1049E0000E9479218111F9CFCF910895CF92DF9262
:1049F000EF92FF920F931F93CF93DF93D82E7B01FB
:104A00008A01C22E68E270E00E947921C82FD0E0AE
:104A1000DC2FCC2769E270E08D2D0E947921C80F30
:104A2000D11D6D2D6295660F607E685E9801A701AD
:104A3000CE010E94C320C11016C0C00FD11F4D2F40
:104A400068E270E08D2D0E946B244C2F69E270E0CB
:104A50008D2DDF91CF911F910F91FF90EF90DF90FF
:104A6000CF900C946B24DF91CF911F910F91FF9009
:104A7000EF90DF90CF900895CF92DF92EF92FF9268
:104A80001F93CF93DF93182F6B017A010E949A2115
:104A9000EC010097D9F463E070E0812F0E94792146
:104AA000843159F0882349F0C1E0D0E08C3111F411
:104AB000D0E0C0E0D195C195D109CE01DF91CF9171
:104AC0001F91FF90EF90DF90CF900895E816F906C0
:104AD0000CF4E7011C161D0684F720E0AE01B601B8
:104AE000812F0E94F62460E470E0812F0E94E6246A
:104AF000E4CFCF93DF93FC0127A130A52115310529
:104B000029F48FEF9FEFDF91CF910895EC01848519
:104B10004217530708F0A9010E943C2518161906F0
:104B200084F72FA138A5281B390B2FA338A7EBCF6B
:104B30000F931F93CF93DF931F92CDB7DEB7FC0186
:104B400027A130A5232B41F48FEF9FEF0F90DF912A
:104B5000CF911F910F9108958C0141E050E0BE016B
:104B60006F5F7F4FFC0184850E943C251816190653
:104B70005CF7F80187A190A5019787A390A7898189
:104B800090E0E4CF0F931F93CF93DF93CDB7DEB7C1
:104B90002897CDBFDEBF8C01DC01ED91FC91068032
:104BA000F781E02D0995F80184850E949A21892BCF
:104BB000E1F148E050E0BE016F5F7F4FD8011C96E5
:104BC0008C910E943C25181619063CF5F80111A29B
:104BD00012A271968CE0DF011D928A95E9F7D80147
:104BE0005D9684E0FE01319601900D928A95E1F781
:104BF0008D8190E0982F88272E81820F911DF801DA
:104C000083A394A38F81282F30E0322F2227888519
:104C1000820F932F911D87A390A72896CDBFDEBF4B
:104C2000DF91CF911F910F91089590E080E0F5CF33
:104C3000FC0184850C943C25CF93DF931F92CDB764
:104C4000DEB741E050E0BE016F5F7F4FFC0184851D
:104C50000E943C251816190634F4898190E00F90C3
:104C6000DF91CF9108958FEF9FEFF9CF0F931F93AF
:104C7000CF93DF931F92CDB7DEB78C01DC01ED91AE
:104C8000FC910084F185E02D0995892B91F021E0BC
:104C900041E050E0BE016F5F7F4FF80184850E94C4
:104CA000F624898190E00F90DF91CF911F910F91B1
:104CB00008958FEF9FEFF7CFCF93DF931F92CDB77C
:104CC000DEB7FC0127A130A58FEF9FEF232B59F012
:104CD00021E041E050E0BE016F5F7F4F84850E947C
:104CE000F624898190E00F90DF91CF910895CF93C2
:104CF000C82F60E170E00E94E6244FEF62E070E0B0
:104D00008C2FCF910C946B24FF920F931F93CF9312
:104D1000DF93C82FD62F8A01F22E0E9477264D2FBF
:104D20004F2970E060E08C2F0E946B240115110563
:104D3000C1F0412F64E070E08C2F0E946B24402F63
:104D400065E070E08C2F0E946B2461E070E08C2F96
:104D50000E94E62481E0DF91CF911F910F91FF9097
:104D600008950091192810911A280F5F1F4F009382
:104D7000192810931A28DDCFEF92FF921F93CF933B
:104D8000DF93FC012485283039F080E0DF91CF915A
:104D90001F91FF90EF9008957B01EC0110E063E01C
:104DA00070E0812F0E94792181110FC01C878C85B2
:104DB000883059F3ED86FE861FA218A620E0A701D1
:104DC00062E00E94842681E0E1CF883179F31F5FA1
:104DD000183029F7ECCFCF93DF93EC018C85883026
:104DE00021F00E94772688E08C87DF91CF9108958B
:104DF000CF92DF92EF92FF92CF93DF93EC018C85FD
:104E0000883041F168E070E00E94E6240E94660369
:104E10006B017C01CE010E94F321882389F061E0BF
:104E200070E080E090E00E9436030E9466036C19F7
:104E30007D098E099F09683E73408105910550F3F5
:104E4000CE010E94F321882319F08C850E947726D9
:104E500088E08C87DF91CF91FF90EF90DF90CF902B
:104E600008958F929F92AF92BF92CF92DF92EF926E
:104E7000FF920F931F93CF936C015B017A01FC01AA
:104E8000C485C830A1F481E090E0F6018283938369
:104E9000F12CE12CC701CF911F910F91FF90EF9062
:104EA000DF90CF90BF90AF909F908F9008958A0130
:104EB0004130584010F000E018E08C2F0E94D721BC
:104EC0004C0163E070E08C2F0E947921873111F052
:104ED0008C3109F58016910680F39801A50170E0E8
:104EE00060E08C2F0E94742460E270E08C2F0E949E
:104EF000E62462E070E08C2F0E94792184FD0EC0D0
:104F000063E070E08C2F0E9479218111F2CF8C2F09
:104F10000E947726B8CF10E000E0DFCF40E162E0EA
:104F200070E08C2F0E946B24012B09F0B3CFABCF24
:104F30001F93CF93DF93EC01162F8C850E942022C4
:104F4000482F112349F0406170E060E08C85DF91CB
:104F5000CF911F910C946B244F7EF6CF1F93CF936C
:104F6000DF93EC01162F8C850E942022482F1123FD
:104F700049F0406470E060E08C85DF91CF911F9133
:104F80000C946B244F7BF6CFCF93FC01C48560E279
:104F900070E08C2F0E94E62462E070E08C2F0E946B
:104FA000792184FD11C062E070E08C2F0E9479218C
:104FB00083FFF2CF48E162E070E08C2F0E946B2407
:104FC00090E080E0CF91089540E162E070E08C2FA6
:104FD0000E946B2481E090E0F5CFCF93DF93C82F40
:104FE000D62F472F60E170E00E946B244D2F61E1C6
:104FF00070E08C2FDF91CF910C946B241F93CF9393
:10500000DF93DB01FC0115A216A252962D913C9173
:105010005397FB01232B19F53E961E962C912111D7
:1050200009C02181211106C02281211103C02381E1
:105030002223C9F041155105B1F0EA01DC011C96AB
:105040001C91BF01812F0E948C22BE01812F0E94E2
:10505000ED2781E090E0DF91CF911F910895329686
:1050600012962C91DCCF90E080E0F5CF2F923F920A
:105070004F925F926F927F928F929F92AF92BF9268
:10508000CF92DF92EF92FF920F931F93CF93DF9314
:10509000CDB7DEB76F97CDBFDEBF7C015B016A0184
:1050A000DB01FB0181918111FDCF30E020E090E038
:1050B00080E05AE04D91442341F1843091050CF099
:1050C00051C04E32A9F42F3F310511F00CF04AC007
:1050D000F60162897389FC01672B41F43E96EC0D61
:1050E000FD1D2083019630E020E0E4CF3296F7CF1B
:1050F000529FB001539F700D1124242F440F330B86
:1051000020533109260F371FD5CF2F3F310509F026
:105110004CF58430910534F5F60142895389452BCD
:10512000F9F40E96C80ED91EF6012083AA24A39482
:10513000B12CC5016F96CDBFDEBFDF91CF911F911E
:105140000F91FF90EF90DF90CF90BF90AF909F9026
:105150008F907F906F905F904F903F902F90089529
:105160000296E0CF6CE578E2C7010E943A17811100
:1051700005C287010A5E1F4F0E9466036F70772782
:105180007C5FC8010E94BC26813009F0FCC1B701D8
:10519000CE0101960E949B1145E350E0BE016F5F76
:1051A0007F4FC8010E94FE27892B31F4B12CA12C1E
:1051B000C8010E94EB26BDCF0E946603F701648BF5
:1051C000758B42E050E0B7016C5E7F4FC8010E94D2
:1051D000B42481E090E089839A8342E050E0BE01EC
:1051E0006F5F7F4FC8010E94B42480E091E0898303
:1051F0009A8342E050E0BE016F5F7F4FC8010E947A
:10520000B42419821A8242E050E0BE016F5F7F4FE2
:10521000C8010E94B42442E050E0BE016F5F7F4F9E
:10522000C8010E94B42442E050E0BE016F5F7F4F8E
:10523000C8010E94B4243501F5018081882301F161
:105240005301F50181912F01882311F08E32B1F4C1
:105250004501861897081814190474F48D8A41E0E2
:1052600050E0BE016B5E7F4FC8010E94B424A401D0
:10527000B301C8010E94B4243201DECF5201E1CF54
:105280001D8A41E050E0BE016B5E7F4FC8010E9465
:10529000B424A12CBB24B394A982BA8242E050E08A
:1052A000BE016F5F7F4FC8010E94B424A982BA82F9
:1052B00042E050E0BE016F5F7F4FC8010E94B424FE
:1052C000C8010E94C427892B09F470CFF3E06F2E28
:1052D000712CC70185968E8F9F8FF6013296EC8FC9
:1052E000FD8F1601FEE02F0E311C21C06E8D7F8DCB
:1052F000CE0101960E949B11BE016F5F7F4FC701D7
:105300000E943A17882329F0F70181AD92ADC59725
:1053100059F1EEEFAE2EBB24BA9481E0681A710801
:1053200009F446CFFFEFAF16BF0609F041CF0E9448
:1053300066034B015C01C8010E94C22518161906BC
:10534000ACF20E946603681979098A099B096938D9
:1053500073418105910508F008C162E370E080E0C7
:1053600090E00E943603E7CF85AD96AD0C970CF424
:1053700000C14CE050E0BE016F5F7F4FC8010E944A
:1053800079258B819C81982789279827898F9A8FE7
:10539000F7014489558929813A814217530711F44D
:1053A00097FD08C0C8010E94FE0D7CEFA72EBB240C
:1053B000BA94B3CF8F709270892B41F0C8010E94CC
:1053C000FE0D6BEFA62EBB24BA94A7CF4F80588456
:1053D000542445245424B12CA12C41145104D1F45B
:1053E000C8010E94FE0D5AEFA52EBB24BA9495CF9A
:1053F0008D89811117C0C8010E949825C8010E949B
:105400009825C8010E949825C8010E949825FFEFA1
:10541000AF1ABF0A8D819E81982789279827A816E1
:10542000B906A8F441E050E0BE016B5E7F4FC801B1
:105430000E9479258D898823D9F28D899FEF980F55
:105440009D8B8823A9F2C8010E949825F6CF912C44
:10545000812C41E050E0BE01655E7F4FC8010E9493
:1054600079258B8D982F907C61F4882389F08B8D22
:105470009FEF980F9B8F882341F0C8010E949825C9
:10548000F6CFC8010E9498251B8E8B8D8111E1CF2C
:1054900042E050E0BE01695E7F4FC8010E9479255D
:1054A00042E050E0BE016B5E7F4FC8010E9479254B
:1054B000C8010E949825C8010E949825C8010E9431
:1054C0009825C8010E94982542E050E0BE01675E21
:1054D0007F4FC8010E9479258F89988D8115914051
:1054E00021F5AD88BE88BA24AB24BA2481E0A81681
:1054F000B104D9F4898D9A8D8115944041F0C80189
:105500000E94FE0D47EFA42EBB24BA9406CFF601ED
:1055100082899389B101892B11F06C8D7D8D44E0D6
:1055200050E0C8010E947925F8CEB12CA12C898DBC
:105530009A8D982789279827A816B90638F4C801A4
:105540000E949825FFEFAF1ABF0AF1CF2FEF821A02
:10555000920A4814590409F07CCFC8010E94FE0D3C
:1055600036EFA32EBB24BA94D8CEAA24AA94BA2C80
:10557000D4CE9DEFA92EBB24BA94CFCE8EEFA82E09
:10558000BB24BA94D6CDB12CA12CD3CDCF92DF922F
:10559000EF92FF920F931F93CF93DF93CDB7DEB7B8
:1055A000C756D109CDBFDEBF8C017B016A01CE0198
:1055B00001960E948512198E1A8E88EE93E0A0E063
:1055C000B0E08B8F9C8FAD8FBE8F86E793EC8F8B77
:1055D000988F88E08BA3CE0186960E948512CE011B
:1055E0008C5A9F4F0E94851261EE79E2CE01805C59
:1055F0009F4F0E949B1180E1FE01EE5BFF4FDE0199
:10560000139601900D928A95E1F764968EAD9FAD49
:1056100064978B8B9C8B1D8A1E8AAE014C5A5F4F00
:10562000B701CE0101960E94362881309105A1F480
:10563000D801ED91FC91E488F588BE016C5A7F4F4A
:10564000CE01805C9F4F0E949B11A601BE01605C51
:105650007F4FC801F7010995C959DF4FCDBFDEBFA4
:10566000DF91CF911F910F91FF90EF90DF90CF903E
:105670000895CF92DF92EF92FF920F931F93CF93F3
:10568000DF93CDB7DEB7C756D109CDBFDEBF8C01E2
:105690007B016A01CE0101960E948512198E1A8E35
:1056A00088EE93E0A0E0B0E08B8F9C8FAD8FBE8F33
:1056B00086E793EC8F8B988F88E08BA3CE0186963C
:1056C0000E948512CE018C5A9F4F0E94851261EE76
:1056D00079E2CE01805C9F4F0E949B1180E1FE0128
:1056E000EE5BFF4FDE01139601900D928A95E1F774
:1056F00064968EAD9FAD64978B8B9C8B1D8A1E8AA2
:10570000AE014C5A5F4FB701CE0101960E94362878
:1057100081309105A1F4D801ED91FC91E684F784E4
:10572000BE016C5A7F4FCE01805C9F4F0E949B113F
:10573000A601BE01605C7F4FC801F7010995C959F8
:10574000DF4FCDBFDEBFDF91CF911F910F91FF9053
:10575000EF90DF90CF900895BF92CF92DF92EF92BB
:10576000FF920F931F93CF93DF93CDB7DEB72697AA
:10577000CDBFDEBFFC012485283071F080E0269685
:10578000CDBFDEBFDF91CF911F910F91FF90EF90C2
:10579000DF90CF90BF9008956A018B017C01B12CFE
:1057A00063E070E08B2D0E94792181114AC0F701DE
:1057B000B486F7018485883009F396E0ECE6F3ECD3
:1057C000DE01119601900D929A95E1F7F801228978
:1057D000338921153105E9F597859F779C83F80179
:1057E00021153105C1F590899D83F80121153105F9
:1057F000A1F591899E83B801232B89F5625F7F4FC4
:105800000E948C22B601F70184850E94ED27F701E2
:1058100064856295660F607E645F26E030E0AE01CD
:105820004F5F5F4F86E090E00E944322F70117A28E
:1058300010A620E8A60162E084850E94842681E00B
:105840009ECF883109F4B3CFB394F8E0BF12A8CF4C
:10585000B0CF9381C2CF9481C7CF9581CBCF6E5FFC
:105860007F4FCECFCF92DF92FF920F931F93CF93B4
:10587000DF93DC011C962C91283051F090E080E001
:10588000DF91CF911F910F91FF90DF90CF900895FE
:105890006A018B01EC01F12C63E070E08F2D0E9416
:1058A000792181112EC0FC868C85883039F32091B6
:1058B0000028309101282F5F3F4F59F12093002895
:1058C00030930128409100285091012820E061E0A8
:1058D0000E948426F80182899389892BE9F43E96F7
:1058E000D8011E968C918F3FE1F481818F3F21F585
:1058F00082818F3F09F583818F3FF1F488E08C87A7
:10590000BDCF8B7F883179F2F394B8E0FB12C4CF1E
:10591000CBCF20E030ECD2CF3296D80112968C91CA
:10592000E2CF811109C08181811106C0828181117C
:1059300003C08381882311F3C114D104F9F21C85BB
:10594000BF01812F0E948C22B601812F0E94ED277A
:1059500064E070E0812F0E94E624CE010E94F321D2
:10596000873161F061E070E080E090E00E943603F2
:10597000CE010E94F3218111F0CFC0CF81E090E0F1
:105980007FCF1F93CF93DF93EC01162F8C850E945E
:105990002022482F112349F0406270E060E08C859E
:1059A000DF91CF911F910C946B244F7DF6CF1F9206
:1059B0000F920FB60F9211242F933F934F935F9343
:1059C0006F937F938F939F93AF93BF9340914F2893
:1059D00050915028609151287091522880914D2803
:1059E00090914E2820914B2830914C28420F531F04
:1059F000611D711D2091492830914A28820F931F03
:105A0000883E23E0920730F0885E93404F5F5F4FFF
:105A10006F4F7F4F80934D2890934E2840934F288F
:105A200050935028609351287093522880915728A2
:105A300090915828A0915928B0915A280196A11DFB
:105A4000B11D8093572890935828A0935928B0935C
:105A50005A2881E08093B60ABF91AF919F918F91B0
:105A60007F916F915F914F913F912F910F900FBE5A
:105A70000F901F9018951F920F920FB60F9211243E
:105A80002F933F934F935F936F937F938F939F9346
:105A9000AF93BF93EF93FF938FE199E20E940C06BF
:105AA000FF91EF91BF91AF919F918F917F916F91F6
:105AB0005F914F913F912F910F900FBE0F901F90CC
:105AC00018951F920F920FB60F9211242F933F93A8
:105AD0004F935F936F937F938F939F93AF93BF93F6
:105AE000EF93FF938FE199E20E94A603FF91EF915C
:105AF000BF91AF919F918F917F916F915F914F91E6
:105B00003F912F910F900FBE0F901F9018951F92ED
:105B10000F920FB60F9211242F933F934F935F93E1
:105B20006F937F938F939F93AF93BF93EF93FF9365
:105B300084E898E20E940C06FF91EF91BF91AF912B
:105B40009F918F917F916F915F914F913F912F9195
:105B50000F900FBE0F901F9018951F920F920FB6C7
:105B60000F9211242F933F934F935F936F937F93E3
:105B70008F939F93AF93BF93EF93FF9384E898E243
:105B80000E94A603FF91EF91BF91AF919F918F91DA
:105B90007F916F915F914F913F912F910F900FBE29
:105BA0000F901F9018958DEA9AE20E940F138CECCB
:105BB0009AE20E9420138BEE9AE20C94B9126F9233
