:100200000C94DE010C9406020C9406020C94060277
:100210000C9406020C9406020C9406020C9406023E
:100220000C9406020C9406020C9406020C9406022E
:100230000C9406020C9406020C9406020C9406021E
:100240000C9406020C9406020C9406020C9406020E
:100250000C9406020C9406020C9406020C940602FE
:100260000C9406020C9406020C94342F0C940E2F5E
:100270000C9406020C9406020C9406020C940602DE
:100280000C9406020C9406020C9406020C940602CE
:100290000C94AA2E0C94802F0C945A2F0C940602C6
:1002A00000407A10F35A00A0724E18090010A5D42D
:1002B000E80000E87648170000E40B54020000CA8A
:1002C0009A3B000000E1F5050000809698000000D0
:1002D00040420F000000A08601000000102700002F
:1002E0000000E803000000006400000000000A00B5
:1002F000000000000100000000002C76D888DC67B8
:100300004F0823DFC1DFAE59E1B1B796E5E3E4530F
:10031000C63AE651997696E8E6C28426EB898C9B2C
:1003200062ED407C6FFCEFBC9C9F40F2BAA56FA5CC
:10033000F490055A2AF75C936B6CF9676DC11BFC4E
:10034000E0E40D47FEF520E6B500D0ED902E030069
:10035000943577050080841E080000204E0A0000B6
:1003600000C80C333333330F986E12831141EF8D75
:100370002114893BE65516CFFEE6DB18D1844B38B5
:100380001BF77C1D901DA4BBE424203284725E22E6
:100390008100C9F124ECA1E53D2756656C6F6369C6
:1003A000746127206D617373696D61207365747466
:1003B00061746120613A2000B22FA62F11241FBE64
:1003C000CFEFCDBFDFE3DEBF18E2A0E0B8E2E6E5A5
:1003D000FAEB02C005900D92AA31B107D9F72BE2D2
:1003E000AAE1B8E201C01D92A632B207E1F711E01E
:1003F000CDEDD1E004C02197FE010E94BA54CC3D5E
:10040000D107C9F70E945A310C946D590C94000120
:1004100000006093C4088091C30887FFFCCF8091DF
:10042000C408089500008093C4088091C30887FF22
:10043000FCCF8091C4080895CF93DF9390E0FC0136
:10044000E352FC4020812F3F71F0FC01EC54FC4052
:10045000A08130E2A39FD0011124BC5F61307105FF
:1004600029F411962C93DF91CF91089585579C40E4
:10047000EC01E881EF3F89F0CD014096E80FF92FBC
:10048000F11D9FB7F89412962C938081623071050C
:1004900039F4886080839FBFE6CFF0E0E0E0F1CFE1
:1004A000877FF8CF282F30E0F901EE59FC40E0813A
:1004B000EE2309F1E13021F0F0F0E63098F00895F4
:1004C0004091010A25573C40F90120812C5F81E0D1
:1004D00090E001C0880F2A95EAF7809584238093E5
:1004E000010A089580E1E89FF0011124E05AF54FD8
:1004F00081818F7E81830895FF920F931F93CF9305
:10050000DF93082F10E0F801E352FC40F0809FEFEA
:10051000F916A1F0EB01893210F40E945202F801A1
:10052000EC54FC40E08180E2E89FF0011124FC5F84
:1005300080818F2159F0CD2B39F4F682DF91CF9154
:100540001F910F91FF900895F582F8CFD801A5571C
:10055000BC408C91309771F08F3F61F07096E80F3E
:10056000F11D9FB7F8948081CD2B39F4877F80836C
:100570009FBFE4CFF0E0E0E0F4CF8860F8CF0F93C6
:100580001F93CF93082F10E0F801E352FC40C08185
:10059000CF3FB9F0893210F40E945202F801EC54B6
:1005A000FC40E08180E2E89FF0011124FC5F80853F
:1005B000C82381E090E009F480E0CF911F910F9172
:1005C000089580E090E0F9CF893210F40C947C0219
:1005D0000895CF93DF93CAEADAE261E070E089819F
:1005E0000E94E4028BEF90E00197F1F770E060E089
:1005F00089810E94E4021B821C821D821E8280E08F
:1006000090E0A0E8BFE38F839887A987BA8780E846
:100610008A831B861C861D861E861B8ADF91CF91CE
:100620000895893210F40C941C020895CF93DF933F
:100630008FB7F894209168283091692840916A28F2
:1006400050916B28E091BA0A9091B60A90FF06C0CB
:100650002F5F3F4F4F4F5F4FE091BA0A8FBFA0917E
:100660006628B0916728C0916428D09165280E94BF
:10067000B752EC9F9001ED9F300D1124620F731F54
:10068000811D911DDF91CF9108958F929F92AF921E
:10069000BF92CF92DF92EF92FF924B015C010E94DA
:1006A00016036B017C01A8EEB3E0A50194010E9442
:1006B000B752C60ED71EE81EF91EC616D706E806A4
:1006C000F90618F40E941603F8CF0E9416036C1561
:1006D0007D058E059F05C8F3FF90EF90DF90CF90CA
:1006E000BF90AF909F908F9008952FB7F89460912E
:1006F00060287091612880916228909163282FBFB3
:100700000895DC01ED91FC910190F081E02D0994B8
:10071000AF92BF92CF92DF92EF92FF920F931F930F
:10072000CF93DF936C017B018B01040F151FEB014D
:100730005E01AE18BF08C017D10759F06991D60104
:10074000ED91FC910190F081E02DC6010995892B76
:1007500079F7C501DF91CF911F910F91FF90EF9035
:10076000DF90CF90BF90AF900895FC01A485B58530
:1007700011968C91119781FD1BC06C9182898F5FBE
:100780008F739389981739F0A289AE0FBF2FB11DCF
:1007900059966C93828BE756FF4F80819181009729
:1007A00041F0DC01ED91FC910190F081E02D099484
:1007B0008C910895FC0154894589252F30E0842FC0
:1007C00090E0821B930B541710F0CF960895019779
:1007D0000895FC0192898389981761F0A389AE0F6F
:1007E000BF2FB11D59968C9193899F5F9F73938BF7
:1007F00090E008958FEF9FEF08950F931F930E944D
:10080000750360939D2870939E2880939F289093F2
:10081000A02885E998E20E94E90397FF1DC00E9485
:10082000750300919D2810919E2820919F2830915A
:10083000A028601B710B820B930B009199281091DB
:100840009A2820919B2830919C2860177107820775
:100850009307F8F28FEF9FEF1F910F910895FC011E
:1008600092898389981731F08389E80FF11D818D72
:1008700090E008958FEF9FEF08950F931F930E94CC
:10088000750360939D2870939E2880939F28909372
:10089000A02885E998E20E942F0497FF1DC00E94BE
:1008A000750300919D2810919E2820919F283091DA
:1008B000A028601B710B820B930B0091992810915B
:1008C0009A2820919B2830919C28601771078207F5
:1008D0009307F8F28FEF9FEF1F910F910895CF9339
:1008E000C82F0E943D0497FD17C08D329105A1F0DD
:1008F0009C01205331092A30310570F0CC2319F0C6
:100900008E32910549F08D30910551F03CF40997F4
:10091000029730F08FEF9FEFCF9108958097D1F736
:1009200085E998E20E94E903DCCF6F927F928F9273
:100930009F92AF92BF92CF92DF92EF92FF920F936E
:100940001F93CF93DF9381E00E946F04EC01C12CD1
:10095000D12C760197FD4FC0812C912C80E8A82ED8
:100960008FE3B82EC12CD12C7601712C612CC130B3
:1009700069F1CD32D10509F46CC0CE32D10509F44C
:100980006BC08E01005311090A301105F8F477206D
:1009900009F442C02DEC3CEC4CEC5DE3C501B40124
:1009A0000E94DA514B015C01B801110F880B990BC1
:1009B0000E947B51A50194010E94DA519B01AC0178
:1009C000C701B6010E942D536B017C0185E998E2B5
:1009D0000E94E9030E943D04EC01C0970A9738F297
:1009E000CE32D105E1F5772021F2662021F0F7FA29
:1009F000F094F7F8F094C701B601DF91CF911F9101
:100A00000F91FF90EF90DF90CF90BF90AF909F90AD
:100A10008F907F906F90089520E030E040E251E4A5
:100A2000C701B6010E94DA516B017C01BE01DD0FE6
:100A3000880B990B0E947B519B01AC01C701B60149
:100A40000E942D5320E030E040E452E40E942C53F9
:100A5000BBCF66246394BACF77247394B7CFC130E9
:100A600009F485CFC2CFCF92DF92EF92FF92CF935E
:100A700080E00E946F04FC01C12CD12C760197FD0F
:100A800033C0C0E0E130D1F0ED32F105A9F1CF0182
:100A9000C0970A9798F4AAE0B0E0A70196010E94D7
:100AA000B7526F01FF0FEE08FF08C60ED71EE81EF3
:100AB000F91E80E3C81AD108E108F10885E998E237
:100AC0000E94E9030E943D04FC01C0970A97D0F2FE
:100AD000E130C1F2CC2341F0F094E094D094C09482
:100AE000C11CD11CE11CF11CC701B601CF91FF90C4
:100AF000EF90DF90CF900895C1E0E0CFFC019289A4
:100B00002389892F90E0805C9F4F821B91098F730E
:100B100099270895CF93DF93EC01E881F98106804E
:100B2000F781E02D0995EC85FD8586818F7386839D
:100B3000EC85FD8585818F7585838B898A8B198AE4
:100B4000DF91CF910895CF92DF92EF92FF920F93B2
:100B50001F93CF93DF93EC016A017B01022F8989F8
:100B6000882339F0E881F9810288F389E02DCE01EC
:100B7000099598898091E205892B8093E2051FB73A
:100B8000F89460E070E281EA97E0A70196010E9484
:100B9000FB5269017A018FEFC81AD80AE80AF80AED
:100BA000F694E794D794C794EC85FD8586818D7F74
:100BB0008683EC85FD8586818683198AA091231121
:100BC0000A2E000CBB0BA70196010E94C25220E026
:100BD00034E040E050E00E949852EC85FD85C20E62
:100BE000D31EE41EF51EC086D186EC85FD850783E5
:100BF000EC85FD858681806C8683EC85FD8585810D
:100C0000806885838E8562E070E00E9411038F8585
:100C100061E070E00E94E4028F8561E070E00E9474
:100C200011031FBFDF91CF911F910F91FF90EF90A4
:100C3000DF90CF900895CF93DF93FC01948985894D
:100C4000C485D585981306C08D818F7D8D83DF91F6
:100C5000CF910895A589AE0FBF2FB11DA75ABF4FE1
:100C60002C91858990E001968F739927858B80E47C
:100C70008C83A485B58512962C93948985899813C5
:100C8000E6CFA485B58515968C9115978F7D159621
:100C90008C9387898823D9F2808D80931301178ADA
:100CA000D6CFDC011C96ED91FC910FB607FE03C078
:100CB000258125FD04C0248125FD0C941B06089583
:100CC000EF92FF920F931F93CF93DF93EC0181E09C
:100CD000898B9C898D8998131CC0AC85BD85149621
:100CE0008C91149785FF15C012966C93AC85BD85C9
:100CF00080E414968C93EC85FD8585818F7D8583BA
:100D000081E090E0DF91CF911F910F91FF90EF90E4
:100D100008958091110180FF08C080911301888F90
:100D20008E898093130181E08F8BF62E0C8910E061
:100D30000F5F1F4F0F731127E02E8D898E1104C096
:100D4000CE010E945106F9CFEC89EC0FFD2FF11D69
:100D5000E75AFF4FF0820C8BEC85FD858581806220
:100D6000CECFCF93DF93FC0121892223C9F0EC0180
:100D70008091110180FF08C080911301808F8689C6
:100D80008093130181E0878BEC85FD85858185FD4E
:100D900003C0848186FD04C0CE010E945106F4CFB9
:100DA000DF91CF91089581E00895009741F0DC0133
:100DB0005896ED91FC9104A0F5A1E02D09940895B9
:100DC000009741F0DC015896ED91FC91068CF78D6F
:100DD000E02D09940895009741F0DC015896ED91BB
:100DE000FC91048CF58DE02D099486E190E08093D0
:100DF0001A2B90931B2B8FEF9FEF0895009741F0D4
:100E0000DC015896ED91FC910084F185E02D099468
:100E100086E190E080931A2B90931B2B8FEF9FEF2E
:100E20000895009741F0DC015896ED91FC9100A0E7
:100E3000F1A1E02D099486E190E080931A2B909324
:100E40001B2B8FEF9FEF0895CF93DF93EC01288545
:100E500039854A855B85A8EEB3E00E94B7520E94AF
:100E600045038C859D858230910538F0880F991F48
:100E7000880F991F05970197F1F7DF91CF9108959A
:100E80005F926F927F928F929F92AF92BF92CF921A
:100E9000DF92EF92FF920F931F93CF93DF938C011A
:100EA0007B014A013901DC015896ED91FC91C28029
:100EB000D3805A01AC0CBD1CD5015C90028CF38D23
:100EC000E02D3097F9F00995EC010196D9F4F8017D
:100ED000868182FF06C0C8010E942407C8010E94C3
:100EE0001107CE01DF91CF911F910F91FF90EF90ED
:100EF000DF90CF90BF90AF909F908F907F906F903A
:100F00005F900895F801A08DB18D12968D919C91FE
:100F10001397E701C80FD91FE881E150E73108F0C6
:100F20006DC0F0E0EA56F84F0C94BA54DC07DC07C9
:100F3000F507F507FE07FE070108FE07FE07FE0797
:100F4000FE07FE07FE07FE07FE07FE070408FE0772
:100F5000FE07FE07FE07AD07F50747E050E0480F24
:100F6000591F14968D919C911597480F591F57FE44
:100F700051C014968D919C918C0D9D1D02968615E5
:100F8000970509F044C0EC0CFD1CD7012C91F5012C
:100F900080818058990B28171906C9F5818190E046
:100FA0008C309105A4F58E51944D80931A2B90931B
:100FB0001B2BCFEFDFEF95CF3B812C81B90137FFA2
:100FC00002C0695F7F4FF3E075956795FA95E1F789
:100FD0006E5F7F4F2770332741E050E0232B11F4E1
:100FE00050E040E0460F571FBACF4B816C81542F21
:100FF000462F4F5F5F4F440F551FB1CF45E050E084
:10100000AECF43E050E0ABCF4FEF5FEFB0CF80EF1C
:101010009BE2CBCF6416750621F04F3F5F4F09F07E
:1010200091C0D701AC0DBD1D8C91581671F0D8013F
:1010300016968C9182FF06C0C8010E942407C80141
:101040000E9411078FEE9BE2B0CFEFEFE50DE73185
:1010500008F073C0F0E0E15DF74F0C94BA54460815
:1010600046086C086C089D089D089D089D089D0811
:101070009D089D089D089D089D087B087B08990890
:101080009D089D089D089D089D086C0813962C914D
:101090001397822F90E0982F882714962C91280F71
:1010A000392F311DC90137FD079663E09595879566
:1010B0006A95E1F72770332741E050E0232B11F4C4
:1010C00050E040E0840F951FF501C181D0E08C17FE
:1010D0009D0709F406CFABCF13968C91139790E040
:1010E000982F882714962C91820F911DD501119667
:1010F000CC91C695EBCF96012D5F3F4FB4E0CB0E60
:10110000D11CF701E20FF31F808190E0982F882710
:10111000F701EC0DFD1D4081840F911D280D391D37
:10112000F901C0818C0C9D1CD4012C91DC2FC22FA5
:10113000CECFF501C181D0E0D4CEC1E0D0E081E0D6
:1011400090E0C5CFF801868175CF2F923F924F92E4
:101150005F926F927F928F929F92AF92BF92CF9247
:10116000DF92EF92FF920F931F93CF93DF93CDB750
:10117000DEB72A97CDBFDEBF7C013B012A01DC012F
:101180005896ED91FC915997028113810F5F1F4F83
:10119000312C212C452BB1F018968D919D910D90FD
:1011A000BC91A02D89839A83AB83BC83F70184858E
:1011B0009585A685B7858D839E83AF83B887CE013D
:1011C00001961C01D12CC12C912C812CD701589651
:1011D000ED91FC910115110549F4008CF18DE02D84
:1011E000A401B301C70109955C0129C002A0F3A1C4
:1011F000E02D9801A101BE01675F7F4FC7010995EE
:101200005C01D7019FEFA916B906D9F516968C9106
:1012100081FD04C0AA24AA94BA2C11C000911A2BF3
:1012200010911B2B0437110509F5C7010E942407F3
:10123000C7010E94110700931A2B10931B2BC501A5
:101240002A96CDBFDEBFDF91CF911F910F91FF9006
:10125000EF90DF90CF90BF90AF909F908F907F9056
:101260006F905F904F903F902F900895023FBDE2A6
:101270001B0709F7C7010E94E006C7010E94EB06A1
:10128000DACF5896ED91FC910688F789E02DA801F8
:10129000B301680D791DC70109956115710509F53F
:1012A00082EF9DE280931A2B90931B2BF70186818E
:1012B00081FFB0CF00911A2B10911B2B023FFDE252
:1012C0001F0721F00F36110509F0A4CFC7010E94B6
:1012D000E006C7010E94EB0600931A2B10931B2B0C
:1012E00099CF6F3F760711F3860E971E061B170BDB
:1012F00009F099C0D7015896ED91FC91C114D10421
:1013000041F0CA94CD2809F457C082E0C82ED12CF0
:101310005DCFA281B381A60DB71D8C9141145104FC
:10132000B9F490E087309105D4F09C012F50310939
:101330002230310508F47CC08631910509F47EC065
:101340004797D1F5CC24C394D12C09E010E015C007
:10135000813158F48F3018F48550823048F4CC2411
:10136000C394D12C04E010E008C0863109F466C0B3
:10137000CC24C394D12C01E010E0F70140895189BD
:101380006289738984899589A689B7894115510530
:101390006105710529F40097A105B10509F416CF7F
:1013A00049835A836B837C838D839E83AF83B88705
:1013B000CE0101961C010ACFA281B381A60DB71DF3
:1013C0008C914114510401F58F3020F08131A8F047
:1013D0008731B9F084819581080F191F9401200F7E
:1013E000311F8681978182179307D4F48FEE9BE299
:1013F00080931A2B90931B2B0DCF15960C9110E018
:10140000E9CF19960C91FBCF90E0853091052CF037
:101410008131910511F04797E9F611960C91EFCFC4
:1014200052E0C52ED12C101611060CF4A6CFCECE4C
:10143000CC24C394D12C05E010E09FCFCC24C394DE
:10144000D12C06E010E099CFAF92BF92CF92DF92FD
:10145000EF92FF920F931F93CF93DF93EC017B01E9
:10146000E88DF98D0088F189E02DBA01C701099551
:101470008C01E88DF98D0288F389E02DA801B70170
:10148000CE0109956B018FEFC816D806C9F48E817D
:1014900081FF16C0A0901A2BB0901B2B82EFA816CC
:1014A0008DE2B80679F5CE010E94E006CE010E94D9
:1014B0002407CE010E94EB06A0921A2BB0921B2BA0
:1014C0008E8181FF04C08FEFC816D80691F21C14DC
:1014D0001D0464F40C151D0549F08FEE9BE280930A
:1014E0001A2B90931B2BCC24CA94DC2CC601DF91C1
:1014F000CF911F910F91FF90EF90DF90CF90BF9011
:10150000AF900895CE010E942407CE010E941107DA
:10151000D3CFEF92FF920F931F93CF93DF93CDB76B
:10152000DEB7C051D140CDBFDEBF009799F486E150
:1015300090E080931A2B90931B2B8FEF9FEFC05F4F
:10154000DE4FCDBFDEBFDF91CF911F910F91FF9096
:10155000EF9008959A01AB017C01DC015896ED9162
:10156000FC910284F385E02D8E010B5F1E4F66E037
:1015700070E00995AC01B801C7010E94240A181651
:101580001906ECF641E050E0BE016F5F7F4FC701E6
:101590000E94A5088F3F980791F29C01AE014F5F12
:1015A0005F4FB801C7010E944007C9CF0F931F9337
:1015B000CF93DF93EC018B016091C62A7091C72A0B
:1015C0008091C02A9091C12A0E94FE068091C02A73
:1015D0009091C12A009769F486E190E080931A2BDC
:1015E00090931B2B90E080E0DF91CF911F910F91A2
:1015F0000895A801BE010E94890A9095991F992714
:10160000991F892F90E0F0CFCF92DF92EF92FF9257
:101610000F931F93CF93DF93CDB7DEB7C051D14067
:10162000CDBFDEBF7C016A01DC015896ED91FC91D3
:101630000284F385E02D8E010B5F1E4F21E030E028
:10164000AB0163E070E00995AC01B801C7010E94ED
:10165000240A181619066CF441E050E0BE016F5FD1
:101660007F4FC7010E94A5088F3F980779F48FEF3D
:101670009FEFC05FDE4FCDBFDEBFDF91CF911F91E7
:101680000F91FF90EF90DF90CF9008959C01AE01F5
:101690004F5F5F4FBE016B5F7E4FC7010E944007E7
:1016A0008F3F980721F3D7015896ED91FC91228145
:1016B0003381F60150E040E061E070E06C0F7D1F87
:1016C000260F371F48175907A4F6DA01AA0FBB1FC8
:1016D000A20FB31F12966C91129713967C916727F5
:1016E00076276727619371934F5F5F4FEBCF0F931F
:1016F0001F93CF93DF9300D0CDB7DEB78C016091FD
:10170000C62A7091C72A8091C02A9091C12A0E944E
:10171000FE068091C02A9091C12A009751F486E17B
:1017200090E080931A2B90931B2B6FEF7FEFCB01F0
:101730000CC0AE014F5F5F4FB8010E94040B97FDD4
:10174000F4CF69817A8190E080E00F900F90DF9173
:10175000CF911F910F9108956F927F928F929F92D8
:10176000AF92BF92CF92DF92EF92FF920F931F93AF
:10177000CF93DF93FA018901DC015A966D907C903A
:10178000C12CD12C76013097C1F02081318142816A
:101790005381A8EEB3E00E94B7526B017C016481D3
:1017A00075818681978128EE33E040E050E00E9409
:1017B000FB52C20ED31EE41EF51E0E9475034B01A0
:1017C0005C01F301808D918DDC01ED91FC91008431
:1017D000F185E02D0995EC0180179107BCF40E947A
:1017E0007503681979098A099B096C157D058E05B1
:1017F0009F0560F4F301808D918DDC01ED91FC91EA
:101800000688F789E02D09958111DBCF209741F4F7
:1018100084E790E080931A2B90931B2BCFEFDFEFA0
:10182000CE01DF91CF911F910F91FF90EF90DF904C
:10183000CF90BF90AF909F908F907F906F900895C2
:10184000CF93DF93DC015A96CD91DC91888D998DF1
:10185000DC01ED91FC910084F185E02D0995892B47
:1018600051F0888D998DDC01ED91FC910284F38516
:10187000E02D0995EBCF90E080E0DF91CF910895C6
:10188000DC015A96ED91FC91309759F0808D918D45
:10189000009739F0DC01ED91FC910488F589E02D89
:1018A00009940895FA01DB019C918081981305C089
:1018B00011969C918181981749F08FEE9BE280935D
:1018C0001A2B90931B2B8FEF9FEF08958281882313
:1018D00019F083818111F1CF90E080E00895CA0171
:1018E0000895DC015A96ED91FC91808D918DDC017B
:1018F000ED91FC910288F389E02D0995BC01990FC7
:10190000880B990B089550E040E00C94A508DC0189
:101910005A96ED91FC91808D918DDC01ED91FC91B9
:101920000280F381E02D0995BC0190E080E00895EC
:101930009B0126503109FC0134832583CB01089596
:10194000FC01208130E0322F22278181820F932FEA
:10195000911D0895DC01FB0115968C9115978083EC
:1019600014968C9114978183128213828C918683B2
:1019700012968C91878388E090E008950F931F93CF
:10198000CF93DF93F801EC01AA8DBB8DCD91DC9153
:101990001197CF3FDC07D9F02196CD93DC931197B7
:1019A00011967C91119770837C91718312821382BE
:1019B000DC018C9186836783508741873287238738
:1019C0008CE090E0DF91CF911F910F9108951D92CF
:1019D0001C921197E5CF683F710530F4FC016083DC
:1019E000718390E080E008956F3F7105B9F386E15F
:1019F00090E080931A2B90931B2B8FEF9FEF08950D
:101A000081E00895FC01808D882349F084859585C7
:101A1000DC01ED91FC910190F081E02D099481E0D1
:101A200090E08283938390E080E00895DC011C962F
:101A30008D919C91DC01ED91FC910680F781E02D68
:101A40000994DC011C968D919C91DC01ED91FC9137
:101A50000284F385E02D0994DC011C968D919C9104
:101A6000DC01ED91FC910484F585E02D0994DC0105
:101A70001C968D919C91DC01ED91FC910084F18587
:101A8000E02D0994CF93DF93EC018C859D85DC01DB
:101A9000ED91FC910288F389E02D09958889998957
:101AA00097FD09C070E060E00E94E40270E060E031
:101AB00088890E9411038A899B8997FD0BC070E079
:101AC00060E00E94E40270E060E08A89DF91CF91DB
:101AD0000C941103DF91CF9108958F929F92AF9252
:101AE000BF92CF92DF92EF92FF920F931F93CF930B
:101AF000DF93EC014A015B016901898E9A8EAB8EFE
:101B0000BC8E2D8F3E8F8C899D89009709F08C01AA
:101B10000C8B1D8B8E899F89009709F07C01EE8AC2
:101B2000FF8A8889998997FD09C061E070E00E9469
:101B3000110370E060E088890E94E4028A899B8931
:101B400097FD09C061E070E00E94110361E070E060
:101B50008A890E94E402188E8C859D85DC01ED91B6
:101B6000FC910088F189E02D9601B501A401DF9177
:101B7000CF911F910F91FF90EF90DF90CF90BF908A
:101B8000AF909F908F900994EF92FF920F931F93C5
:101B9000DC01ED91FC910488F589E02DA2E3EA2EA9
:101BA000F12C02E310E009951F910F91FF90EF9047
:101BB0000895EF92FF920F931F93DC01ED91FC913A
:101BC0000488F589E02D7801890123E030E009954A
:101BD0001F910F91FF90EF900895EF92FF920F9356
:101BE0001F93DC01ED91FC910488F589E02D22E33F
:101BF000E22EF12C02E310E023E030E009951F9182
:101C00000F91FF90EF90089561E070E080916C2853
:101C10000C94E40270E060E080916C280C94E40283
:101C2000CF93DF93EC018FA198A5892B41F0E88138
:101C3000F9810284F385E02DCE010995F4CFDF917F
:101C4000CF910895CF93DF931F92CDB7DEB769830D
:101C5000DC01ED91FC910280F381E02D41E050E048
:101C6000BE016F5F7F4F09950F90DF91CF9108956F
:101C7000FC0187A190A50895FC0183A194A108957A
:101C8000DC01ED91FC91048CF58DE02D0994FC01B3
:101C90009485FB018485981303C081E0983009F492
:101CA00080E0089521E0FC018485883009F420E07B
:101CB000822F08950895CF93DF931F92CDB7DEB79B
:101CC0006983DC01ED91FC910280F381E02D41E01C
:101CD00050E0BE016F5F7F4F09950F90DF91CF916C
:101CE0000895DC01ED91FC91068CF78DE02D0995AE
:101CF00091E089270895862F089581E08627089529
:101D000090E080E008950895EF92FF920F931F9363
:101D1000CF93DF937C01EB018B01040F151FC017DC
:101D2000D10759F0D701ED91FC910480F581E02DA8
:101D30006881C70109958993F2CFDF91CF911F91F7
:101D40000F91FF90EF9008950F931F93CF93DF9320
:101D5000EC018B018091C008E881F9810480F58154
:101D6000E02D86FD13C0612FCE010995182FE88163
:101D7000F9810480F581E02D602FCE010995082FAF
:101D8000C801DF91CF911F910F910895CE01099560
:101D9000082FE881F9810480F581E02D612FCE01C3
:101DA0000995182FEDCF8F929F92AF92BF92CF924D
:101DB000DF92EF92FF920F931F93CF93DF93FC017B
:101DC0008085882319F081FF0EC07894DF91CF9130
:101DD0001F910F91FF90EF90DF90CF90BF90AF9049
:101DE0009F908F90089580FFF1CF82849384A48484
:101DF000B584C12CD12C760110E09401A501B60167
:101E0000C701A0E00E94DD5499F1217030E040E06C
:101E100050E060E070E080E090E00E94DD54D9F096
:101E2000D0E0C0E0103370F4C12FC695C695C695BA
:101E300080E2C89FE0011124C05FDB4F812F8770D3
:101E4000C80FD11DCF01810F911DDC0152968C91DD
:101E50009881892B88839401A501B601C70101E00F
:101E60000E94C25449015A016B017C011F5FC5CF1A
:101E700086849784A088B188C12CD12C760110E289
:101E80009401A501B601C701A0E00E94DD5409F448
:101E90009DCF217030E040E050E060E070E080E0F5
:101EA00090E00E94DD54D9F0D0E0C0E0103370F42F
:101EB000C12FC695C695C695B0E2CB9FE00111240F
:101EC000C05FDB4F812F8770C80FD11DCF01810FFD
:101ED000911DDC0152968C919881892B8883940105
:101EE000A501B601C70101E00E94C25449015A018F
:101EF0006B017C011F5FC4CFFC016F3F710581F155
:101F0000808581FD2DC0603271055CF581E090E037
:101F100002C0880F991F6A95E2F780959095092E67
:101F2000000CAA0BBB0B4285538564857585842301
:101F30009523A623B72382879387A487B5878285B5
:101F40009385A485B585892B8A2B8B2B49F48685AF
:101F50009785A089B189892B8A2B8B2B09F4108650
:101F600008956052710981E090E002C0880F991FC6
:101F70006A95E2F780959095092E000CAA0BBB0B91
:101F8000468557856089718984239523A623B723C5
:101F900086879787A08BB18BD2CFFC016F3F7105ED
:101FA000E9F1603371051CF082E080870895808537
:101FB0008160808760327105C4F481E090E002C0E6
:101FC000880F991F6A95E2F7092E000CAA0BBB0B2C
:101FD0004285538564857585842B952BA62BB72B5D
:101FE00082879387A487B58708956052710981E03D
:101FF00090E002C0880F991F6A95E2F7092E000C45
:10200000AA0BBB0B4685578560897189842B952B5C
:10201000A62BB72B86879787A08BB18B0895E0EC12
:10202000F8E020812E7F2083FC0117820895E0ECE8
:10203000F8E082818E7F82830895E0ECF8E082816F
:10204000816082830895CF92DF92EF92FF926B01BD
:102050007C0180910728882309F470C0809133287F
:1020600081116CC020E030E048EC52E460913828E7
:102070007091392880913A2890913B280E94DA513A
:102080000E940B5460932128709322288093232868
:10209000909324288FE390E00E94D60A6091232831
:1020A0007091242880E490E00E94D60A6091342840
:1020B0007091352880913628909137280E941254CB
:1020C0009B01AC01A4E6B0E00E94B75260932128C6
:1020D00070932228809323289093242883E490E00F
:1020E0000E94D60A609123287091242884E490E00D
:1020F0000E94D60A60913428709135288091362844
:10210000909137280E9412549B01AC01AAE0B0E0E4
:102110000E94B7526093212870932228809323282D
:102120009093242886E490E00E94D60A60912328A8
:102130007091242887E490E00E94D60A80910728B5
:1021400081118FC080913328882309F48AC084EFDD
:1021500091E08093212890932228109223281092B6
:10216000242864EF71E083E490E00E94D60A609135
:1021700023287091242884E490E00E94D60A84E603
:1021800090E0809321289093222810922328109287
:10219000242864E670E086E490E00E94D60A60910C
:1021A00023287091242887E490E00E94D60AE894BE
:1021B000F7F820E030E040EA50E460912F28709179
:1021C000302880913128909132280E94DA519B0169
:1021D000AC01C701B6010E9499536B017C0120E05C
:1021E00030E048EC52EC0E94745187FD2CC020E096
:1021F00030E048EC52E4C701B6010E944154181681
:102200004CF120E030E048EC52E4C701B6010E94F6
:10221000DA510E940B5460932128709322288093F6
:102220002328909324288FE390E00E94D60A60919F
:1022300023287091242880E490E0FF90EF90DF90B5
:10224000CF900C94D60AC12CD12C98ECE92E92ECAC
:10225000F92ED7CFC12CD12C88ECE82E82E4F82EB1
:10226000D0CFFF90EF90DF90CF900895CF92DF9284
:10227000EF92FF92CF93DF936B017C01E894F7F824
:1022800080915628C1E0D0E08823C1F1A7019601D2
:102290006091442870914528809146289091472864
:1022A0000E944154C0914228D091432887FF02C028
:1022B000C1E0D0E0A701960160914A2870914B28B7
:1022C00080914C2890914D280E94415487FD04C074
:1022D000C0914828D0914928A701960160915028C3
:1022E0007091512880915228909153280E94415416
:1022F00087FD04C0C0914E28D0914F28A7019601B8
:1023000060913E2870913F2880914028909141280B
:102310000E947451811104C0C0913C28D0913D2885
:10232000CE01DF91CF91FF90EF90DF90CF90089595
:10233000CF92DF92EF92FF9290E080E00E94770BC5
:102340006B0181E090E00E94770B072E000C880B58
:10235000990BCB01772766270D2C000CEE08FF08A0
:102360006C297D298E299F29FF90EF90DF90CF90D7
:10237000089585E998E20E947E05181619062CF446
:1023800085E998E20E94E903F4CF85E998E20E948A
:102390007E05892BD1F3089587EC90E00E94770B9E
:1023A0006093292870932A288BEC90E00C94770B8B
:1023B00085E998E20E947E05181619062CF485E935
:1023C00098E20E94E903F4CF0895DC012CEB34EF8E
:1023D0002D933D9320E1FB01329601900D922A95B9
:1023E000E1F7FB0122893389FC01228B338B0895AD
:1023F000CF92DF92EF92FF920F931F93CF93DF93D1
:10240000CDB7DEB76497CDBFDEBFDC015A96ED9144
:10241000FC91008D118DD8018D919C91DC011E964F
:10242000ED90FC90C280D380BF016C5F7F4FCE01E6
:1024300001960E94E511A601BE016F5F7F4FC801A2
:10244000F701099521E030E0892B11F030E020E020
:1024500088279927821B930B6496CDBFDEBFDF913F
:10246000CF911F910F91FF90EF90DF90CF90089543
:10247000CF93DF93EC01615F7F4F0E94E511CE01A6
:10248000DF91CF910895DC01ED91FC910088F189F5
:10249000E02D23E030E00994EF92FF920F931F9319
:1024A000CF93DF93F090AB2AE090AA2A08E010E0E7
:1024B000C0E0D0E861E070E08F2D0E94E40288E285
:1024C0008E1530F08E2D0E94BF02019709F4CD2B9E
:1024D00070E060E08F2D0E94E402D6950150110952
:1024E00049F78C2FDF91CF911F910F91FF90EF90C3
:1024F0000895FF920F931F93CF93DF938091AA2AA1
:10250000893220F40E94BF020197C1F310E0F894D1
:102510000E944C12D82F0E944C12F82E0E944C128E
:10252000082F8091AC2A803829F0803481F0C2E0F5
:10253000803271F061E070E08091AB2A0E94E40289
:1025400070E060E08091AB2A0E94E4020FC0C3E01B
:1025500061E070E08091AB2A0E94E40270E060E0EC
:102560008091AB2A0E94E402C15091F77894D7FD84
:102570001FEF0E9475036093B52A7093B62A80936B
:10258000B72A9093B82A602F7F2D8D2F912F0E940C
:102590007B51DF91CF911F910F91FF9008952CEB0C
:1025A00034EFFC0120833183128A138A029620E1E2
:1025B000FC0111922A95E9F70895CF93DF93EC017E
:1025C00088819981009711F00E948555188219829F
:1025D0001C821D821A821B82DF91CF910895FC011B
:1025E00080819181009711F00C9485550895CF93C7
:1025F000DF93EC018A8D9B8D0E948555CE01DF9182
:10260000CF910C948555CF93DF93EC0184E294EF46
:10261000888399838C899D89009711F00E94855544
:102620008E899F89009711F00E948555888D998D1C
:10263000009711F00E9485558A8D9B8D009711F0AF
:102640000E9485558A819B81009721F0DF91CF916F
:102650000C94D506DF91CF910895CF93DF93EC01D1
:102660000E940313CE01DF91CF910C948555CF9337
:10267000DF93EC018CE794EF888399838B899C89A5
:10268000009711F00E9485558A819B81009721F067
:10269000DF91CF910C94D506DF91CF910895CF9320
:1026A000DF93EC010E943713CE01DF91CF910C94A0
:1026B000855524E834EFFC01208331830C943713D3
:1026C000CF93DF93EC010E945913CE01DF91CF919C
:1026D0000C94855528E334EFFC01208331830C945E
:1026E0003713CF93DF93EC010E946A13CE01DF9181
:1026F000CF910C9485550C948555FB0101900020D9
:10270000E9F73197AF01461B570BDC01ED91FC91C6
:102710000280F381E02D0994CF93DF93FC01448183
:1027200055816081718185E998E20E948803EC01FE
:102730006EEB74EF85E998E20E947D138C0F9D1F6C
:10274000DF91CF9108956115710511F00C947D13FF
:1027500090E080E00895CF93DF93BC0185E998E293
:102760000E94A313EC016EEB74EF85E998E20E94DE
:102770007D138C0F9D1FDF91CF9108958F929F92B3
:10278000AF92BF92CF92DF92EF92FF92CF93809160
:1027900006288823D1F10E9479126B017C01809177
:1027A0000C288A3009F450C0823309F46DC083309C
:1027B00009F07BC020E030E0A901C7010E94DA5196
:1027C000A70196010E94DA514B015C0122E734E037
:1027D0004DEF56E3C701B6010E94DA519B01AC01EF
:1027E000C501B4010E942D5329EE3EE94EE25BE3A0
:1027F0000E942C539058CF91FF90EF90DF90CF9094
:10280000BF90AF909F908F900895C5E0C12CD12CC0
:1028100076010E9479129B01AC01C701B6010E94AA
:102820002D536B017C016AE070E080E090E00E9433
:102830004503C15071F720E030E040EA50E4C701A1
:10284000B6010E949953A9CF20E030E0A901C70149
:102850000E94DA51A70196010E94DA514B015C01F6
:1028600029E039ED42ED57E3C701B6010E94DA5184
:102870009B01AC01C501B4010E942D5320E030E062
:10288000A9010E942D53B6CF20E030E0A901C70175
:102890000E94DA514B015C01AC019B01C701B601FA
:1028A0000E94DA51A5019401E7CF81EC94EF0E94D8
:1028B000AB1360E070E0CB019DCF8F929F92AF92FF
:1028C000BF92EF92FF920F931F93CF93DF93CDB7F9
:1028D000DEB7A197CDBFDEBF7C01FA01CB0119A203
:1028E000223008F42AE08E010F5D1F4F822E912CBA
:1028F000B12CA12CBF01A50194010E94FB52F9014A
:10290000CA016A30D4F4605DD8016E938D01232B27
:10291000242B252B79F7BD01C7010E94A313A19693
:10292000CDBFDEBFDF91CF911F910F91FF90EF9050
:10293000BF90AF909F908F900895695CE5CFCF9244
:10294000DF92EF92FF92CF93DF936C01990FEE0825
:10295000FF08F7FE23C06DE285E998E20E9481033B
:10296000EC0144275527BA014C195D096E097F090E
:102970002AE085E998E20E945D14C80FD91F6EEB2A
:1029800074EF85E998E20E947D138C0F9D1FDF9103
:10299000CF91FF90EF90DF90CF9008952AE0B7019C
:1029A000A60185E998E20E945D14EC01E8CF2F9220
:1029B0003F924F925F926F927F928F929F92AF92CF
:1029C000BF92CF92DF92EF92FF920F931F93CF931C
:1029D000DF9300D01F92CDB7DEB78A839B834B0174
:1029E000FC0182899389019709F0CEC08F014424AC
:1029F0004A9431E090E08FEF20E042814111B0C075
:102A000043814111ADC09F5F8F3F11F4822F91E050
:102A1000391714F4392F482E32962F5F283069F772
:102A20001A821B82D12CC12CA42C042C000CBB08B4
:102A30003501630E711C37FD7A94CA14DB0424F04F
:102A4000C614D7040CF490C0F8018281682F70E09E
:102A500094E0759567959A95E1F7362E8F70582E0C
:102A60008381E82EF12C24E0F594E7942A95E1F790
:102A70002E2C8F708983662309F4B7C0F9E0F6170E
:102A800008F470C0605DC4010E9481032A813B810B
:102A9000280F391F2A833B8339E060E3351508F49A
:102AA00067E5650DC4010E948103EA81FB81E80F9F
:102AB000F91FEA83FB83311004C0511002C02220A9
:102AC00079F0F9E060E3F21508F467E56E0DC401F2
:102AD0000E9481032A813B81280F391F2A833B836F
:102AE0003981632F605D3A3010F06981695AC40101
:102AF0000E948103EA81FB81E80FF91FEA83FB83CF
:102B0000F7E0CF16D10451F06AE3C4010E948103BB
:102B10002A813B81280F391F2A833B833FEFC31A49
:102B2000D30A0E5F1F4F88E0C816D10409F085CF85
:102B30008A819B812396CDBFDEBFDF91CF911F910C
:102B40000F91FF90EF90DF90CF90BF90AF909F904C
:102B50008F907F906F905F904F903F902F9008954F
:102B60008FEF5ACF695A8FCFAC14BD04B9F641101C
:102B7000CBCF6AE3C4010E948103EA81FB81E80FA5
:102B8000F91FEA83FB83C0CFEA80FB80EEE0EE0E04
:102B9000F11CAA80BB80F1E1AF0EB11C10E000E097
:102BA000F70141917F0150E070E060E02AE0C4014C
:102BB0000E945D146C016EE2C4010E9481038C0DC1
:102BC0009D1D080F191FAE14BF0451F7EA81FB8148
:102BD000418950E070E060E02AE0C4010E945D1489
:102BE000800F911F8A839B83A3CF511055CF67CF4E
:102BF000609321287093222880932328909324287F
:102C000088E090E00E94D60A892B31F462EE74EFDE
:102C100085E998E20C94A3136091232870912428ED
:102C200089E090E00E94D60A892B81F30895BC01C7
:102C30008BE390E00E94D60A892B31F46AE075EFAD
:102C400085E998E20C94A31308954F925F926F92D6
:102C50007F928F929F92AF92BF92CF92DF92EF922C
:102C6000FF926B017C01AC019B010E948C5461E2DC
:102C700075EF81111AC046015701E894B7F82FEF9C
:102C80003FEF4FE75FE7C501B4010E948C5481110B
:102C900026C02FEF3FEF4FE75FE7C501B4010E9469
:102CA00074511816E4F465E275EF85E998E20E9424
:102CB0007D137C016EEB74EF85E998E20E947D1331
:102CC0008E0D9F1DFF90EF90DF90CF90BF90AF9043
:102CD0009F908F907F906F905F904F9008952FEF0F
:102CE0003FEF4FE75FE4C701B6010E944154181659
:102CF0001CF469E275EFD9CF2FEF3FEF4FE75FECA0
:102D0000C701B6010E94745187FDF3CF20E030E087
:102D1000A901C701B6010E947451B12CA12C87FFF3
:102D20000AC06DE285E998E20E9481035C01F7FA2E
:102D3000F094F7F8F0942AE037ED43EA5BE3C7013B
:102D4000B6010E942D532B013C010E9412546B01CD
:102D50007C010E9479519B01AC01C301B2010E9428
:102D60002C532B013C012AE0B701A60185E998E22A
:102D70000E945D147C01EA0CFB1C60EE74EF85E997
:102D800098E20E947D13E80EF91E20E030E040E258
:102D900051E4C301B2010E94DA512B013C010E94AF
:102DA00012544B01B12CA12C2AE0B501A40185E9F4
:102DB00098E20E945D14E80EF91EC501B4010E945C
:102DC00079519B01AC01C301B2010E942C5320E058
:102DD00030E040E251E40E94DA510E941254AB010B
:102DE00070E060E02AE085E998E20E945D14E80E58
:102DF000F91E60CF0F931F93CF93DF93EC0188816F
:102E00009981009759F02A813B812617370730F0C6
:102E100081E0DF91CF911F910F9108958B016F5F3A
:102E20007F4F0E940E56009759F0888399830A833A
:102E30001B832C813D81232B59F7FC011082E8CFA5
:102E400080E0E7CFAF92BF92DF92EF92FF920F93B5
:102E50001F93CF93DF936115710561F4D12C8D2DF4
:102E6000DF91CF911F910F91FF90EF90DF90BF9076
:102E7000AF900895DD24D3944115510581F37A0173
:102E80005B01EC010C811D81040F151FB8010E942C
:102E9000FA16D82E882311F3288139818C819D81DF
:102EA000A701B501820F931F0E94DD560C831D837D
:102EB00088819981080F191FF8011082D0CF611500
:102EC000710551F0FB0101900020E9F73197AF0146
:102ED000461B570B0C94221780E00895CF93DF9385
:102EE000EC010E945F17811103C0CE010E94DD1228
:102EF000CE01DF91CF910895AF92BF92CF92DF9232
:102F0000EF92FF920F931F93CF93DF93CDB7DEB76E
:102F1000AD97CDBFDEBF7C015A016901FB01608125
:102F20007181828193818E010F5F1F4F26E04AE0FD
:102F30000E941F4F66EF77EFC7010E945F17B8012D
:102F4000C7010E945F17A114B104A1F0F5016081CF
:102F5000718182819381015F1F4F26E04AE00E94C8
:102F60001F4F66EF77EFC7010E945F17B801C701D7
:102F70000E945F17C114D104A9F0F601608171812C
:102F8000828193818E01015E1F4F26E04AE00E94FC
:102F90001F4F66EF77EFC7010E945F17B801C701A7
:102FA0000E945F17C7010E948C13AD96CDBFDEBF94
:102FB000DF91CF911F910F91FF90EF90DF90CF9015
:102FC000BF90AF900895EF92FF920F931F93CF930E
:102FD000DF93EC017B018A01BA010E94FA1681118C
:102FE0000BC0CE010E94DD12CE01DF91CF911F9167
:102FF0000F91FF90EF9008950C831D83A801B701F6
:10300000888199810E94DD56E881F9818C819D81BA
:10301000E80FF91F1082E8CFFB01DC011D921C9222
:10302000119712961D921C92139714961D921C9242
:1030300015978617970749F06081718161157105B1
:1030400021F0448155810C94E3170895FC0110820E
:1030500011821282138214821582FB0101900020DA
:10306000E9F73197AF01461B570B0C94E3170F9309
:103070001F93CF93DF931F92CDB7DEB78C0160EC27
:1030800074EF0E9426180E94FD0397FD0AC08983F1
:1030900041E050E0BE016F5F7F4FC8010E942217E0
:1030A000F2CFC8010F90DF91CF911F910F9108953A
:1030B0002F923F924F925F926F927F928F929F9248
:1030C000AF92BF92CF92DF92EF92FF920F931F9336
:1030D000CF93DF93CDB7DEB7A097CDBFDEBF2B0177
:1030E0003C011A010D8B1E8B2F8B388F6DE275EF13
:1030F000CE0107960E9426180E947503698F7A8F69
:103100008B8F9C8F10E000E084E6882E912CA12C00
:10311000B12C021513050CF070C00E9475036D8F61
:103120007E8F8F8F98A30E94BE1320912528309107
:10313000262840912728509128280E942C536D87DB
:103140007E878F87988B0E9475036B017C016419C1
:103150007509860997090E947951698B7A8B8B8B47
:103160009C8B85E395EF0E94AB13B701A6018D8D73
:103170009E8DAF8DB8A1481B590B6A0B7B0B2AE0C3
:1031800085E998E20E945D146EEB74EF85E998E2A0
:103190000E947D130E947503298D3A8D4B8D5C8DA5
:1031A000621B730B840B950BA50194010E94FB52CB
:1031B000A5019401261B370B480B590BCA01B90115
:1031C0000E944503BE01695F7F4FCE0101960E94B8
:1031D0000C189E012F5E3F4FAE01435F5F4FBE0153
:1031E0006B5E7F4FCE0101960E947C17CE01019647
:1031F0000E94EF120F5F1F4F8CCFCE0107960E94E7
:10320000EF12A096CDBFDEBFDF91CF911F910F913E
:10321000FF90EF90DF90CF90BF90AF909F908F90F6
:103220007F906F905F904F903F902F900895FC019A
:10323000DB0152962D913C91828993892817390799
:1032400061F4CB01BF016E5F7F4F40E150E0029619
:103250000E94D05621E0892B09F020E0822F0895AA
:103260000E94CB56BF92CF92DF92EF92FF920F93C4
:103270001F93CF93DF93CDB7DEB7EC84FD84CE846C
:10328000DF84B8880A891B89D70114968D919C9197
:10329000892B59F0AE01485E5F4F6E897F8980911E
:1032A000202B9091212B0E94EF568C899D89892B90
:1032B00031F0C7010E942407C7010E941107F601DF
:1032C0008281938180589F4F82839383D701589640
:1032D000ED91FC910484F585E02DB801C6010995B6
:1032E000F801E80FF91FB0820196DF91CF911F918D
:1032F0000F91FF90EF90DF90CF90BF9008952F92A5
:103300003F924F925F926F927F928F929F92AF9275
:10331000BF92CF92DF92EF92FF920F931F93CF93C2
:10332000DF93CDB7DEB7C851D240CDBFDEBFFC01C1
:10333000A281B381109749F486E190E080931A2B23
:1033400090931B2B90E080E007C45C017E01FBEFB3
:10335000EF1AFEEFFF0A5896ED91FC9159970488F9
:10336000F589E02DB701CD0109951816190654F716
:10337000D50112962D903C90C55FDD4F88839983CF
:10338000CB50D24086E190E02114310409F4DEC331
:10339000D1015896ED91FC91C280D380A4E0B1E0B8
:1033A000AC0FBD1FAC0DBD1D8C91282F30E0CD5E44
:1033B000DD4F28833983C351D240A7014C0D5D1DD9
:1033C000C15FDD4F48835983CF50D240DA019C90D2
:1033D000092D10E0A6E0B1E0AC0FBD1FAC0DBD1D86
:1033E0006C90712C762C6624A7E0B1E0AC0FBD1F69
:1033F000AC0DBD1D8C91680E711C2E01BBEF4B1ADC
:10340000BDEF5B0AD2012D933C93119712960D9359
:103410001C9313970684F785E02DBE01655F7D4FF1
:10342000C7010995F20184839583EFEFE90DE73138
:1034300008F05EC5F0E0E15EF54E0C94BA54361A21
:10344000361A131B131BA41BFC1BA41D781F781F0B
:10345000781F781F781F781F781F311CF51C731D8B
:10346000781F781F781F781FC31D0F1E02301105AB
:1034700009F049C0D5011A964D915C911B97189699
:103480002D913C9119975696AD90BC908DE495EF97
:10349000E8E0F1E0EC0FFD1FEC0DFD1DE080F12CEC
:1034A000FE2CEE24E9E0F1E0EC0FFD1FEC0DFD1D1C
:1034B0006081E60EF11CB70161507109603D7740F3
:1034C00060F127E02F9320ED2F939F938F93FF922E
:1034D000EF9281E895EF9F938F931F9281E08F93F6
:1034E00021E030E02C0F3D1F3F932F931F9283E08C
:1034F0008F935F924F923F922F920E9432198C01CC
:10350000CDBFDEBF66C0F50146815781248135817C
:10351000A488B58883E495EFBBCF6301C41AD50AAC
:10352000D7FC08C047018C0C9D1C28153905ACF44C
:103530006E0C7F1C9F938F937F926F9289EA95EF19
:103540009F938F931F921F9261E070E06C0F7D1F1D
:103550007F936F931F9282E0C0C1D1015896ED9185
:10356000FC910484F585E02DBE016F5F7F4FC201A1
:1035700009958C010F5F1F4FE1E0F0E0EC0FFD1F9C
:103580008E0F9F1F21E0A70147705527452B09F497
:1035900020E0F3E0F594E794FA95E1F7E20EDC0120
:1035A000EC92F501EC0DFD1D30E020E090E080E0B4
:1035B000AF014A195B0948155905E4F0892B49F018
:1035C000E1E0F0E0EC0FFD1FE00FF11F20830F5F43
:1035D0001F4FCD5EDD4F28813981C351D240232B4F
:1035E00009F4B8C2A801BE016F5F7F4FC1010E94FC
:1035F000240AB0C2419150E0082E02C0440F551F6A
:103600000A94E2F7242B352B8730910551F4A1E081
:10361000B0E0AC0FBD1FA00FB11F2C930F5F1F4F69
:10362000C3CF0196C5CF04301105B1F5F50146852C
:10363000578524853585808C918C8DE595EFE8E064
:10364000F1E0EC0FFD1FEC0DFD1D008110E0102FCF
:103650000027E9E0F1E0EC0FFD1FEC0DFD1D60819E
:10366000060F111DB80161507109FE0131966F01FD
:103670006D37710500F11F922DE72F939F938F9364
:103680001F930F9381E895EF9F938F931F9281E093
:103690008F93FF93EF932ACFD50152964D915C9172
:1036A000539750962D913C9151975A968D909C909E
:1036B00082E795EFC4CF7301E41AF50A5701F7FCCE
:1036C00007C0E00EF11E2E153F057CF4600E711E42
:1036D0009F938F937F926F9289EA95EF9F938F9339
:1036E0001F921F92DF92CF9235CFD1015896ED9164
:1036F000FC910484F585E02DB601C2010995F6011F
:10370000E80FF91F000F00839501220F331F820E6F
:10371000931E0196F601E80FF91F8F010C191D0980
:10372000AE14BF040CF055CFD40111968C91B2E0C9
:103730008B0E911C8083D40112978C9181832FEF83
:10374000A21AB20A3296E9CFD50116968D919C91B4
:103750001797A301481B590BCE01019657FD06C0D0
:1037600014962D913C91421753074CF07F926F9223
:103770002BEC35EF3F932F931F921F92B1C1E8E0DE
:10378000F1E0EC0FFD1FEC0DFD1D208130E0322F2C
:103790002227E9E0F1E0EC0FFD1FEC0DFD1D60813B
:1037A000260F311D2115FFEF3F0719F021153105B7
:1037B000B1F4D5015496ED91FC91E40FF51F41E071
:1037C000232B09F440E04083C55FDD4F0881198158
:1037D000CB50D240A801B7010E94DD56FACE7F92AD
:1037E0006F923F932F9324EF35EF3F932F931F92C8
:1037F0001F929F938F936FC0D50152968D919C918C
:1038000053979301281B390BCE01019637FD07C052
:1038100050964D915C915197241735072CF07F926B
:103820006F9222E336EFA6CF220F331F5A96ED9107
:10383000FC91E20FF31FA8E0B1E0AC0FBD1FAC0D8F
:10384000BD1D2C9130E0322F2227A9E0B1E0AC0F52
:10385000BD1FAC0DBD1D4C91240F311D2083318344
:10386000B3CFE8E0F1E0EC0FFD1FEC0DFD1D808112
:1038700090E0982F8827E9E0F1E0EC0FFD1FEC0DB8
:10388000FD1D2081820F911D9C0121503109203B9B
:10389000374070F4EAE0F1E0EC0FFD1FEC0DFD1D88
:1038A0002081E8E02E9F9001112428173907ECF4BD
:1038B00027E02F9320EB2F939F938F9380E696EF33
:1038C0009F938F931F9281E08F9321E030E02C0F24
:1038D0003D1F3F932F931F9283E08F935F924F92F0
:1038E0003F922F920E9432190ACED50116962D9141
:1038F0003C911797F301E21BF30B9F01F7FD0CC0FE
:10390000BC016E0F7F1F14964D915C911597461761
:103910005707D4F4680E791E7F926F9284E996EF70
:103920009F938F931F921F9221E030E02C0F3D1F39
:103930003F932F931F9282E08F935F924F923F921B
:103940002F920E943219DBCD56E0C50ED11C549641
:103950000D911C91200F311FF90150E040E081E0F2
:1039600090E08C0F9D1FC80ED91ECF01801B910BBC
:1039700086179707F0F0D1015896ED91FC910484D9
:10398000F585E02DBE016F5F7F4FC2010995A1E073
:10399000B0E0AC0FBD1FA80FB91FF701E80FF91F6A
:1039A00024E001900D922A95E1F78C010C5F1F4FE6
:1039B00010CECF01821B930BA3E096958795AA9515
:1039C000E1F78C0D9D1D8C5F9E4FDC018C9190E08A
:1039D000042E02C0959587950A94E2F78170819331
:1039E0004F5F5F4F47705527C0CFE8E0F1E0EC0F25
:1039F000FD1FEC0DFD1D208130E0322F2227E9E074
:103A0000F1E0EC0FFD1FEC0DFD1D8081280F311D35
:103A1000C90101978B37910570F4EAE0F1E0EC0FF2
:103A2000FD1FEC0DFD1D8081B8E08B9FC0011124AE
:103A3000821793077CF41F928BE78F933F932F930A
:103A40008EEB96EF9F938F931F9281E08F93CE0121
:103A50000196CFCED50152968D919C915397F3014B
:103A6000E81BF90BCF01F7FD31C0A9014E0F5F1F15
:103A700050966D917C916417750734F1C15FDD4FED
:103A8000E881F981CF50D2409C01220F331F2E19BB
:103A90003F092C193D09841795070CF06CCFD5010F
:103AA0005A966D917C91DB01A20FB31FAE0FBF1F21
:103AB000668170E0762F66271781610F711D6D9307
:103AC0007C9301963296E7CF620E731E7F926F92BF
:103AD00087EF96EF9F938F931F921F92CE010196CF
:103AE0009F938F9327CFD1015896ED91FC91048439
:103AF000F585E02DBE016F5F7F4FC2010995FE0184
:103B0000E80FF91F24EB2283FE01E80FF91F2FEFC6
:103B10002383DC011396E1E0F0E0EC0FFD1FAE0F14
:103B2000BF1F28E0E6E2F7EF01900D922A95E1F73A
:103B30008C01055F1F4FE1E0F0E0EC0FFD1FE80F87
:103B4000F91F8AE0808345CD8DE690E080931A2BA3
:103B500090931B2B81E090E0C85EDD4FCDBFDEBFB0
:103B6000DF91CF911F910F91FF90EF90DF90CF9059
:103B7000BF90AF909F908F907F906F905F904F908D
:103B80003F902F900895D50152968D919C91539717
:103B9000F301E81BF90BCE010196F7FD40CE5096DC
:103BA0002D913C915197E217F3070CF038CEEE0FB0
:103BB000FF1F5A962D913C91E20FF31FAAE0B1E04E
:103BC000AC0FBD1FAC0DBD1D2C9130E0322F222754
:103BD000ABE0B1E0AC0FBD1FAC0DBD1D4C91240F8F
:103BE000311DA8E0B1E0AC0FBD1FAC0DBD1D4C9167
:103BF000642F70E0762F6627A9E0B1E0AC0FBD1FFF
:103C0000AC0DBD1D4C91460F572F511D6081718128
:103C10006227732746235723242735271FCEE8E042
:103C2000F1E0EC0FFD1FEC0DFD1D808190E0982F61
:103C30008827E9E0F1E0EC0FFD1FEC0DFD1D208170
:103C4000FC01E20FF11DC35FDD4FE883F983CD5026
:103C5000D240ECE0F1E0EC0FFD1FEC0DFD1D80818A
:103C600090E0982F8827EDE0F1E0EC0FFD1FEC0DC0
:103C7000FD1D2081820F911D9C0121503109DE0123
:103C8000119629373105C0F4C35FDD4F2881398192
:103C9000CD50D240215031092D37310568F4EEE086
:103CA000F1E0EC0FFD1FEC0DFD1D40819C01220F8A
:103CB000331F4217130639F11F922DE72F931F92DE
:103CC00029E72F93C25FDD4FF881CE50D240FF939A
:103CD000C35FDD4F2881CD50D2402F939F938F93A8
:103CE0008FE297EF9F938F931F9281E08F93BF9303
:103CF000AF931F9283E08F935F924F923F922F92E8
:103D00000E943219FCCBEAE0F1E0EC0FFD1FEC0D54
:103D1000FD1D208130E0322F2227EBE0F1E0EC0F97
:103D2000FD1FEC0DFD1D4081240F311DF501428961
:103D300053898301041B150BCF5EDD4F0883198364
:103D4000C151D240B901641B750BAB014B0117FD8A
:103D5000DFC0C35FDD4FE881F981CD50D240E00F75
:103D6000F11FCB5EDD4FE883F983C551D240F501E9
:103D700060897189CB5EDD4FE881F981C551D24000
:103D80006E177F07FCF057FD1FC0AC01480D591D91
:103D9000C95EDD4F48835983C751D2406417750708
:103DA000E4F4280F391F17FF0FC03F932F937F9222
:103DB0006F928BE797EF9F938F931F921F92BF9302
:103DC000AF93C8CB57FFEDCFC35FDD4F68817981DB
:103DD000CD50D240660E771EE8CFF101808D918DD7
:103DE000FC01248535857D01BD01CE018B5F9D4F92
:103DF000F9010995F701E80FF91FC35FDD4F28812D
:103E0000CD50D240220F2083C15FDD4FE881F98180
:103E1000CF50D240AE014B5F5E4F9401220F331F53
:103E2000241B350B2C193D09C95EDD4F4881598192
:103E3000C751D240841695060CF443C0F701E80F31
:103E4000F91F9801220F331F2E193F09B901681B72
:103E5000790BCB0141E050E04E195F098A010E0F4A
:103E60001F1FCB5EDD4F68817981C551D240CF5E87
:103E7000DD4FA881B981C151D240A617B7070CF018
:103E8000A8CBBC016E0F7F1FD5015A962D913C9196
:103E9000DB01A20FB31F11962C91119721832C9156
:103EA0002283CF5EDD4F28813981C151D2402F5FFF
:103EB0003F4FCF5EDD4F28833983C151D2403296C8
:103EC000CDCFD5015A964D915C91DA01A20FB31F67
:103ED000AE0FBF1F428550E0542F44276385460F25
:103EE000511D4D935C93BFEF8B1A9B0A32969CCF6A
:103EF0001F929F928CEC97EF9F938F931F9281E07C
:103F00008F939E012F5F3F4F3F932F931F9214CDAE
:103F100077FF47CF4ACFCF92DF92EF92FF920F9376
:103F20001F93CF93DF936C018B017A018CE190E0BA
:103F30000E94E954EC018FEF9FEF8A839B831C82E0
:103F40001D821E821F82188619861A861B8680E2B1
:103F500091EAA7E0B0E08C879D87AE87BF87188A7B
:103F6000198A1A8A1B8A8C8B9D8BAE8BBF8B8FEF25
:103F700090E0888399838CE393EF888F998F8AE10F
:103F800090E00E94E9548A8F9B8FFC01C08ED18EF5
:103F900020E1F8013296DC01169601900D922A95E7
:103FA000E1F7F80122893389FC01268B378BE28205
:103FB000F38210821182CE01DF91CF911F910F9178
:103FC000FF90EF90DF90CF900895CF92DF92EF9225
:103FD000FF920F931F93CF93DF93CDB7DEB7649714
:103FE000CDBFDEBFBC01CE0101960E94E51146EFB8
:103FF00051E0BE016F5F7F4F8091DB2A9091DC2AF8
:104000000E948B1F8C018091D12A9091D22A009717
:1040100031F00E9485551092D12A1092D22A8091B7
:10402000C02A9091C12A009741F00E94E006809139
:10403000C02A9091C12A0E94D5060093C02A1093ED
:10404000C12A8FEF90E08093C62A9093C72A01156A
:10405000110581F0C8010E94EB060091C02A109161
:10406000C12A892B51F0C8010E94D5061092C02A9E
:104070001092C12A90E080E01DC01092C82A1092D0
:10408000D32A1092D42A1092D52A1092D62A1092AE
:10409000D72A1092D82A1092D92A1092DA2A01151A
:1040A0001105A1F486E190E080931A2B90931B2BCD
:1040B00081E090E06496CDBFDEBFDF91CF911F918C
:1040C0000F91FF90EF90DF90CF90089584E090E003
:1040D000F801868397836091C22A7091C32A8091E8
:1040E000C42A9091C52A28EE33E040E050E00E94B7
:1040F000FB5269017A019B01AC01A8EEB3E00E947A
:10410000B752C114D104E104F10429F46115710519
:104110008105910539F2F801C086D186E286F386E1
:104120006487758786879787C3CFCF92DF92EF9298
:10413000FF920F931F93CF93DF93CDB7DEB7A09776
:10414000CDBFDEBF61EF77EFCE014B960E94261800
:104150000E9475030E94795160931B2870931C285C
:1041600080931D2890931E288091DB2A9091DC2A51
:10417000DC01ED91FC910688F789E02D099581110C
:1041800015C088EF97EF0E94AB1362E87AE2CE0188
:1041900001960E94E511CE0101960E94E51F892B30
:1041A00009F047C083E298EF0E94AB130E947503A9
:1041B0000E94795120911B2830911C2840911D2884
:1041C00050911E280E942C536B017C01BE01655E3C
:1041D0007F4FCE0145960E940C188E010F5F1F4F36
:1041E00022E044E0C701B6010E941F4FBC01CE018E
:1041F00045960E945F17811104C0CE0145960E942A
:10420000DD12CE0145960E948C13CE0145960E9488
:10421000EF12CE014B960E94EF12A096CDBFDEBFEB
:10422000DF91CF911F910F91FF90EF90DF90CF9092
:1042300008958AE498EFB8CFCF92DF92EF92FF9281
:104240000F93FC01C12CB9E0DB2EBDE3EB2EF12C6A
:10425000C082D182E282F3821482158281E090E0F2
:1042600086839783C0900228D0900328E09004288A
:10427000F0900528F694E794D794C79490E04C15F5
:104280005D056E057F0540F4F694E794D794C794D6
:104290009F5F9630A1F797E004600187892F809592
:1042A000A82FA170B0E084E0AA0FBB1F8A95E1F7A8
:1042B00091629A2B80E0232B09F480E4982B90875D
:1042C0000F91FF90EF90DF90CF9008950F931F9381
:1042D000CF93DF93CDB7DEB72A97CDBFDEBF8C017A
:1042E000FC01878181110CC010861186128613860D
:1042F0001486158616861786108A118A81E08783B0
:104300008091E305F8019681892B8093E30561E0B4
:1043100070E083810E94110361E070E0F801848104
:104320000E9411038091C10884608093C10880912C
:10433000C00881628093C00840916D2A50916E2A16
:1043400060916F2A7091702A0091712A2091732ACE
:104350003091742ACE0101960E941C2199858A858C
:104360009093C0088093C1082A96CDBFDEBFDF912D
:10437000CF911F910F9108955F926F927F928F92CC
:104380009F92AF92BF92CF92DF92EF92FF920F93E4
:104390001F93CF93DF93CDB7DEB76297CDBFDEBF5C
:1043A0003C010B871C872D873E87042F4F87588B36
:1043B000698B7A8B29893A894B855C856D857E85E9
:1043C000CE0101960E941C2159841A85D3011896AA
:1043D0008C91882319F081FF18C0F8945092C0087E
:1043E0001093C1086296CDBFDEBFDF91CF911F91C0
:1043F0000F91FF90EF90DF90CF90BF90AF909F9084
:104400008F907F906F905F90089580FFE7CFF301CA
:1044100082849384A484B584C12CD12C7601B0E02D
:104420009401A501B601C701A0E00E94DD54A9F1E5
:10443000217030E040E050E060E070E080E090E02B
:104440000E94DD54E9F090E080E0B03370F48B2FEF
:10445000869586958695F0E28F9FC0011124805F36
:104460009B4F2B2F2770820F911DFC0140819301E0
:104470002B0F311DF901428BFC012081287F208305
:104480009401A501B601C70101E00E94C25449018F
:104490005A016B017C01BF5FC3CFD3011E968D9083
:1044A0009D90AD90BC905197C12CD12C7601B0E27B
:1044B0009401A501B601C701A0E00E94DD5409F4F2
:1044C0008DCF217030E040E050E060E070E080E0AF
:1044D00090E00E94DD54E9F090E080E0B03370F4A9
:1044E0008B2F869586958695E0E28E9FC0011124DC
:1044F000805F9B4F2B2F2770820F911DFC01408105
:1045000093012B0F311DF901428BFC012081287F83
:1045100020839401A501B601C70101E00E94C254A5
:1045200049015A016B017C01BF5FC2CFBF92CF929C
:10453000DF92EF92FF920F931F93CF93DF93D82FC9
:10454000B92EC62F6A0179010091EA291091EB2951
:104550002091EC293091ED294091EE295091EF29DD
:104560006091F0297091F1298BE29AE20E94BC21BE
:104570000E940A0E8B2D0E9412028D2F0E941202A1
:104580008C2F0E941202E60186010E0D1F1D80E095
:104590000E94120289930C171D07C9F70E94040E8E
:1045A0008BE29AE20E94D30EC701DF91CF911F9157
:1045B0000F91FF90EF90DF90CF90BF900895AB01E7
:1045C000FC0184858295880F807E68E0680F26E074
:1045D00030E086E090E00C949622AB01FC018485EB
:1045E0008295880F807E68E0680F26E030E086E0E4
:1045F00090E00C949622AB01FC0184858295880F93
:10460000807E68E0680F24E030E08CE090E00C945D
:104610009622AB01FC0184858295880F807E68E03C
:10462000680F24E030E08CE090E00C9496220F9329
:104630001F93CF93DF93D82FC62F0091EA291091B3
:10464000EB292091EC293091ED294091EE295091F0
:10465000EF296091F0297091F1298BE29AE20E9492
:10466000BC210E940A0E80E00E9412028D2F0E943F
:1046700012028C2F0E94120280E00E941202C82FA8
:104680000E94040E8BE29AE20E94D30E8C2FDF91DF
:10469000CF911F910F9108959B018295880F807E85
:1046A00068E0680FC9010C9417231F93CF93DF9321
:1046B000182F66E270E00E944C23C82FD0E0DC2F58
:1046C000CC2767E270E0812F0E944C238C0F9D2F36
:1046D000911DDF91CF911F910895FF920F931F932A
:1046E000CF93DF93F82E10E000E08F2D0E9455232A
:1046F000EC01892B21F08F2D0E9455238C01C017CE
:10470000D10799F7CE01DF91CF911F910F91FF90C3
:104710000895FC018485883011F00C946D2390E09D
:1047200080E008951F93CF93DF93182F60E270E02D
:104730000E944C23C82FD0E0DC2FCC2761E270E030
:10474000812F0E944C238C0F9D2F911DDF91CF91C3
:104750001F910895FF920F931F93CF93DF93F82E2D
:1047600010E000E08F2D0E949223EC01892B21F0B4
:104770008F2D0E9492238C01C017D10799F7CE018B
:10478000DF91CF911F910F91FF900895FC018485D7
:10479000883021F063E070E00C944C2380E00895B1
:1047A000CF93DF93FC0124852830D9F0EC010E94DF
:1047B000C623843189F0882379F0883169F021E0BB
:1047C0008C3159F4E881F9810084F185E02DCE0126
:1047D000099521E0892B09F420E0822FDF91CF9108
:1047E000089580E0FBCF70E060E00C944C23FC0166
:1047F00084850E94F323829581700895FC0184854D
:104800000E94F32386FB882780F90895FC018485A4
:104810000C94F323FC0184850E94F32385FB8827F5
:1048200080F90895FC0184850C94F323BF92CF9204
:10483000DF92EF92FF920F931F93CF93DF93D82FC6
:10484000B92EC62F6A0179010091EA291091EB294E
:104850002091EC293091ED294091EE295091EF29DA
:104860006091F0297091F1298BE29AE20E94BC21BB
:104870000E940A0E8B2D0E9412028D2F0E9412029E
:104880008C2F0E941202E60186010E0D1F1DC0171B
:10489000D10721F089910E941202F9CF0E94040EE3
:1048A0008BE29AE20E94D30EC701DF91CF911F9154
:1048B0000F91FF90EF90DF90CF90BF900895AB01E4
:1048C0008295880F807E6CE0680F24E030E08CE0F9
:1048D00090E00C941624FF920F931F93CF93DF93D5
:1048E000F82ED62FC42F0091EA291091EB292091A0
:1048F000EC293091ED294091EE295091EF296091FA
:10490000F0297091F1298BE29AE20E94BC210E9469
:104910000A0E80E00E9412028F2D0E9412028D2F3B
:104920000E9412028C2F0E9412020E94040E8BE23F
:104930009AE20E94D30E81E0DF91CF911F910F91F7
:10494000FF900895EF92FF921F93CF93DF93CDB71F
:10495000DEB7C05FD109CDBFDEBF7C018CEB94EF29
:10496000C352DF4F88839983CD5DD040C151DF4F63
:1049700018821982CF5ED040EDEDF0E0EC0FFD1F04
:1049800032968CE0DF011D928A95E9F78FEFC551D1
:10499000DF4F8883CB5ED040C451DF4F8883CC5E2D
:1049A000D040C351DF4F8883CD5ED040C251DF4F2E
:1049B0001882CE5ED040BE0163527F4FCE018B5431
:1049C0009F4F0E94E511B701CE0187539F4F0E9470
:1049D000E511BE0167537F4FCE018F559F4F0E9457
:1049E000E511CD54DF4F88819981C35BD040E1EA66
:1049F000F0E0EC0FFD1F892B09F4D2C0359681E061
:104A00008083BE016F557F4FCE0183579F4F0E9419
:104A1000E511BE016B547F4FCE0187589F4F0E9416
:104A2000E511BE0167537F4FCE018B599F4F0E9406
:104A3000E511BE016B597F4FCE018F5A9F4F0E94E7
:104A4000E511A5968EAD9FADA597E1E5F0E0EC0FE1
:104A5000FD1F892B09F4A6C0359681E08083BE0135
:104A60006F5A7F4FCE01CD960E94E511BE0163576C
:104A70007F4FCE0189960E94E511BE0167587F4F96
:104A8000CE0145960E94E511BE016B597F4FCE01C4
:104A900001960E94E511F090292A1091282AF0929F
:104AA0006C2868EE73E080E090E00E94450361E0CE
:104AB00070E08F2D0E9411038BE29AE20E94662122
:104AC000113009F071C01CE240E0612F8EE190E0EE
:104AD0000E946B2440E0612F8FE190E00E946B24E4
:104AE000105E1C3089F740E16CE08EE190E00E949E
:104AF0006B2440E16CE08FE190E00E946B2426E0A3
:104B000030E04DE058E264E089E090E00E94162435
:104B10008B899C89AE01892B09F4A7C04D5F5F4F3B
:104B200024E030E064E08FE090E00E9416248BAD3A
:104B30009CADAE01892B09F49BC0455D5F4F24E01D
:104B400030E064E081E090E00E9416248FA198A5F7
:104B5000AE01892B09F48FC0495E5F4F24E030E03D
:104B600064E085E090E00E94162480E1FE01FF965B
:104B7000A4EFB9E201900D928A95E1F761968EADAE
:104B80009FAD61978093042A9093052AC051DF4F0F
:104B9000CDBFDEBFDF91CF911F91FF90EF900895C1
:104BA00071962DCF719659CF123029F51CE440E053
:104BB000612F8EE190E00E946B2440E0612F8FE135
:104BC00090E00E946B24105E1C3089F748E06CE096
:104BD0008EE190E00E946B2448E06CE08FE190E071
:104BE0000E946B2448E06CE28EE190E00E946B240E
:104BF00048E06CE280CF143001F51CE840E0612F02
:104C00008EE190E00E946B2440E0612F8FE190E004
:104C10000E946B24105E1C3089F744E0612F8EE106
:104C200090E00E946B2444E0612F8FE190E00E94AD
:104C30006B24105E1C3889F762CF1CE088E0E82EF8
:104C4000F12C42E0612F8EE190E00E946B2442E063
:104C5000612F8FE190E00E946B24B1E0EB1AF10824
:104C6000105EE114F10469F74ACF415F5F4F58CFFE
:104C7000495C5F4F64CF4D5D5F4F70CF9B01829564
:104C8000880F807E6CE0680FC9010C946B24BF9282
:104C9000CF92DF92EF92FF920F931F93CF93DF9308
:104CA000B82E6B017A01890164E270E00E944C2306
:104CB000C82F65E270E08B2D0E944C23D0E0DC2FE2
:104CC000CC278C0D9D2D911DC80FD91F6B2D629582
:104CD000660F607E6C5E9801A701CE010E941624CB
:104CE000C00FD11F4D2F64E270E08B2D0E943E2635
:104CF0004C2F65E270E08B2DDF91CF911F910F91CA
:104D0000FF90EF90DF90CF90BF900C943E26AF9233
:104D1000BF92CF92DF92FF920F931F93CF93DF93B7
:104D20008C015B01EA01FC01C5A0D6A0F4848F2DA3
:104D30000E94AA238C179D0720F48F2D0E94AA237E
:104D4000EC019E01A501B6018F2D0E944726F801B6
:104D500085A196A18C0F9D1F85A396A3CE01DF91FF
:104D6000CF911F910F91FF90DF90CF90BF90AF90A8
:104D70000895CF93C82F462F61E070E00E943E2631
:104D800061E070E08C2F0E944C238111F9CFCF910C
:104D90000895CF92DF92EF92FF920F931F93CF93DC
:104DA000DF93D82E7B018A01C22E68E270E00E9458
:104DB0004C23C82FD0E0DC2FCC2769E270E08D2D8A
:104DC0000E944C23C80FD11D6D2D6295660F607E29
:104DD000685E9801A701CE010E949622C11016C0FC
:104DE000C00FD11F4D2F68E270E08D2D0E943E262E
:104DF0004C2F69E270E08D2DDF91CF911F910F91C3
:104E0000FF90EF90DF90CF900C943E26DF91CF91F2
:104E10001F910F91FF90EF90DF90CF900895CF9268
:104E2000DF92EF92FF921F93CF93DF93182F6B01C6
:104E30007A010E946D23EC010097D9F463E070E0E1
:104E4000812F0E944C23843159F0882349F0C1E01E
:104E5000D0E08C3111F4D0E0C0E0D195C195D109FA
:104E6000CE01DF91CF911F91FF90EF90DF90CF9017
:104E70000895E816F9060CF4E7011C161D0684F7E0
:104E800020E0AE01B601812F0E94C92660E470E0E7
:104E9000812F0E94B926E4CFCF93DF93FC0127A195
:104EA00030A52115310529F48FEF9FEFDF91CF91C8
:104EB0000895EC0184854217530708F0A9010E9468
:104EC0000F271816190684F72FA138A5281B390BB0
:104ED0002FA338A7EBCF0F931F93CF93DF931F928E
:104EE000CDB7DEB7FC0127A130A5232B41F48FEF0E
:104EF0009FEF0F90DF91CF911F910F9108958C013B
:104F000041E050E0BE016F5F7F4FFC0184850E944D
:104F10000F27181619065CF7F80187A190A50197CD
:104F200087A390A7898190E0E4CF0F931F93CF933D
:104F3000DF93CDB7DEB72897CDBFDEBF8C01DC0194
:104F4000ED91FC910680F781E02D0995F8018485AB
:104F50000E946D23892BE1F148E050E0BE016F5FB4
:104F60007F4FD8011C968C910E940F2718161906A6
:104F70003CF5F80111A212A271968CE0DF011D929E
:104F80008A95E9F7D8015D9684E0FE01319601909B
:104F90000D928A95E1F78D8190E0982F88272E81D8
:104FA000820F911DF80183A394A38F81282F30E0F5
:104FB000322F22278885820F932F911D87A390A7D8
:104FC0002896CDBFDEBFDF91CF911F910F9108953D
:104FD00090E080E0F5CFFC0184850C940F27CF93FF
:104FE000DF931F92CDB7DEB741E050E0BE016F5FA7
:104FF0007F4FFC0184850E940F271816190634F490
:10500000898190E00F90DF91CF9108958FEF9FEF0E
:10501000F9CF0F931F93CF93DF931F92CDB7DEB7D6
:105020008C01DC01ED91FC910084F185E02D099566
:10503000892B91F021E041E050E0BE016F5F7F4F8E
:10504000F80184850E94C926898190E00F90DF9144
:10505000CF911F910F9108958FEF9FEFF7CFCF93CF
:10506000DF931F92CDB7DEB7FC0127A130A58FEFEC
:105070009FEF232B59F021E041E050E0BE016F5F2C
:105080007F4F84850E94C926898190E00F90DF912F
:10509000CF910895CF93C82F60E170E00E94B926A8
:1050A0004FEF62E070E08C2FCF910C943E26FF9280
:1050B0000F931F93CF93DF93C82FD62F8A01F22E21
:1050C0000E944A284D2F4F2970E060E08C2F0E94EB
:1050D0003E2601151105C1F0412F64E070E08C2FD0
:1050E0000E943E26402F65E070E08C2F0E943E26F5
:1050F00061E070E08C2F0E94B92681E0DF91CF91B2
:105100001F910F91FF90089500911F281091202862
:105110000F5F1F4F00931F2810932028DDCFEF92C1
:10512000FF921F93CF93DF93FC012485283039F041
:1051300080E0DF91CF911F91FF90EF9008957B0168
:10514000EC0110E063E070E0812F0E944C2381119C
:105150000FC01C878C85883059F3ED86FE861FA210
:1051600018A620E0A70162E00E94572881E0E1CF65
:10517000883179F31F5F183029F7ECCFCF93DF9395
:10518000EC018C85883021F00E944A2888E08C87C9
:10519000DF91CF910895CF92DF92EF92FF92CF935C
:1051A000DF93EC018C85883041F168E070E00E946B
:1051B000B9260E9475036B017C01CE010E94C623B3
:1051C000882389F061E070E080E090E00E94450370
:1051D0000E9475036C197D098E099F09683E734012
:1051E0008105910550F3CE010E94C623882319F052
:1051F0008C850E944A2888E08C87DF91CF91FF90B0
:10520000EF90DF90CF9008958F929F92AF92BF92D0
:10521000CF92DF92EF92FF920F931F93CF936C0187
:105220005B017A01FC01C485C830A1F481E090E003
:10523000F60182839383F12CE12CC701CF911F915A
:105240000F91FF90EF90DF90CF90BF90AF909F9025
:105250008F9008958A014130584010F000E018E026
:105260008C2F0E94AA234C0163E070E08C2F0E94D7
:105270004C23873111F08C3109F58016910680F3AB
:105280009801A50170E060E08C2F0E94472660E243
:1052900070E08C2F0E94B92662E070E08C2F0E9493
:1052A0004C2384FD0EC063E070E08C2F0E944C23E1
:1052B0008111F2CF8C2F0E944A28B8CF10E000E075
:1052C000DFCF40E162E070E08C2F0E943E26012B90
:1052D00009F0B3CFABCF1F93CF93DF93EC01162F21
:1052E0008C850E94F323482F112349F0406170E020
:1052F00060E08C85DF91CF911F910C943E264F7E0C
:10530000F6CF1F93CF93DF93EC01162F8C850E946D
:10531000F323482F112349F0406470E060E08C854E
:10532000DF91CF911F910C943E264F7BF6CFCF9308
:10533000FC01C48560E270E08C2F0E94B92662E017
:1053400070E08C2F0E944C2384FD11C062E070E05D
:105350008C2F0E944C2383FFF2CF48E162E070E083
:105360008C2F0E943E2690E080E0CF91089540E18E
:1053700062E070E08C2F0E943E2681E090E0F5CF45
:10538000CF93DF93C82FD62F472F60E170E00E94A4
:105390003E264D2F61E170E08C2FDF91CF910C9470
:1053A0003E261F93CF93DF93DB01FC0115A216A2CB
:1053B00052962D913C915397FB01232B19F53E9664
:1053C0001E962C91211109C02181211106C0228134
:1053D000211103C023812223C9F041155105B1F0E9
:1053E000EA01DC011C961C91BF01812F0E945F2401
:1053F000BE01812F0E94C02981E090E0DF91CF9112
:105400001F910895329612962C91DCCF90E080E0A7
:10541000F5CF2F923F924F925F926F927F928F9231
:105420009F92AF92BF92CF92DF92EF92FF920F9333
:105430001F93CF93DF93CDB7DEB76F97CDBFDEBF9E
:105440007C015B016A01DB01FB0181918111FDCFD0
:1054500030E020E090E080E05AE04D91442341F1BB
:10546000843091050CF051C04E32A9F42F3F310524
:1054700011F00CF04AC0F60162897389FC01672BB8
:1054800041F43E96EC0DFD1D2083019630E020E0B6
:10549000E4CF3296F7CF529FB001539F700D112485
:1054A000242F440F330B20533109260F371FD5CF3C
:1054B0002F3F310509F04CF58430910534F5F601A4
:1054C00042895389452BF9F40E96C80ED91EF60170
:1054D0002083AA24A394B12CC5016F96CDBFDEBF53
:1054E000DF91CF911F910F91FF90EF90DF90CF90C0
:1054F000BF90AF909F908F907F906F905F904F90F4
:105500003F902F9008950296E0CF6DE678E2C701B4
:105510000E941719811105C287010A5E1F4F0E9460
:1055200075036F7077277C5FC8010E948F288130D8
:1055300009F0FCC1B701CE0101960E94E51145E3D7
:1055400050E0BE016F5F7F4FC8010E94D129892BB7
:1055500031F4B12CA12CC8010E94BE28BDCF0E94FD
:105560007503F701648B758B42E050E0B7016C5E08
:105570007F4FC8010E94872681E090E089839A834B
:1055800042E050E0BE016F5F7F4FC8010E94872656
:1055900080E091E089839A8342E050E0BE016F5F32
:1055A0007F4FC8010E94872619821A8242E050E08C
:1055B000BE016F5F7F4FC8010E94872642E050E026
:1055C000BE016F5F7F4FC8010E94872642E050E016
:1055D000BE016F5F7F4FC8010E9487263501F5012C
:1055E0008081882301F15301F50181912F018823E6
:1055F00011F08E32B1F44501861897081814190479
:1056000074F48D8A41E050E0BE016B5E7F4FC801AB
:105610000E948726A401B301C8010E948726320197
:10562000DECF5201E1CF1D8A41E050E0BE016B5E4A
:105630007F4FC8010E948726A12CBB24B394A98266
:10564000BA8242E050E0BE016F5F7F4FC8010E9406
:105650008726A982BA8242E050E0BE016F5F7F4F89
:10566000C8010E948726C8010E949729892B09F446
:1056700070CFF3E06F2E712CC70185968E8F9F8FB0
:10568000F6013296EC8FFD8F1601FEE02F0E311CD5
:1056900021C06E8D7F8DCE0101960E94E511BE0165
:1056A0006F5F7F4FC7010E941719882329F0F70108
:1056B00081AD92ADC59759F1EEEFAE2EBB24BA94F1
:1056C00081E0681A710809F446CFFFEFAF16BF06F4
:1056D00009F041CF0E9475034B015C01C8010E9493
:1056E000952718161906ACF20E94750368197909F6
:1056F0008A099B09693873418105910508F008C141
:1057000062E370E080E090E00E944503E7CF85AD62
:1057100096AD0C970CF400C14CE050E0BE016F5FF9
:105720007F4FC8010E944C278B819C819827892735
:105730009827898F9A8FF7014489558929813A8161
:105740004217530711F497FD08C0C8010E94100EBC
:105750007CEFA72EBB24BA94B3CF8F709270892BA5
:1057600041F0C8010E94100E6BEFA62EBB24BA9424
:10577000A7CF4F805884542445245424B12CA12C05
:1057800041145104D1F4C8010E94100E5AEFA52E05
:10579000BB24BA9495CF8D89811117C0C8010E948E
:1057A0006B27C8010E946B27C8010E946B27C801A4
:1057B0000E946B27FFEFAF1ABF0A8D819E81982749
:1057C00089279827A816B906A8F441E050E0BE0141
:1057D0006B5E7F4FC8010E944C278D898823D9F2C8
:1057E0008D899FEF980F9D8B8823A9F2C8010E9495
:1057F0006B27F6CF912C812C41E050E0BE01655E15
:105800007F4FC8010E944C278B8D982F907C61F4AC
:10581000882389F08B8D9FEF980F9B8F882341F011
:10582000C8010E946B27F6CFC8010E946B271B8E10
:105830008B8D8111E1CF42E050E0BE01695E7F4F68
:10584000C8010E944C2742E050E0BE016B5E7F4FD2
:10585000C8010E944C27C8010E946B27C8010E9402
:105860006B27C8010E946B27C8010E946B2742E08A
:1058700050E0BE01675E7F4FC8010E944C278F89B0
:10588000988D8115914021F5AD88BE88BA24AB244E
:10589000BA2481E0A816B104D9F4898D9A8D8115B6
:1058A000944041F0C8010E94100E47EFA42EBB2483
:1058B000BA9406CFF60182899389B101892B11F040
:1058C0006C8D7D8D44E050E0C8010E944C27F8CEDD
:1058D000B12CA12C898D9A8D982789279827A816F5
:1058E000B90638F4C8010E946B27FFEFAF1ABF0A50
:1058F000F1CF2FEF821A920A4814590409F07CCF95
:10590000C8010E94100E36EFA32EBB24BA94D8CE45
:10591000AA24AA94BA2CD4CE9DEFA92EBB24BA9463
:10592000CFCE8EEFA82EBB24BA94D6CDB12CA12C0D
:10593000D3CDCF92DF92EF92FF920F931F93CF932D
:10594000DF93CDB7DEB7C756D109CDBFDEBF8C011F
:105950007B016A01CE0101960E94CF12198E1A8E28
:1059600088EE93E0A0E0B0E08B8F9C8FAD8FBE8F70
:105970008AE093EF8F8B988F88E08BA3CE01869679
:105980000E94CF12CE018C5A9F4F0E94CF1262EF1D
:1059900079E2CE01805C9F4F0E94E51180E1FE011B
:1059A000EE5BFF4FDE01139601900D928A95E1F7B1
:1059B00064968EAD9FAD64978B8B9C8B1D8A1E8ADF
:1059C000AE014C5A5F4FB701CE0101960E94092AE1
:1059D00081309105A1F4D801ED91FC91E488F5881E
:1059E000BE016C5A7F4FCE01805C9F4F0E94E51133
:1059F000A601BE01605C7F4FC801F7010995C95936
:105A0000DF4FCDBFDEBFDF91CF911F910F91FF9090
:105A1000EF90DF90CF900895CF92DF92EF92FF92B8
:105A20000F931F93CF93DF93CDB7DEB7C756D1093E
:105A3000CDBFDEBF8C017B016A01CE0101960E94C1
:105A4000CF12198E1A8E88EE93E0A0E0B0E08B8F13
:105A50009C8FAD8FBE8F8AE093EF8F8B988F88E0FD
:105A60008BA3CE0186960E94CF12CE018C5A9F4FF7
:105A70000E94CF1262EF79E2CE01805C9F4F0E94BC
:105A8000E51180E1FE01EE5BFF4FDE011396019010
:105A90000D928A95E1F764968EAD9FAD64978B8BDE
:105AA0009C8B1D8A1E8AAE014C5A5F4FB701CE01F6
:105AB00001960E94092A81309105A1F4D801ED9147
:105AC000FC91E684F784BE016C5A7F4FCE01805C66
:105AD0009F4F0E94E511A601BE01605C7F4FC80187
:105AE000F7010995C959DF4FCDBFDEBFDF91CF91D7
:105AF0001F910F91FF90EF90DF90CF900895BF928C
:105B0000CF92DF92EF92FF920F931F93CF93DF9389
:105B1000CDB7DEB72697CDBFDEBFFC012485283088
:105B200071F080E02696CDBFDEBFDF91CF911F914F
:105B30000F91FF90EF90DF90CF90BF9008956A0192
:105B40008B017C01B12C63E070E08B2D0E944C2313
:105B500081114AC0F701B486F7018485883009F3C2
:105B600096E0E4EFF2EFDE01119601900D929A9526
:105B7000E1F7F8012289338921153105E9F5978587
:105B80009F779C83F80121153105C1F590899D838C
:105B9000F80121153105A1F591899E83B801232BC8
:105BA00089F5625F7F4F0E945F24B601F70184850B
:105BB0000E94C029F70164856295660F607E645F6C
:105BC00026E030E0AE014F5F5F4F86E090E00E943C
:105BD0001624F70117A210A620E8A60162E084852A
:105BE0000E94572881E09ECF883109F4B3CFB39447
:105BF000F8E0BF12A8CFB0CF9381C2CF9481C7CFB6
:105C00009581CBCF6E5F7F4FCECFCF92DF92FF9249
:105C10000F931F93CF93DF93DC011C962C912830B8
:105C200051F090E080E0DF91CF911F910F91FF90B4
:105C3000DF90CF9008956A018B01EC01F12C63E0B5
:105C400070E08F2D0E944C2381112EC0FC868C8524
:105C5000883039F320910028309101282F5F3F4F81
:105C600059F1209300283093012840910028509149
:105C7000012820E061E00E945728F8018289938979
:105C8000892BE9F43E96D8011E968C918F3FE1F462
:105C900081818F3F21F582818F3F09F583818F3F7D
:105CA000F1F488E08C87BDCF8B7F883179F2F39453
:105CB000B8E0FB12C4CFCBCF20E030ECD2CF32968D
:105CC000D80112968C91E2CF811109C08181811196
:105CD00006C08281811103C08381882311F3C1141E
